{
	"data": {
		"bytecode": {
			"linkReferences": {},
			"object": "600060045564e8d4a51000600b5560c060405260096080819052684b6974747920496e7560b81b60a09081526200003a91600c919062000849565b50604080518082019091526005808252646b6974747960d81b60209092019182526200006991600d9162000849565b506064600e556103e8600f556103846010556105dc6011556127106012556013805460ff191660099081179091556014819055620000a990600a62000a04565b600b54620000b8919062000a19565b6015819055620000cb9060001962000a51565b620000d99060001962000a68565b601655601a80546001600160a01b0319908116737a250d5630b4cf539739df2c5dacb4c659f2488d17909155601b8054821661dead179055601c80549091169055601d8054600161ff0160a01b0319167307a771747f94aa0a19840fa8985be809df0fd0d21790556002601e8190556064601f81905560155490916200015f9162000a19565b6200016b919062000a82565b602055602054602155601f54601e54600b5462000189919062000a19565b62000195919062000a82565b60225560026023556064602455602454602354601554620001b7919062000a19565b620001c3919062000a82565b602555602554602655602454602354600b54620001e1919062000a19565b620001ed919062000a82565b602755612710601554600562000204919062000a19565b62000210919062000a82565b6028556103e8601554600562000227919062000a19565b62000233919062000a82565b602955602a805462ffffff19166101001790556000602b819055602c819055602d819055602e819055602f81905560308190556031805460ff199081166001908117909255603380549091169055601654916200028d3390565b6001600160a01b039081168252602080830193909352604091820160009081209490945583546001600160a01b03191633908117855580855260068452828520805460ff199081166001908117909255308752848720805482168317905586549093168652600a9094529190932080549093169091179091556200032090601a546001600160a01b03166000196200071d565b601a546200033c9030906001600160a01b03166000196200071d565b60096020527fabd024c87472d03e1ca5fcc0d7644f059cba6f785352b4ae73120a73add458b98054600160ff1991821681179092557f3869fbe785900b2463db420270d36cee96eed8446f3f10c59d2b745fb651f52980548216831790557f9137809bc8f5b41432da4915b9fe8ab7ee8ea8184ca853792c584c626b4d17ef80548216831790557f9400bf10736cef1f95e9a478edc25cc53733eb45ccd97ade9e9b7ddcf78fe1e280548216831790557f6601dc0be0a75ab4e07c82120bad404ae9074f8db11ccdbdbe12cadf268ffb7c80548216831790557f395f73aff6550c9cb54c9619c18e9b8e5e8796e8f966f18324836c7ea74228b380548216831790557f830034d17a3aeb66fd7660ab84bf55c8011f552ed98f1f0ef9ea8e4f9363e9e480548216831790557f25db9a961f0bbf43a493dda5a5a2c0261448340f42d8923096693a22f432129b80548216831790557f1cc420df84cd10c91185c321eb3c36b67c7da3eeb8fd2c9d4d00add336c650bb80548216831790557fa9ebeb2f80255e363368a6671c0d2f85d6dece68310503edcdcc52a422c8f2fa80548216831790557f16cdaaf50e0e0f84ef935a038e56ab239b1cf2ed74f029ee782c31467f0a163480548216831790557fed3ee17708767dad4fc989c3348857ca09e4378be9dd02267f4af5650349a0a080548216831790557f582b2e49edb2a2376e974df05b635a3a84da68a31e95db928b7c07a2c5b903a480548216831790557f71a44a1ad181cda08c9003b7f4690de015dc91b7c41c3774367383d4c442c90c80548216831790557f7ff672b1a4014c38a8e056092e0cf5d9146de87c38a87d16db72274a1e2568fd80548216831790557f13d3ddaa9098db39dff53f308936b5b00a50f1a5cd54b59a2bddd63f41ae507e80548216831790557f59021f466deacb9f9beba0653fa0295e54983870e1a46add3c84178897bffe3580548216831790557f499e1b0151746d1f570179192791396f59ff8ae40d04925e98721067f414528a80548216831790557fa45c839cf8fc4d53c260b6298450791380d0c10c3beb193893ef0965fba577c680548216831790557fcdbcb6bed90910ca0eb0722a44df634bb2697e31063133e2b0c061afcb0e4886805482168317905573725ad056625326b490b128e02759007ba5e4ebf16000527fa8093e7e584b1428ca4db9e02e738bf6e0c17f0e8d95ab3b4db2a3ebd04a5a5580549091169091179055620006c73390565b6001600160a01b031660006001600160a01b03167fddf252ad1be2c89b69c2b068fc378daa952ba7f163c4a11628f55a4df523b3ef6015546040516200070f91815260200190565b60405180910390a362000ad6565b6001600160a01b038316620007855760405162461bcd60e51b8152602060048201526024808201527f45524332303a20617070726f76652066726f6d20746865207a65726f206164646044820152637265737360e01b60648201526084015b60405180910390fd5b6001600160a01b038216620007e85760405162461bcd60e51b815260206004820152602260248201527f45524332303a20617070726f766520746f20746865207a65726f206164647265604482015261737360f01b60648201526084016200077c565b6001600160a01b0383811660008181526005602090815260408083209487168084529482529182902085905590518481527f8c5be1e5ebec7d5bd14f71427d1e84f3dd0314c0f7b2291e5b200ac8c7c3b925910160405180910390a3505050565b828054620008579062000a99565b90600052602060002090601f0160209004810192826200087b5760008555620008c6565b82601f106200089657805160ff1916838001178555620008c6565b82800160010185558215620008c6579182015b82811115620008c6578251825591602001919060010190620008a9565b50620008d4929150620008d8565b5090565b5b80821115620008d45760008155600101620008d9565b634e487b7160e01b600052601160045260246000fd5b600181815b80851115620009465781600019048211156200092a576200092a620008ef565b808516156200093857918102915b93841c93908002906200090a565b509250929050565b6000826200095f57506001620009fe565b816200096e57506000620009fe565b81600181146200098757600281146200099257620009b2565b6001915050620009fe565b60ff841115620009a657620009a6620008ef565b50506001821b620009fe565b5060208310610133831016604e8410600b8410161715620009d7575081810a620009fe565b620009e3838362000905565b8060001904821115620009fa57620009fa620008ef565b0290505b92915050565b600062000a1283836200094e565b9392505050565b600081600019048311821515161562000a365762000a36620008ef565b500290565b634e487b7160e01b600052601260045260246000fd5b60008262000a635762000a6362000a3b565b500690565b60008282101562000a7d5762000a7d620008ef565b500390565b60008262000a945762000a9462000a3b565b500490565b600181811c9082168062000aae57607f821691505b6020821081141562000ad057634e487b7160e01b600052602260045260246000fd5b50919050565b6135128062000ae66000396000f3fe6080604052600436106102975760003560e01c806350a8e0161161015a5780638a8c523c116100c1578063c647b20e1161007a578063c647b20e146107ea578063dd62ed3e1461080a578063e79d416014610850578063eafb5a3c14610866578063f6540ec714610886578063fb78680d1461089c57600080fd5b80638a8c523c146107605780638da5cb5b1461074257806395d89b4114610775578063a457c2d71461078a578063a9059cbb146107aa578063c49b9a80146107ca57600080fd5b80636612e66f116101135780636612e66f1461069457806370a08231146106b4578063715018a6146106d457806380c581d1146106e957806388f8202014610709578063893d20e81461074257600080fd5b806350a8e016146105c55780635342acb4146105e5578063571ac8b01461061e57806358fa63ca1461063e5780635d098b381461065e578063640384091461067e57600080fd5b806323b872dd116101fe57806339509351116101b757806339509351146105045780633f3cf56c146105245780634129ecee14610544578063452ed4f1146105645780634a74bb02146105845780634fb2e45d146105a557600080fd5b806323b872dd1461044257806326003957146104625780632d83811914610482578063313ce567146104a257806333251a0b146104c45780633865cf3f146104e457600080fd5b806313114a9d1161025057806313114a9d146103ad57806313e46192146103cc5780631459eb36146103ec57806315639c1b1461040157806318160ddd1461041757806322976e0d1461042c57600080fd5b806303fd2a45146102a3578063044df726146102e057806306fdde03146103025780630758d92414610324578063095ea7b3146103445780630f3a325f1461037457600080fd5b3661029e57005b600080fd5b3480156102af57600080fd5b50601b546102c3906001600160a01b031681565b6040516001600160a01b0390911681526020015b60405180910390f35b3480156102ec57600080fd5b506103006102fb36600461305f565b6108bc565b005b34801561030e57600080fd5b5061031761091c565b6040516102d79190613092565b34801561033057600080fd5b506018546102c3906001600160a01b031681565b34801561035057600080fd5b5061036461035f3660046130ff565b6109ae565b60405190151581526020016102d7565b34801561038057600080fd5b5061036461038f36600461312b565b6001600160a01b031660009081526009602052604090205460ff1690565b3480156103b957600080fd5b506017545b6040519081526020016102d7565b3480156103d857600080fd5b506103006103e7366004613148565b6109c4565b3480156103f857600080fd5b50610300610cb8565b34801561040d57600080fd5b506103be600e5481565b34801561042357600080fd5b506015546103be565b34801561043857600080fd5b506103be600f5481565b34801561044e57600080fd5b5061036461045d366004613166565b610f16565b34801561046e57600080fd5b5061030061047d3660046131a7565b610f69565b34801561048e57600080fd5b506103be61049d3660046131c9565b611051565b3480156104ae57600080fd5b5060135460405160ff90911681526020016102d7565b3480156104d057600080fd5b506103006104df36600461312b565b6110d5565b3480156104f057600080fd5b506103006104ff3660046131a7565b611192565b34801561051057600080fd5b5061036461051f3660046130ff565b61120c565b34801561053057600080fd5b5061030061053f3660046131a7565b611243565b34801561055057600080fd5b5061030061055f3660046131e2565b611336565b34801561057057600080fd5b506019546102c3906001600160a01b031681565b34801561059057600080fd5b50601d5461036490600160a81b900460ff1681565b3480156105b157600080fd5b506103006105c036600461312b565b61138a565b3480156105d157600080fd5b50602a546103649062010000900460ff1681565b3480156105f157600080fd5b5061036461060036600461312b565b6001600160a01b031660009081526006602052604090205460ff1690565b34801561062a57600080fd5b5061036461063936600461312b565b61152c565b34801561064a57600080fd5b50601c546102c3906001600160a01b031681565b34801561066a57600080fd5b5061030061067936600461312b565b611540565b34801561068a57600080fd5b506103be60225481565b3480156106a057600080fd5b506103006106af366004613148565b6115e0565b3480156106c057600080fd5b506103be6106cf36600461312b565b611635565b3480156106e057600080fd5b50610300611694565b3480156106f557600080fd5b50610300610704366004613148565b611713565b34801561071557600080fd5b5061036461072436600461312b565b6001600160a01b031660009081526007602052604090205460ff1690565b34801561074e57600080fd5b506000546001600160a01b03166102c3565b34801561076c57600080fd5b506103006117f6565b34801561078157600080fd5b50610317611936565b34801561079657600080fd5b506103646107a53660046130ff565b611945565b3480156107b657600080fd5b506103646107c53660046130ff565b61197c565b3480156107d657600080fd5b506103006107e5366004613205565b611989565b3480156107f657600080fd5b506103006108053660046131a7565b611a0b565b34801561081657600080fd5b506103be610825366004613220565b6001600160a01b03918216600090815260056020908152604080832093909416825291909152205490565b34801561085c57600080fd5b506103be60305481565b34801561087257600080fd5b5061030061088136600461312b565b611a75565b34801561089257600080fd5b506103be60275481565b3480156108a857600080fd5b506103006108b7366004613259565b611dfb565b6000546001600160a01b031633146108ef5760405162461bcd60e51b81526004016108e69061328b565b60405180910390fd5b602a805461ff00191661010093151593909302929092179091556031805460ff1916911515919091179055565b6060600c805461092b906132c0565b80601f0160208091040260200160405190810160405280929190818152602001828054610957906132c0565b80156109a45780601f10610979576101008083540402835291602001916109a4565b820191906000526020600020905b81548152906001019060200180831161098757829003601f168201915b5050505050905090565b60006109bb338484611e64565b50600192915050565b6000546001600160a01b031633146109ee5760405162461bcd60e51b81526004016108e69061328b565b60018115151415610b23576001600160a01b03821660009081526007602052604090205460ff1615610a625760405162461bcd60e51b815260206004820152601c60248201527f4163636f756e7420697320616c7265616479206578636c756465642e0000000060448201526064016108e6565b6001600160a01b03821660009081526001602052604090205415610abc576001600160a01b038216600090815260016020526040902054610aa290611051565b6001600160a01b0383166000908152600260205260409020555b506001600160a01b03166000818152600760205260408120805460ff191660019081179091556008805491820181559091527ff3f7a9fe364faab93b216da50a3214154f22a0a2b415b23a84c8169e8b636ee30180546001600160a01b0319169091179055565b80610cb4576001600160a01b03821660009081526007602052604090205460ff16610b905760405162461bcd60e51b815260206004820152601c60248201527f4163636f756e7420697320616c726561647920696e636c756465642e0000000060448201526064016108e6565b60005b600854811015610cb257826001600160a01b031660088281548110610bba57610bba6132fb565b6000918252602090912001546001600160a01b03161415610ca05760088054610be590600190613327565b81548110610bf557610bf56132fb565b600091825260209091200154600880546001600160a01b039092169183908110610c2157610c216132fb565b600091825260208083209190910180546001600160a01b0319166001600160a01b039485161790559185168152600282526040808220829055600790925220805460ff191690556008805480610c7957610c7961333e565b600082815260209020810160001990810180546001600160a01b0319169055019055610cb2565b80610caa81613354565b915050610b93565b505b5050565b6000546001600160a01b03163314610ce25760405162461bcd60e51b81526004016108e69061328b565b60335460ff1615610d295760405162461bcd60e51b815260206004820152601160248201527020b63932b0b23c9031b7b6b83632ba329760791b60448201526064016108e6565b601a54601880546001600160a01b0319166001600160a01b0390921691821790556040805163c45a015560e01b8152905163c45a015591600480820192602092909190829003018186803b158015610d8057600080fd5b505afa158015610d94573d6000803e3d6000fd5b505050506040513d601f19601f82011682018060405250810190610db8919061336f565b6001600160a01b031663c9c65396601860009054906101000a90046001600160a01b03166001600160a01b031663ad5c46486040518163ffffffff1660e01b815260040160206040518083038186803b158015610e1457600080fd5b505afa158015610e28573d6000803e3d6000fd5b505050506040513d601f19601f82011682018060405250810190610e4c919061336f565b6040516001600160e01b031960e084901b1681526001600160a01b039091166004820152306024820152604401602060405180830381600087803b158015610e9357600080fd5b505af1158015610ea7573d6000803e3d6000fd5b505050506040513d601f19601f82011682018060405250810190610ecb919061336f565b601980546001600160a01b0319166001600160a01b039290921691821790556000908152600360205260409020805460ff199081166001908117909255603380549091169091179055565b6000610f23848484611f88565b506001600160a01b038416600090815260056020908152604080832033808552925290912054610f5f918691610f5a908690613327565b611e64565b5060019392505050565b6000546001600160a01b03163314610f935760405162461bcd60e51b81526004016108e69061328b565b60008183601554610fa4919061338c565b610fae91906133ab565b90506103e8601554610fc091906133ab565b81101561102a5760405162461bcd60e51b815260206004820152603260248201527f4d61782057616c6c657420616d74206d7573742062652061626f766520302e31604482015271129037b3103a37ba30b61039bab838363c9760711b60648201526084016108e6565b6025819055600b54829061103f90859061338c565b61104991906133ab565b602755505050565b60006016548211156110b85760405162461bcd60e51b815260206004820152602a60248201527f416d6f756e74206d757374206265206c657373207468616e20746f74616c207260448201526965666c656374696f6e7360b01b60648201526084016108e6565b60006110c26123b4565b90506110ce81846133ab565b9392505050565b6000546001600160a01b031633146110ff5760405162461bcd60e51b81526004016108e69061328b565b6001600160a01b03811660009081526009602052604090205460ff166111715760405162461bcd60e51b815260206004820152602160248201527f4163636f756e74206973206e6f742061207265636f7264656420736e697065726044820152601760f91b60648201526084016108e6565b6001600160a01b03166000908152600960205260409020805460ff19169055565b6000546001600160a01b031633146111bc5760405162461bcd60e51b81526004016108e69061328b565b602b541580156111cc5750602e54155b6112015760405162461bcd60e51b815260206004820152600660248201526522b93937b91760d11b60448201526064016108e6565b602b91909155602e55565b3360008181526005602090815260408083206001600160a01b038716845290915281205490916109bb918590610f5a9086906133cd565b6000546001600160a01b0316331461126d5760405162461bcd60e51b81526004016108e69061328b565b6000818360155461127e919061338c565b61128891906133ab565b90506103e860155461129a91906133ab565b81101561130f5760405162461bcd60e51b815260206004820152603760248201527f4d6178205472616e73616374696f6e20616d74206d7573742062652061626f7660448201527f6520302e3125206f6620746f74616c20737570706c792e00000000000000000060648201526084016108e6565b6020819055600b54829061132490859061338c565b61132e91906133ab565b602255505050565b6000546001600160a01b031633146113605760405162461bcd60e51b81526004016108e69061328b565b602f541580156113795750602a5462010000900460ff16155b61138257600080fd5b60ff16602f55565b6000546001600160a01b031633146113b45760405162461bcd60e51b81526004016108e69061328b565b6001600160a01b0381166113da5760405162461bcd60e51b81526004016108e6906133e5565b601b546001600160a01b03828116911614156114085760405162461bcd60e51b81526004016108e6906133e5565b60008054611421916001600160a01b03909116906115e0565b61142c8160016115e0565b6114378160016109c4565b600054601d546001600160a01b039081169116141561146c57601d80546001600160a01b0319166001600160a01b0383161790555b600054611481906001600160a01b0316611635565b600080546001600160a01b0390811682526005602090815260408084208684168552909152822092909255805490916114ba9116611635565b11156114e1576000546114df906001600160a01b0316826114da82611635565b611f88565b505b600080546001600160a01b0319166001600160a01b0383169081178255604051909182917f8be0079c531659141344cd1fd0a4f28419497f9722a3daafe3b4186f6b6457e09190a350565b600061153a826000196109ae565b92915050565b6000546001600160a01b0316331461156a5760405162461bcd60e51b81526004016108e69061328b565b601d546001600160a01b03828116911614156115be5760405162461bcd60e51b815260206004820152601360248201527257616c6c657420616c7265616479207365742160681b60448201526064016108e6565b601d80546001600160a01b0319166001600160a01b0392909216919091179055565b6000546001600160a01b0316331461160a5760405162461bcd60e51b81526004016108e69061328b565b6001600160a01b03919091166000908152600660205260409020805460ff1916911515919091179055565b6001600160a01b03811660009081526007602052604081205460ff161561167257506001600160a01b031660009081526002602052604090205490565b6001600160a01b03821660009081526001602052604090205461153a90611051565b6000546001600160a01b031633146116be5760405162461bcd60e51b81526004016108e69061328b565b600080546116d7916001600160a01b03909116906115e0565b600080546001600160a01b031916815560405181907f8be0079c531659141344cd1fd0a4f28419497f9722a3daafe3b4186f6b6457e0908290a3565b6000546001600160a01b0316331461173d5760405162461bcd60e51b81526004016108e69061328b565b8061176457506001600160a01b03166000908152600360205260409020805460ff19169055565b600454156117cb5762093a806004544261177e9190613327565b116117cb5760405162461bcd60e51b815260206004820181905260248201527f43616e6e6f74207365742061206e657720706169722074686973207765656b2160448201526064016108e6565b6001600160a01b0382166000908152600360205260409020805460ff19166001179055426004555050565b6000546001600160a01b031633146118205760405162461bcd60e51b81526004016108e69061328b565b602a5460ff16156118735760405162461bcd60e51b815260206004820152601860248201527f54726164696e6720616c726561647920656e61626c656421000000000000000060448201526064016108e6565b602a5462010000900460ff166118e25760405162461bcd60e51b815260206004820152602e60248201527f43616e6e6f74206265207573656420756e74696c206c6971756964697479206860448201526d6173206265656e2061646465642160901b60648201526084016108e6565b6118ed3060016109c4565b601954611904906001600160a01b031660016109c4565b602f546001146119225761191a436101f46133cd565b602c55611927565b43602c555b602a805460ff19166001179055565b6060600d805461092b906132c0565b3360008181526005602090815260408083206001600160a01b038716845290915281205490916109bb918590610f5a908690613327565b6000610f5f338484611f88565b6000546001600160a01b031633146119b35760405162461bcd60e51b81526004016108e69061328b565b601d8054821515600160a81b0260ff60a81b199091161790556040517f53726dfcaf90650aa7eb35524f4d3220f07413c8d6cb404cc8c18bf5591bc15990611a0090831515815260200190565b60405180910390a150565b6000546001600160a01b03163314611a355760405162461bcd60e51b81526004016108e69061328b565b6010548211158015611a4957506011548111155b611a5257600080fd5b611388611a5f82846133cd565b1115611a6a57600080fd5b600e91909155600f55565b6000546001600160a01b03163314611a9f5760405162461bcd60e51b81526004016108e69061328b565b60008190506000816001600160a01b031663c45a01556040518163ffffffff1660e01b815260040160206040518083038186803b158015611adf57600080fd5b505afa158015611af3573d6000803e3d6000fd5b505050506040513d601f19601f82011682018060405250810190611b17919061336f565b6001600160a01b031663e6a4390530846001600160a01b031663ad5c46486040518163ffffffff1660e01b815260040160206040518083038186803b158015611b5f57600080fd5b505afa158015611b73573d6000803e3d6000fd5b505050506040513d601f19601f82011682018060405250810190611b97919061336f565b6040516001600160e01b031960e085901b1681526001600160a01b0392831660048201529116602482015260440160206040518083038186803b158015611bdd57600080fd5b505afa158015611bf1573d6000803e3d6000fd5b505050506040513d601f19601f82011682018060405250810190611c15919061336f565b90506001600160a01b038116611dbb57816001600160a01b031663c45a01556040518163ffffffff1660e01b815260040160206040518083038186803b158015611c5e57600080fd5b505afa158015611c72573d6000803e3d6000fd5b505050506040513d601f19601f82011682018060405250810190611c96919061336f565b6001600160a01b031663c9c6539630846001600160a01b031663ad5c46486040518163ffffffff1660e01b815260040160206040518083038186803b158015611cde57600080fd5b505afa158015611cf2573d6000803e3d6000fd5b505050506040513d601f19601f82011682018060405250810190611d16919061336f565b6040516001600160e01b031960e085901b1681526001600160a01b03928316600482015291166024820152604401602060405180830381600087803b158015611d5e57600080fd5b505af1158015611d72573d6000803e3d6000fd5b505050506040513d601f19601f82011682018060405250810190611d96919061336f565b601980546001600160a01b0319166001600160a01b0392909216919091179055611dd7565b601980546001600160a01b0319166001600160a01b0383161790555b50601880546001600160a01b0319166001600160a01b039290921691909117905550565b6000546001600160a01b03163314611e255760405162461bcd60e51b81526004016108e69061328b565b8284601554611e34919061338c565b611e3e91906133ab565b6028556015548190611e5190849061338c565b611e5b91906133ab565b60295550505050565b6001600160a01b038316611ec65760405162461bcd60e51b8152602060048201526024808201527f45524332303a20617070726f76652066726f6d20746865207a65726f206164646044820152637265737360e01b60648201526084016108e6565b6001600160a01b038216611f275760405162461bcd60e51b815260206004820152602260248201527f45524332303a20617070726f766520746f20746865207a65726f206164647265604482015261737360f01b60648201526084016108e6565b6001600160a01b0383811660008181526005602090815260408083209487168084529482529182902085905590518481527f8c5be1e5ebec7d5bd14f71427d1e84f3dd0314c0f7b2291e5b200ac8c7c3b925910160405180910390a3505050565b60006001600160a01b038416611fee5760405162461bcd60e51b815260206004820152602560248201527f45524332303a207472616e736665722066726f6d20746865207a65726f206164604482015264647265737360d81b60648201526084016108e6565b6001600160a01b0383166120505760405162461bcd60e51b815260206004820152602360248201527f45524332303a207472616e7366657220746f20746865207a65726f206164647260448201526265737360e81b60648201526084016108e6565b600082116120b25760405162461bcd60e51b815260206004820152602960248201527f5472616e7366657220616d6f756e74206d7573742062652067726561746572206044820152687468616e207a65726f60b81b60648201526084016108e6565b6120bc84846123d7565b156122dc57602a5460ff166121135760405162461bcd60e51b815260206004820152601860248201527f54726164696e67206e6f742079657420656e61626c656421000000000000000060448201526064016108e6565b60315460ff16156121c5576001600160a01b03841660009081526003602052604090205460ff1615612184576001600160a01b03831660009081526032602052604090205443141561216457600080fd5b6001600160a01b03831660009081526032602052604090204390556121c5565b6001600160a01b0384166000908152603260205260409020544314156121a957600080fd5b6001600160a01b03841660009081526032602052604090204390555b6020548211156122285760405162461bcd60e51b815260206004820152602860248201527f5472616e7366657220616d6f756e74206578636565647320746865206d6178546044820152673c20b6b7bab73a1760c11b60648201526084016108e6565b601a546001600160a01b0384811691161480159061225f57506001600160a01b03831660009081526003602052604090205460ff16155b156122dc576025548261227185611635565b61227b91906133cd565b11156122dc5760405162461bcd60e51b815260206004820152602a60248201527f5472616e7366657220616d6f756e74206578636565647320746865206d61785760448201526930b63632ba29b4bd329760b11b60648201526084016108e6565b6001600160a01b03841660009081526006602052604090205460019060ff168061231e57506001600160a01b03841660009081526006602052604090205460ff165b15612327575060005b6001600160a01b03841660009081526003602052604090205460ff161561239f57601d54600160a01b900460ff1615801561236b5750601d54600160a81b900460ff165b1561239f57600061237b30611635565b9050602854811061239d57602954811061239457506029545b61239d81612497565b505b6123ab85858584612618565b95945050505050565b60008060006123c1612b2e565b90925090506123d081836133ab565b9250505090565b600080546001600160a01b0384811691161480159061240457506000546001600160a01b03838116911614155b801561242957506001600160a01b0382166000908152600a602052604090205460ff16155b801561244e57506001600160a01b0383166000908152600a602052604090205460ff16155b80156124685750601b546001600160a01b03838116911614155b801561247c57506001600160a01b03821615155b80156110ce57506001600160a01b0383163014159392505050565b601d805460ff60a01b1916600160a01b179055806124b457612608565b60408051600280825260608201835260009260208301908036833701905050905030816000815181106124e9576124e96132fb565b6001600160a01b03928316602091820292909201810191909152601854604080516315ab88c960e31b81529051919093169263ad5c4648926004808301939192829003018186803b15801561253d57600080fd5b505afa158015612551573d6000803e3d6000fd5b505050506040513d601f19601f82011682018060405250810190612575919061336f565b81600181518110612588576125886132fb565b6001600160a01b039283166020918202929092010152601854601d5460405163791ac94760e01b81529183169263791ac947926125d49287926000928892909116904290600401613442565b600060405180830381600087803b1580156125ee57600080fd5b505af1158015612602573d6000803e3d6000fd5b50505050505b50601d805460ff60a01b19169055565b602a54600090610100900460ff161561280b576001600160a01b03851660009081526009602052604090205460ff168061266a57506001600160a01b03841660009081526009602052604090205460ff165b156126aa5760405162461bcd60e51b815260206004820152601060248201526f29b734b832b9103932b532b1ba32b21760811b60448201526064016108e6565b602a5462010000900460ff16612742576126c48585612cb1565b602a5462010000900460ff161580156126e257506126e285856123d7565b1561273d5760405162461bcd60e51b815260206004820152602560248201527f4f6e6c79206f776e65722063616e207472616e736665722061742074686973206044820152643a34b6b29760d91b60648201526084016108e6565b61280b565b6000602c5411801561276c57506001600160a01b03851660009081526003602052604090205460ff165b801561277d575061277d85856123d7565b1561280b57602f54602c546127929043613327565b101561280b576001600160a01b0384166000908152600960205260408120805460ff1916600117905560308054916127c983613354565b90915550506040516001600160a01b03851681527f18e6e5ce5c121466e41a954e72765d1ea02b8e6919043b61f0dab08b4c6572e59060200160405180910390a15b60006128178484612dce565b60808101516001600160a01b03881660009081526001602052604090205491925061284191613327565b6001600160a01b038088166000908152600160205260408082209390935560608401519188168152919091205461287891906133cd565b6001600160a01b0380871660009081526001602090815260408083209490945591891681526007909152205460ff1680156128cc57506001600160a01b03851660009081526007602052604090205460ff16155b15612913576001600160a01b0386166000908152600260205260409020546128f5908590613327565b6001600160a01b038716600090815260026020526040902055612a53565b6001600160a01b03861660009081526007602052604090205460ff1615801561295457506001600160a01b03851660009081526007602052604090205460ff165b1561299c5780516001600160a01b03861660009081526002602052604090205461297e91906133cd565b6001600160a01b038616600090815260026020526040902055612a53565b6001600160a01b03861660009081526007602052604090205460ff1680156129dc57506001600160a01b03851660009081526007602052604090205460ff165b15612a53576001600160a01b038616600090815260026020526040902054612a05908590613327565b6001600160a01b0380881660009081526002602052604080822093909355835191881681529190912054612a3991906133cd565b6001600160a01b0386166000908152600260205260409020555b612a5d86866123d7565b15612a8b57602b541580612a8157506005600b54612a7b91906133ab565b602b5414155b15612a8b57600080fd5b604081015115612aa357612aa3868260400151612f58565b60008160a001511180612aba575060008160200151115b15612ad157612ad18160a001518260200151613024565b846001600160a01b0316866001600160a01b03167fddf252ad1be2c89b69c2b068fc378daa952ba7f163c4a11628f55a4df523b3ef8360000151604051612b1a91815260200190565b60405180910390a350600195945050505050565b6016546015546000918291825b600854811015612c8057826001600060088481548110612b5d57612b5d6132fb565b60009182526020808320909101546001600160a01b031683528201929092526040019020541180612bc85750816002600060088481548110612ba157612ba16132fb565b60009182526020808320909101546001600160a01b03168352820192909252604001902054115b15612bde57601654601554945094505050509091565b6001600060088381548110612bf557612bf56132fb565b60009182526020808320909101546001600160a01b03168352820192909252604001902054612c249084613327565b92506002600060088381548110612c3d57612c3d6132fb565b60009182526020808320909101546001600160a01b03168352820192909252604001902054612c6c9083613327565b915080612c7881613354565b915050612b3b565b50601554601654612c9191906133ab565b821015612ca8576016546015549350935050509091565b90939092509050565b602a5462010000900460ff1615612d165760405162461bcd60e51b815260206004820152602360248201527f4c697175696469747920616c726561647920616464656420616e64206d61726b60448201526232b21760e91b60648201526084016108e6565b612d2082826123d7565b158015612d3a57506019546001600160a01b038281169116145b15610cb4576001600160a01b0382166000908152600a602052604090819020805460ff19166001908117909155602a805462ff000019166201000017905542602d55601d805460ff60a81b1916600160a81b17905590517f53726dfcaf90650aa7eb35524f4d3220f07413c8d6cb404cc8c18bf5591bc15991612dc291901515815260200190565b60405180910390a15050565b612e076040518060c001604052806000815260200160008152602001600081526020016000815260200160008152602001600081525090565b612e406040518060c001604052806000815260200160008152602001600081526020016000815260200160008152602001600081525090565b6000612e4a6123b4565b9050612e56818661338c565b60808301528315612ed657601254600e54612e71908761338c565b612e7b91906133ab565b6020830152601254600f54612e90908761338c565b612e9a91906133ab565b604083018190526020830151612eb091906133cd565b612eba9086613327565b82526020820151612ecc90829061338c565b60a0830152612eef565b6000602083018190526040830181905285835260a08301525b602e541580612f135750601354612f0a9060ff1660056134b3565b60ff16602e5414155b15612f1d57600080fd5b808260400151612f2d919061338c565b8260a00151612f3c91906133cd565b8260800151612f4b9190613327565b6060830152509392505050565b6000612f626123b4565b90506000612f70828461338c565b30600090815260016020526040902054909150612f8e9082906133cd565b3060009081526001602090815260408083209390935560079052205460ff1615612fde5730600090815260026020526040902054612fcd9084906133cd565b306000908152600260205260409020555b60405183815230906001600160a01b038616907fddf252ad1be2c89b69c2b068fc378daa952ba7f163c4a11628f55a4df523b3ef9060200160405180910390a350505050565b816016546130329190613327565b6016556017546130439082906133cd565b6017555050565b8035801515811461305a57600080fd5b919050565b6000806040838503121561307257600080fd5b61307b8361304a565b91506130896020840161304a565b90509250929050565b600060208083528351808285015260005b818110156130bf578581018301518582016040015282016130a3565b818111156130d1576000604083870101525b50601f01601f1916929092016040019392505050565b6001600160a01b03811681146130fc57600080fd5b50565b6000806040838503121561311257600080fd5b823561311d816130e7565b946020939093013593505050565b60006020828403121561313d57600080fd5b81356110ce816130e7565b6000806040838503121561315b57600080fd5b823561307b816130e7565b60008060006060848603121561317b57600080fd5b8335613186816130e7565b92506020840135613196816130e7565b929592945050506040919091013590565b600080604083850312156131ba57600080fd5b50508035926020909101359150565b6000602082840312156131db57600080fd5b5035919050565b6000602082840312156131f457600080fd5b813560ff811681146110ce57600080fd5b60006020828403121561321757600080fd5b6110ce8261304a565b6000806040838503121561323357600080fd5b823561323e816130e7565b9150602083013561324e816130e7565b809150509250929050565b6000806000806080858703121561326f57600080fd5b5050823594602084013594506040840135936060013592509050565b6020808252818101527f4f776e61626c653a2063616c6c6572206973206e6f7420746865206f776e6572604082015260600190565b600181811c908216806132d457607f821691505b602082108114156132f557634e487b7160e01b600052602260045260246000fd5b50919050565b634e487b7160e01b600052603260045260246000fd5b634e487b7160e01b600052601160045260246000fd5b60008282101561333957613339613311565b500390565b634e487b7160e01b600052603160045260246000fd5b600060001982141561336857613368613311565b5060010190565b60006020828403121561338157600080fd5b81516110ce816130e7565b60008160001904831182151516156133a6576133a6613311565b500290565b6000826133c857634e487b7160e01b600052601260045260246000fd5b500490565b600082198211156133e0576133e0613311565b500190565b6020808252603d908201527f43616c6c2072656e6f756e63654f776e65727368697020746f207472616e736660408201527f6572206f776e657220746f20746865207a65726f20616464726573732e000000606082015260800190565b600060a082018783526020878185015260a0604085015281875180845260c086019150828901935060005b818110156134925784516001600160a01b03168352938301939183019160010161346d565b50506001600160a01b03969096166060850152505050608001529392505050565b600060ff821660ff84168160ff04811182151516156134d4576134d4613311565b02939250505056fea26469706673582212204578de81e853aee393c5935de43594eeba32da26ea3ec86be9a89dbf3afa69f164736f6c63430008090033",
			"opcodes": "PUSH1 0x0 PUSH1 0x4 SSTORE PUSH5 0xE8D4A51000 PUSH1 0xB SSTORE PUSH1 0xC0 PUSH1 0x40 MSTORE PUSH1 0x9 PUSH1 0x80 DUP2 SWAP1 MSTORE PUSH9 0x4B6974747920496E75 PUSH1 0xB8 SHL PUSH1 0xA0 SWAP1 DUP2 MSTORE PUSH3 0x3A SWAP2 PUSH1 0xC SWAP2 SWAP1 PUSH3 0x849 JUMP JUMPDEST POP PUSH1 0x40 DUP1 MLOAD DUP1 DUP3 ADD SWAP1 SWAP2 MSTORE PUSH1 0x5 DUP1 DUP3 MSTORE PUSH5 0x6B69747479 PUSH1 0xD8 SHL PUSH1 0x20 SWAP1 SWAP3 ADD SWAP2 DUP3 MSTORE PUSH3 0x69 SWAP2 PUSH1 0xD SWAP2 PUSH3 0x849 JUMP JUMPDEST POP PUSH1 0x64 PUSH1 0xE SSTORE PUSH2 0x3E8 PUSH1 0xF SSTORE PUSH2 0x384 PUSH1 0x10 SSTORE PUSH2 0x5DC PUSH1 0x11 SSTORE PUSH2 0x2710 PUSH1 0x12 SSTORE PUSH1 0x13 DUP1 SLOAD PUSH1 0xFF NOT AND PUSH1 0x9 SWAP1 DUP2 OR SWAP1 SWAP2 SSTORE PUSH1 0x14 DUP2 SWAP1 SSTORE PUSH3 0xA9 SWAP1 PUSH1 0xA PUSH3 0xA04 JUMP JUMPDEST PUSH1 0xB SLOAD PUSH3 0xB8 SWAP2 SWAP1 PUSH3 0xA19 JUMP JUMPDEST PUSH1 0x15 DUP2 SWAP1 SSTORE PUSH3 0xCB SWAP1 PUSH1 0x0 NOT PUSH3 0xA51 JUMP JUMPDEST PUSH3 0xD9 SWAP1 PUSH1 0x0 NOT PUSH3 0xA68 JUMP JUMPDEST PUSH1 0x16 SSTORE PUSH1 0x1A DUP1 SLOAD PUSH1 0x1 PUSH1 0x1 PUSH1 0xA0 SHL SUB NOT SWAP1 DUP2 AND PUSH20 0x7A250D5630B4CF539739DF2C5DACB4C659F2488D OR SWAP1 SWAP2 SSTORE PUSH1 0x1B DUP1 SLOAD DUP3 AND PUSH2 0xDEAD OR SWAP1 SSTORE PUSH1 0x1C DUP1 SLOAD SWAP1 SWAP2 AND SWAP1 SSTORE PUSH1 0x1D DUP1 SLOAD PUSH1 0x1 PUSH2 0xFF01 PUSH1 0xA0 SHL SUB NOT AND PUSH20 0x7A771747F94AA0A19840FA8985BE809DF0FD0D2 OR SWAP1 SSTORE PUSH1 0x2 PUSH1 0x1E DUP2 SWAP1 SSTORE PUSH1 0x64 PUSH1 0x1F DUP2 SWAP1 SSTORE PUSH1 0x15 SLOAD SWAP1 SWAP2 PUSH3 0x15F SWAP2 PUSH3 0xA19 JUMP JUMPDEST PUSH3 0x16B SWAP2 SWAP1 PUSH3 0xA82 JUMP JUMPDEST PUSH1 0x20 SSTORE PUSH1 0x20 SLOAD PUSH1 0x21 SSTORE PUSH1 0x1F SLOAD PUSH1 0x1E SLOAD PUSH1 0xB SLOAD PUSH3 0x189 SWAP2 SWAP1 PUSH3 0xA19 JUMP JUMPDEST PUSH3 0x195 SWAP2 SWAP1 PUSH3 0xA82 JUMP JUMPDEST PUSH1 0x22 SSTORE PUSH1 0x2 PUSH1 0x23 SSTORE PUSH1 0x64 PUSH1 0x24 SSTORE PUSH1 0x24 SLOAD PUSH1 0x23 SLOAD PUSH1 0x15 SLOAD PUSH3 0x1B7 SWAP2 SWAP1 PUSH3 0xA19 JUMP JUMPDEST PUSH3 0x1C3 SWAP2 SWAP1 PUSH3 0xA82 JUMP JUMPDEST PUSH1 0x25 SSTORE PUSH1 0x25 SLOAD PUSH1 0x26 SSTORE PUSH1 0x24 SLOAD PUSH1 0x23 SLOAD PUSH1 0xB SLOAD PUSH3 0x1E1 SWAP2 SWAP1 PUSH3 0xA19 JUMP JUMPDEST PUSH3 0x1ED SWAP2 SWAP1 PUSH3 0xA82 JUMP JUMPDEST PUSH1 0x27 SSTORE PUSH2 0x2710 PUSH1 0x15 SLOAD PUSH1 0x5 PUSH3 0x204 SWAP2 SWAP1 PUSH3 0xA19 JUMP JUMPDEST PUSH3 0x210 SWAP2 SWAP1 PUSH3 0xA82 JUMP JUMPDEST PUSH1 0x28 SSTORE PUSH2 0x3E8 PUSH1 0x15 SLOAD PUSH1 0x5 PUSH3 0x227 SWAP2 SWAP1 PUSH3 0xA19 JUMP JUMPDEST PUSH3 0x233 SWAP2 SWAP1 PUSH3 0xA82 JUMP JUMPDEST PUSH1 0x29 SSTORE PUSH1 0x2A DUP1 SLOAD PUSH3 0xFFFFFF NOT AND PUSH2 0x100 OR SWAP1 SSTORE PUSH1 0x0 PUSH1 0x2B DUP2 SWAP1 SSTORE PUSH1 0x2C DUP2 SWAP1 SSTORE PUSH1 0x2D DUP2 SWAP1 SSTORE PUSH1 0x2E DUP2 SWAP1 SSTORE PUSH1 0x2F DUP2 SWAP1 SSTORE PUSH1 0x30 DUP2 SWAP1 SSTORE PUSH1 0x31 DUP1 SLOAD PUSH1 0xFF NOT SWAP1 DUP2 AND PUSH1 0x1 SWAP1 DUP2 OR SWAP1 SWAP3 SSTORE PUSH1 0x33 DUP1 SLOAD SWAP1 SWAP2 AND SWAP1 SSTORE PUSH1 0x16 SLOAD SWAP2 PUSH3 0x28D CALLER SWAP1 JUMP JUMPDEST PUSH1 0x1 PUSH1 0x1 PUSH1 0xA0 SHL SUB SWAP1 DUP2 AND DUP3 MSTORE PUSH1 0x20 DUP1 DUP4 ADD SWAP4 SWAP1 SWAP4 MSTORE PUSH1 0x40 SWAP2 DUP3 ADD PUSH1 0x0 SWAP1 DUP2 KECCAK256 SWAP5 SWAP1 SWAP5 SSTORE DUP4 SLOAD PUSH1 0x1 PUSH1 0x1 PUSH1 0xA0 SHL SUB NOT AND CALLER SWAP1 DUP2 OR DUP6 SSTORE DUP1 DUP6 MSTORE PUSH1 0x6 DUP5 MSTORE DUP3 DUP6 KECCAK256 DUP1 SLOAD PUSH1 0xFF NOT SWAP1 DUP2 AND PUSH1 0x1 SWAP1 DUP2 OR SWAP1 SWAP3 SSTORE ADDRESS DUP8 MSTORE DUP5 DUP8 KECCAK256 DUP1 SLOAD DUP3 AND DUP4 OR SWAP1 SSTORE DUP7 SLOAD SWAP1 SWAP4 AND DUP7 MSTORE PUSH1 0xA SWAP1 SWAP5 MSTORE SWAP2 SWAP1 SWAP4 KECCAK256 DUP1 SLOAD SWAP1 SWAP4 AND SWAP1 SWAP2 OR SWAP1 SWAP2 SSTORE PUSH3 0x320 SWAP1 PUSH1 0x1A SLOAD PUSH1 0x1 PUSH1 0x1 PUSH1 0xA0 SHL SUB AND PUSH1 0x0 NOT PUSH3 0x71D JUMP JUMPDEST PUSH1 0x1A SLOAD PUSH3 0x33C SWAP1 ADDRESS SWAP1 PUSH1 0x1 PUSH1 0x1 PUSH1 0xA0 SHL SUB AND PUSH1 0x0 NOT PUSH3 0x71D JUMP JUMPDEST PUSH1 0x9 PUSH1 0x20 MSTORE PUSH32 0xABD024C87472D03E1CA5FCC0D7644F059CBA6F785352B4AE73120A73ADD458B9 DUP1 SLOAD PUSH1 0x1 PUSH1 0xFF NOT SWAP2 DUP3 AND DUP2 OR SWAP1 SWAP3 SSTORE PUSH32 0x3869FBE785900B2463DB420270D36CEE96EED8446F3F10C59D2B745FB651F529 DUP1 SLOAD DUP3 AND DUP4 OR SWAP1 SSTORE PUSH32 0x9137809BC8F5B41432DA4915B9FE8AB7EE8EA8184CA853792C584C626B4D17EF DUP1 SLOAD DUP3 AND DUP4 OR SWAP1 SSTORE PUSH32 0x9400BF10736CEF1F95E9A478EDC25CC53733EB45CCD97ADE9E9B7DDCF78FE1E2 DUP1 SLOAD DUP3 AND DUP4 OR SWAP1 SSTORE PUSH32 0x6601DC0BE0A75AB4E07C82120BAD404AE9074F8DB11CCDBDBE12CADF268FFB7C DUP1 SLOAD DUP3 AND DUP4 OR SWAP1 SSTORE PUSH32 0x395F73AFF6550C9CB54C9619C18E9B8E5E8796E8F966F18324836C7EA74228B3 DUP1 SLOAD DUP3 AND DUP4 OR SWAP1 SSTORE PUSH32 0x830034D17A3AEB66FD7660AB84BF55C8011F552ED98F1F0EF9EA8E4F9363E9E4 DUP1 SLOAD DUP3 AND DUP4 OR SWAP1 SSTORE PUSH32 0x25DB9A961F0BBF43A493DDA5A5A2C0261448340F42D8923096693A22F432129B DUP1 SLOAD DUP3 AND DUP4 OR SWAP1 SSTORE PUSH32 0x1CC420DF84CD10C91185C321EB3C36B67C7DA3EEB8FD2C9D4D00ADD336C650BB DUP1 SLOAD DUP3 AND DUP4 OR SWAP1 SSTORE PUSH32 0xA9EBEB2F80255E363368A6671C0D2F85D6DECE68310503EDCDCC52A422C8F2FA DUP1 SLOAD DUP3 AND DUP4 OR SWAP1 SSTORE PUSH32 0x16CDAAF50E0E0F84EF935A038E56AB239B1CF2ED74F029EE782C31467F0A1634 DUP1 SLOAD DUP3 AND DUP4 OR SWAP1 SSTORE PUSH32 0xED3EE17708767DAD4FC989C3348857CA09E4378BE9DD02267F4AF5650349A0A0 DUP1 SLOAD DUP3 AND DUP4 OR SWAP1 SSTORE PUSH32 0x582B2E49EDB2A2376E974DF05B635A3A84DA68A31E95DB928B7C07A2C5B903A4 DUP1 SLOAD DUP3 AND DUP4 OR SWAP1 SSTORE PUSH32 0x71A44A1AD181CDA08C9003B7F4690DE015DC91B7C41C3774367383D4C442C90C DUP1 SLOAD DUP3 AND DUP4 OR SWAP1 SSTORE PUSH32 0x7FF672B1A4014C38A8E056092E0CF5D9146DE87C38A87D16DB72274A1E2568FD DUP1 SLOAD DUP3 AND DUP4 OR SWAP1 SSTORE PUSH32 0x13D3DDAA9098DB39DFF53F308936B5B00A50F1A5CD54B59A2BDDD63F41AE507E DUP1 SLOAD DUP3 AND DUP4 OR SWAP1 SSTORE PUSH32 0x59021F466DEACB9F9BEBA0653FA0295E54983870E1A46ADD3C84178897BFFE35 DUP1 SLOAD DUP3 AND DUP4 OR SWAP1 SSTORE PUSH32 0x499E1B0151746D1F570179192791396F59FF8AE40D04925E98721067F414528A DUP1 SLOAD DUP3 AND DUP4 OR SWAP1 SSTORE PUSH32 0xA45C839CF8FC4D53C260B6298450791380D0C10C3BEB193893EF0965FBA577C6 DUP1 SLOAD DUP3 AND DUP4 OR SWAP1 SSTORE PUSH32 0xCDBCB6BED90910CA0EB0722A44DF634BB2697E31063133E2B0C061AFCB0E4886 DUP1 SLOAD DUP3 AND DUP4 OR SWAP1 SSTORE PUSH20 0x725AD056625326B490B128E02759007BA5E4EBF1 PUSH1 0x0 MSTORE PUSH32 0xA8093E7E584B1428CA4DB9E02E738BF6E0C17F0E8D95AB3B4DB2A3EBD04A5A55 DUP1 SLOAD SWAP1 SWAP2 AND SWAP1 SWAP2 OR SWAP1 SSTORE PUSH3 0x6C7 CALLER SWAP1 JUMP JUMPDEST PUSH1 0x1 PUSH1 0x1 PUSH1 0xA0 SHL SUB AND PUSH1 0x0 PUSH1 0x1 PUSH1 0x1 PUSH1 0xA0 SHL SUB AND PUSH32 0xDDF252AD1BE2C89B69C2B068FC378DAA952BA7F163C4A11628F55A4DF523B3EF PUSH1 0x15 SLOAD PUSH1 0x40 MLOAD PUSH3 0x70F SWAP2 DUP2 MSTORE PUSH1 0x20 ADD SWAP1 JUMP JUMPDEST PUSH1 0x40 MLOAD DUP1 SWAP2 SUB SWAP1 LOG3 PUSH3 0xAD6 JUMP JUMPDEST PUSH1 0x1 PUSH1 0x1 PUSH1 0xA0 SHL SUB DUP4 AND PUSH3 0x785 JUMPI PUSH1 0x40 MLOAD PUSH3 0x461BCD PUSH1 0xE5 SHL DUP2 MSTORE PUSH1 0x20 PUSH1 0x4 DUP3 ADD MSTORE PUSH1 0x24 DUP1 DUP3 ADD MSTORE PUSH32 0x45524332303A20617070726F76652066726F6D20746865207A65726F20616464 PUSH1 0x44 DUP3 ADD MSTORE PUSH4 0x72657373 PUSH1 0xE0 SHL PUSH1 0x64 DUP3 ADD MSTORE PUSH1 0x84 ADD JUMPDEST PUSH1 0x40 MLOAD DUP1 SWAP2 SUB SWAP1 REVERT JUMPDEST PUSH1 0x1 PUSH1 0x1 PUSH1 0xA0 SHL SUB DUP3 AND PUSH3 0x7E8 JUMPI PUSH1 0x40 MLOAD PUSH3 0x461BCD PUSH1 0xE5 SHL DUP2 MSTORE PUSH1 0x20 PUSH1 0x4 DUP3 ADD MSTORE PUSH1 0x22 PUSH1 0x24 DUP3 ADD MSTORE PUSH32 0x45524332303A20617070726F766520746F20746865207A65726F206164647265 PUSH1 0x44 DUP3 ADD MSTORE PUSH2 0x7373 PUSH1 0xF0 SHL PUSH1 0x64 DUP3 ADD MSTORE PUSH1 0x84 ADD PUSH3 0x77C JUMP JUMPDEST PUSH1 0x1 PUSH1 0x1 PUSH1 0xA0 SHL SUB DUP4 DUP2 AND PUSH1 0x0 DUP2 DUP2 MSTORE PUSH1 0x5 PUSH1 0x20 SWAP1 DUP2 MSTORE PUSH1 0x40 DUP1 DUP4 KECCAK256 SWAP5 DUP8 AND DUP1 DUP5 MSTORE SWAP5 DUP3 MSTORE SWAP2 DUP3 SWAP1 KECCAK256 DUP6 SWAP1 SSTORE SWAP1 MLOAD DUP5 DUP2 MSTORE PUSH32 0x8C5BE1E5EBEC7D5BD14F71427D1E84F3DD0314C0F7B2291E5B200AC8C7C3B925 SWAP2 ADD PUSH1 0x40 MLOAD DUP1 SWAP2 SUB SWAP1 LOG3 POP POP POP JUMP JUMPDEST DUP3 DUP1 SLOAD PUSH3 0x857 SWAP1 PUSH3 0xA99 JUMP JUMPDEST SWAP1 PUSH1 0x0 MSTORE PUSH1 0x20 PUSH1 0x0 KECCAK256 SWAP1 PUSH1 0x1F ADD PUSH1 0x20 SWAP1 DIV DUP2 ADD SWAP3 DUP3 PUSH3 0x87B JUMPI PUSH1 0x0 DUP6 SSTORE PUSH3 0x8C6 JUMP JUMPDEST DUP3 PUSH1 0x1F LT PUSH3 0x896 JUMPI DUP1 MLOAD PUSH1 0xFF NOT AND DUP4 DUP1 ADD OR DUP6 SSTORE PUSH3 0x8C6 JUMP JUMPDEST DUP3 DUP1 ADD PUSH1 0x1 ADD DUP6 SSTORE DUP3 ISZERO PUSH3 0x8C6 JUMPI SWAP2 DUP3 ADD JUMPDEST DUP3 DUP2 GT ISZERO PUSH3 0x8C6 JUMPI DUP3 MLOAD DUP3 SSTORE SWAP2 PUSH1 0x20 ADD SWAP2 SWAP1 PUSH1 0x1 ADD SWAP1 PUSH3 0x8A9 JUMP JUMPDEST POP PUSH3 0x8D4 SWAP3 SWAP2 POP PUSH3 0x8D8 JUMP JUMPDEST POP SWAP1 JUMP JUMPDEST JUMPDEST DUP1 DUP3 GT ISZERO PUSH3 0x8D4 JUMPI PUSH1 0x0 DUP2 SSTORE PUSH1 0x1 ADD PUSH3 0x8D9 JUMP JUMPDEST PUSH4 0x4E487B71 PUSH1 0xE0 SHL PUSH1 0x0 MSTORE PUSH1 0x11 PUSH1 0x4 MSTORE PUSH1 0x24 PUSH1 0x0 REVERT JUMPDEST PUSH1 0x1 DUP2 DUP2 JUMPDEST DUP1 DUP6 GT ISZERO PUSH3 0x946 JUMPI DUP2 PUSH1 0x0 NOT DIV DUP3 GT ISZERO PUSH3 0x92A JUMPI PUSH3 0x92A PUSH3 0x8EF JUMP JUMPDEST DUP1 DUP6 AND ISZERO PUSH3 0x938 JUMPI SWAP2 DUP2 MUL SWAP2 JUMPDEST SWAP4 DUP5 SHR SWAP4 SWAP1 DUP1 MUL SWAP1 PUSH3 0x90A JUMP JUMPDEST POP SWAP3 POP SWAP3 SWAP1 POP JUMP JUMPDEST PUSH1 0x0 DUP3 PUSH3 0x95F JUMPI POP PUSH1 0x1 PUSH3 0x9FE JUMP JUMPDEST DUP2 PUSH3 0x96E JUMPI POP PUSH1 0x0 PUSH3 0x9FE JUMP JUMPDEST DUP2 PUSH1 0x1 DUP2 EQ PUSH3 0x987 JUMPI PUSH1 0x2 DUP2 EQ PUSH3 0x992 JUMPI PUSH3 0x9B2 JUMP JUMPDEST PUSH1 0x1 SWAP2 POP POP PUSH3 0x9FE JUMP JUMPDEST PUSH1 0xFF DUP5 GT ISZERO PUSH3 0x9A6 JUMPI PUSH3 0x9A6 PUSH3 0x8EF JUMP JUMPDEST POP POP PUSH1 0x1 DUP3 SHL PUSH3 0x9FE JUMP JUMPDEST POP PUSH1 0x20 DUP4 LT PUSH2 0x133 DUP4 LT AND PUSH1 0x4E DUP5 LT PUSH1 0xB DUP5 LT AND OR ISZERO PUSH3 0x9D7 JUMPI POP DUP2 DUP2 EXP PUSH3 0x9FE JUMP JUMPDEST PUSH3 0x9E3 DUP4 DUP4 PUSH3 0x905 JUMP JUMPDEST DUP1 PUSH1 0x0 NOT DIV DUP3 GT ISZERO PUSH3 0x9FA JUMPI PUSH3 0x9FA PUSH3 0x8EF JUMP JUMPDEST MUL SWAP1 POP JUMPDEST SWAP3 SWAP2 POP POP JUMP JUMPDEST PUSH1 0x0 PUSH3 0xA12 DUP4 DUP4 PUSH3 0x94E JUMP JUMPDEST SWAP4 SWAP3 POP POP POP JUMP JUMPDEST PUSH1 0x0 DUP2 PUSH1 0x0 NOT DIV DUP4 GT DUP3 ISZERO ISZERO AND ISZERO PUSH3 0xA36 JUMPI PUSH3 0xA36 PUSH3 0x8EF JUMP JUMPDEST POP MUL SWAP1 JUMP JUMPDEST PUSH4 0x4E487B71 PUSH1 0xE0 SHL PUSH1 0x0 MSTORE PUSH1 0x12 PUSH1 0x4 MSTORE PUSH1 0x24 PUSH1 0x0 REVERT JUMPDEST PUSH1 0x0 DUP3 PUSH3 0xA63 JUMPI PUSH3 0xA63 PUSH3 0xA3B JUMP JUMPDEST POP MOD SWAP1 JUMP JUMPDEST PUSH1 0x0 DUP3 DUP3 LT ISZERO PUSH3 0xA7D JUMPI PUSH3 0xA7D PUSH3 0x8EF JUMP JUMPDEST POP SUB SWAP1 JUMP JUMPDEST PUSH1 0x0 DUP3 PUSH3 0xA94 JUMPI PUSH3 0xA94 PUSH3 0xA3B JUMP JUMPDEST POP DIV SWAP1 JUMP JUMPDEST PUSH1 0x1 DUP2 DUP2 SHR SWAP1 DUP3 AND DUP1 PUSH3 0xAAE JUMPI PUSH1 0x7F DUP3 AND SWAP2 POP JUMPDEST PUSH1 0x20 DUP3 LT DUP2 EQ ISZERO PUSH3 0xAD0 JUMPI PUSH4 0x4E487B71 PUSH1 0xE0 SHL PUSH1 0x0 MSTORE PUSH1 0x22 PUSH1 0x4 MSTORE PUSH1 0x24 PUSH1 0x0 REVERT JUMPDEST POP SWAP2 SWAP1 POP JUMP JUMPDEST PUSH2 0x3512 DUP1 PUSH3 0xAE6 PUSH1 0x0 CODECOPY PUSH1 0x0 RETURN INVALID PUSH1 0x80 PUSH1 0x40 MSTORE PUSH1 0x4 CALLDATASIZE LT PUSH2 0x297 JUMPI PUSH1 0x0 CALLDATALOAD PUSH1 0xE0 SHR DUP1 PUSH4 0x50A8E016 GT PUSH2 0x15A JUMPI DUP1 PUSH4 0x8A8C523C GT PUSH2 0xC1 JUMPI DUP1 PUSH4 0xC647B20E GT PUSH2 0x7A JUMPI DUP1 PUSH4 0xC647B20E EQ PUSH2 0x7EA JUMPI DUP1 PUSH4 0xDD62ED3E EQ PUSH2 0x80A JUMPI DUP1 PUSH4 0xE79D4160 EQ PUSH2 0x850 JUMPI DUP1 PUSH4 0xEAFB5A3C EQ PUSH2 0x866 JUMPI DUP1 PUSH4 0xF6540EC7 EQ PUSH2 0x886 JUMPI DUP1 PUSH4 0xFB78680D EQ PUSH2 0x89C JUMPI PUSH1 0x0 DUP1 REVERT JUMPDEST DUP1 PUSH4 0x8A8C523C EQ PUSH2 0x760 JUMPI DUP1 PUSH4 0x8DA5CB5B EQ PUSH2 0x742 JUMPI DUP1 PUSH4 0x95D89B41 EQ PUSH2 0x775 JUMPI DUP1 PUSH4 0xA457C2D7 EQ PUSH2 0x78A JUMPI DUP1 PUSH4 0xA9059CBB EQ PUSH2 0x7AA JUMPI DUP1 PUSH4 0xC49B9A80 EQ PUSH2 0x7CA JUMPI PUSH1 0x0 DUP1 REVERT JUMPDEST DUP1 PUSH4 0x6612E66F GT PUSH2 0x113 JUMPI DUP1 PUSH4 0x6612E66F EQ PUSH2 0x694 JUMPI DUP1 PUSH4 0x70A08231 EQ PUSH2 0x6B4 JUMPI DUP1 PUSH4 0x715018A6 EQ PUSH2 0x6D4 JUMPI DUP1 PUSH4 0x80C581D1 EQ PUSH2 0x6E9 JUMPI DUP1 PUSH4 0x88F82020 EQ PUSH2 0x709 JUMPI DUP1 PUSH4 0x893D20E8 EQ PUSH2 0x742 JUMPI PUSH1 0x0 DUP1 REVERT JUMPDEST DUP1 PUSH4 0x50A8E016 EQ PUSH2 0x5C5 JUMPI DUP1 PUSH4 0x5342ACB4 EQ PUSH2 0x5E5 JUMPI DUP1 PUSH4 0x571AC8B0 EQ PUSH2 0x61E JUMPI DUP1 PUSH4 0x58FA63CA EQ PUSH2 0x63E JUMPI DUP1 PUSH4 0x5D098B38 EQ PUSH2 0x65E JUMPI DUP1 PUSH4 0x64038409 EQ PUSH2 0x67E JUMPI PUSH1 0x0 DUP1 REVERT JUMPDEST DUP1 PUSH4 0x23B872DD GT PUSH2 0x1FE JUMPI DUP1 PUSH4 0x39509351 GT PUSH2 0x1B7 JUMPI DUP1 PUSH4 0x39509351 EQ PUSH2 0x504 JUMPI DUP1 PUSH4 0x3F3CF56C EQ PUSH2 0x524 JUMPI DUP1 PUSH4 0x4129ECEE EQ PUSH2 0x544 JUMPI DUP1 PUSH4 0x452ED4F1 EQ PUSH2 0x564 JUMPI DUP1 PUSH4 0x4A74BB02 EQ PUSH2 0x584 JUMPI DUP1 PUSH4 0x4FB2E45D EQ PUSH2 0x5A5 JUMPI PUSH1 0x0 DUP1 REVERT JUMPDEST DUP1 PUSH4 0x23B872DD EQ PUSH2 0x442 JUMPI DUP1 PUSH4 0x26003957 EQ PUSH2 0x462 JUMPI DUP1 PUSH4 0x2D838119 EQ PUSH2 0x482 JUMPI DUP1 PUSH4 0x313CE567 EQ PUSH2 0x4A2 JUMPI DUP1 PUSH4 0x33251A0B EQ PUSH2 0x4C4 JUMPI DUP1 PUSH4 0x3865CF3F EQ PUSH2 0x4E4 JUMPI PUSH1 0x0 DUP1 REVERT JUMPDEST DUP1 PUSH4 0x13114A9D GT PUSH2 0x250 JUMPI DUP1 PUSH4 0x13114A9D EQ PUSH2 0x3AD JUMPI DUP1 PUSH4 0x13E46192 EQ PUSH2 0x3CC JUMPI DUP1 PUSH4 0x1459EB36 EQ PUSH2 0x3EC JUMPI DUP1 PUSH4 0x15639C1B EQ PUSH2 0x401 JUMPI DUP1 PUSH4 0x18160DDD EQ PUSH2 0x417 JUMPI DUP1 PUSH4 0x22976E0D EQ PUSH2 0x42C JUMPI PUSH1 0x0 DUP1 REVERT JUMPDEST DUP1 PUSH4 0x3FD2A45 EQ PUSH2 0x2A3 JUMPI DUP1 PUSH4 0x44DF726 EQ PUSH2 0x2E0 JUMPI DUP1 PUSH4 0x6FDDE03 EQ PUSH2 0x302 JUMPI DUP1 PUSH4 0x758D924 EQ PUSH2 0x324 JUMPI DUP1 PUSH4 0x95EA7B3 EQ PUSH2 0x344 JUMPI DUP1 PUSH4 0xF3A325F EQ PUSH2 0x374 JUMPI PUSH1 0x0 DUP1 REVERT JUMPDEST CALLDATASIZE PUSH2 0x29E JUMPI STOP JUMPDEST PUSH1 0x0 DUP1 REVERT JUMPDEST CALLVALUE DUP1 ISZERO PUSH2 0x2AF JUMPI PUSH1 0x0 DUP1 REVERT JUMPDEST POP PUSH1 0x1B SLOAD PUSH2 0x2C3 SWAP1 PUSH1 0x1 PUSH1 0x1 PUSH1 0xA0 SHL SUB AND DUP2 JUMP JUMPDEST PUSH1 0x40 MLOAD PUSH1 0x1 PUSH1 0x1 PUSH1 0xA0 SHL SUB SWAP1 SWAP2 AND DUP2 MSTORE PUSH1 0x20 ADD JUMPDEST PUSH1 0x40 MLOAD DUP1 SWAP2 SUB SWAP1 RETURN JUMPDEST CALLVALUE DUP1 ISZERO PUSH2 0x2EC JUMPI PUSH1 0x0 DUP1 REVERT JUMPDEST POP PUSH2 0x300 PUSH2 0x2FB CALLDATASIZE PUSH1 0x4 PUSH2 0x305F JUMP JUMPDEST PUSH2 0x8BC JUMP JUMPDEST STOP JUMPDEST CALLVALUE DUP1 ISZERO PUSH2 0x30E JUMPI PUSH1 0x0 DUP1 REVERT JUMPDEST POP PUSH2 0x317 PUSH2 0x91C JUMP JUMPDEST PUSH1 0x40 MLOAD PUSH2 0x2D7 SWAP2 SWAP1 PUSH2 0x3092 JUMP JUMPDEST CALLVALUE DUP1 ISZERO PUSH2 0x330 JUMPI PUSH1 0x0 DUP1 REVERT JUMPDEST POP PUSH1 0x18 SLOAD PUSH2 0x2C3 SWAP1 PUSH1 0x1 PUSH1 0x1 PUSH1 0xA0 SHL SUB AND DUP2 JUMP JUMPDEST CALLVALUE DUP1 ISZERO PUSH2 0x350 JUMPI PUSH1 0x0 DUP1 REVERT JUMPDEST POP PUSH2 0x364 PUSH2 0x35F CALLDATASIZE PUSH1 0x4 PUSH2 0x30FF JUMP JUMPDEST PUSH2 0x9AE JUMP JUMPDEST PUSH1 0x40 MLOAD SWAP1 ISZERO ISZERO DUP2 MSTORE PUSH1 0x20 ADD PUSH2 0x2D7 JUMP JUMPDEST CALLVALUE DUP1 ISZERO PUSH2 0x380 JUMPI PUSH1 0x0 DUP1 REVERT JUMPDEST POP PUSH2 0x364 PUSH2 0x38F CALLDATASIZE PUSH1 0x4 PUSH2 0x312B JUMP JUMPDEST PUSH1 0x1 PUSH1 0x1 PUSH1 0xA0 SHL SUB AND PUSH1 0x0 SWAP1 DUP2 MSTORE PUSH1 0x9 PUSH1 0x20 MSTORE PUSH1 0x40 SWAP1 KECCAK256 SLOAD PUSH1 0xFF AND SWAP1 JUMP JUMPDEST CALLVALUE DUP1 ISZERO PUSH2 0x3B9 JUMPI PUSH1 0x0 DUP1 REVERT JUMPDEST POP PUSH1 0x17 SLOAD JUMPDEST PUSH1 0x40 MLOAD SWAP1 DUP2 MSTORE PUSH1 0x20 ADD PUSH2 0x2D7 JUMP JUMPDEST CALLVALUE DUP1 ISZERO PUSH2 0x3D8 JUMPI PUSH1 0x0 DUP1 REVERT JUMPDEST POP PUSH2 0x300 PUSH2 0x3E7 CALLDATASIZE PUSH1 0x4 PUSH2 0x3148 JUMP JUMPDEST PUSH2 0x9C4 JUMP JUMPDEST CALLVALUE DUP1 ISZERO PUSH2 0x3F8 JUMPI PUSH1 0x0 DUP1 REVERT JUMPDEST POP PUSH2 0x300 PUSH2 0xCB8 JUMP JUMPDEST CALLVALUE DUP1 ISZERO PUSH2 0x40D JUMPI PUSH1 0x0 DUP1 REVERT JUMPDEST POP PUSH2 0x3BE PUSH1 0xE SLOAD DUP2 JUMP JUMPDEST CALLVALUE DUP1 ISZERO PUSH2 0x423 JUMPI PUSH1 0x0 DUP1 REVERT JUMPDEST POP PUSH1 0x15 SLOAD PUSH2 0x3BE JUMP JUMPDEST CALLVALUE DUP1 ISZERO PUSH2 0x438 JUMPI PUSH1 0x0 DUP1 REVERT JUMPDEST POP PUSH2 0x3BE PUSH1 0xF SLOAD DUP2 JUMP JUMPDEST CALLVALUE DUP1 ISZERO PUSH2 0x44E JUMPI PUSH1 0x0 DUP1 REVERT JUMPDEST POP PUSH2 0x364 PUSH2 0x45D CALLDATASIZE PUSH1 0x4 PUSH2 0x3166 JUMP JUMPDEST PUSH2 0xF16 JUMP JUMPDEST CALLVALUE DUP1 ISZERO PUSH2 0x46E JUMPI PUSH1 0x0 DUP1 REVERT JUMPDEST POP PUSH2 0x300 PUSH2 0x47D CALLDATASIZE PUSH1 0x4 PUSH2 0x31A7 JUMP JUMPDEST PUSH2 0xF69 JUMP JUMPDEST CALLVALUE DUP1 ISZERO PUSH2 0x48E JUMPI PUSH1 0x0 DUP1 REVERT JUMPDEST POP PUSH2 0x3BE PUSH2 0x49D CALLDATASIZE PUSH1 0x4 PUSH2 0x31C9 JUMP JUMPDEST PUSH2 0x1051 JUMP JUMPDEST CALLVALUE DUP1 ISZERO PUSH2 0x4AE JUMPI PUSH1 0x0 DUP1 REVERT JUMPDEST POP PUSH1 0x13 SLOAD PUSH1 0x40 MLOAD PUSH1 0xFF SWAP1 SWAP2 AND DUP2 MSTORE PUSH1 0x20 ADD PUSH2 0x2D7 JUMP JUMPDEST CALLVALUE DUP1 ISZERO PUSH2 0x4D0 JUMPI PUSH1 0x0 DUP1 REVERT JUMPDEST POP PUSH2 0x300 PUSH2 0x4DF CALLDATASIZE PUSH1 0x4 PUSH2 0x312B JUMP JUMPDEST PUSH2 0x10D5 JUMP JUMPDEST CALLVALUE DUP1 ISZERO PUSH2 0x4F0 JUMPI PUSH1 0x0 DUP1 REVERT JUMPDEST POP PUSH2 0x300 PUSH2 0x4FF CALLDATASIZE PUSH1 0x4 PUSH2 0x31A7 JUMP JUMPDEST PUSH2 0x1192 JUMP JUMPDEST CALLVALUE DUP1 ISZERO PUSH2 0x510 JUMPI PUSH1 0x0 DUP1 REVERT JUMPDEST POP PUSH2 0x364 PUSH2 0x51F CALLDATASIZE PUSH1 0x4 PUSH2 0x30FF JUMP JUMPDEST PUSH2 0x120C JUMP JUMPDEST CALLVALUE DUP1 ISZERO PUSH2 0x530 JUMPI PUSH1 0x0 DUP1 REVERT JUMPDEST POP PUSH2 0x300 PUSH2 0x53F CALLDATASIZE PUSH1 0x4 PUSH2 0x31A7 JUMP JUMPDEST PUSH2 0x1243 JUMP JUMPDEST CALLVALUE DUP1 ISZERO PUSH2 0x550 JUMPI PUSH1 0x0 DUP1 REVERT JUMPDEST POP PUSH2 0x300 PUSH2 0x55F CALLDATASIZE PUSH1 0x4 PUSH2 0x31E2 JUMP JUMPDEST PUSH2 0x1336 JUMP JUMPDEST CALLVALUE DUP1 ISZERO PUSH2 0x570 JUMPI PUSH1 0x0 DUP1 REVERT JUMPDEST POP PUSH1 0x19 SLOAD PUSH2 0x2C3 SWAP1 PUSH1 0x1 PUSH1 0x1 PUSH1 0xA0 SHL SUB AND DUP2 JUMP JUMPDEST CALLVALUE DUP1 ISZERO PUSH2 0x590 JUMPI PUSH1 0x0 DUP1 REVERT JUMPDEST POP PUSH1 0x1D SLOAD PUSH2 0x364 SWAP1 PUSH1 0x1 PUSH1 0xA8 SHL SWAP1 DIV PUSH1 0xFF AND DUP2 JUMP JUMPDEST CALLVALUE DUP1 ISZERO PUSH2 0x5B1 JUMPI PUSH1 0x0 DUP1 REVERT JUMPDEST POP PUSH2 0x300 PUSH2 0x5C0 CALLDATASIZE PUSH1 0x4 PUSH2 0x312B JUMP JUMPDEST PUSH2 0x138A JUMP JUMPDEST CALLVALUE DUP1 ISZERO PUSH2 0x5D1 JUMPI PUSH1 0x0 DUP1 REVERT JUMPDEST POP PUSH1 0x2A SLOAD PUSH2 0x364 SWAP1 PUSH3 0x10000 SWAP1 DIV PUSH1 0xFF AND DUP2 JUMP JUMPDEST CALLVALUE DUP1 ISZERO PUSH2 0x5F1 JUMPI PUSH1 0x0 DUP1 REVERT JUMPDEST POP PUSH2 0x364 PUSH2 0x600 CALLDATASIZE PUSH1 0x4 PUSH2 0x312B JUMP JUMPDEST PUSH1 0x1 PUSH1 0x1 PUSH1 0xA0 SHL SUB AND PUSH1 0x0 SWAP1 DUP2 MSTORE PUSH1 0x6 PUSH1 0x20 MSTORE PUSH1 0x40 SWAP1 KECCAK256 SLOAD PUSH1 0xFF AND SWAP1 JUMP JUMPDEST CALLVALUE DUP1 ISZERO PUSH2 0x62A JUMPI PUSH1 0x0 DUP1 REVERT JUMPDEST POP PUSH2 0x364 PUSH2 0x639 CALLDATASIZE PUSH1 0x4 PUSH2 0x312B JUMP JUMPDEST PUSH2 0x152C JUMP JUMPDEST CALLVALUE DUP1 ISZERO PUSH2 0x64A JUMPI PUSH1 0x0 DUP1 REVERT JUMPDEST POP PUSH1 0x1C SLOAD PUSH2 0x2C3 SWAP1 PUSH1 0x1 PUSH1 0x1 PUSH1 0xA0 SHL SUB AND DUP2 JUMP JUMPDEST CALLVALUE DUP1 ISZERO PUSH2 0x66A JUMPI PUSH1 0x0 DUP1 REVERT JUMPDEST POP PUSH2 0x300 PUSH2 0x679 CALLDATASIZE PUSH1 0x4 PUSH2 0x312B JUMP JUMPDEST PUSH2 0x1540 JUMP JUMPDEST CALLVALUE DUP1 ISZERO PUSH2 0x68A JUMPI PUSH1 0x0 DUP1 REVERT JUMPDEST POP PUSH2 0x3BE PUSH1 0x22 SLOAD DUP2 JUMP JUMPDEST CALLVALUE DUP1 ISZERO PUSH2 0x6A0 JUMPI PUSH1 0x0 DUP1 REVERT JUMPDEST POP PUSH2 0x300 PUSH2 0x6AF CALLDATASIZE PUSH1 0x4 PUSH2 0x3148 JUMP JUMPDEST PUSH2 0x15E0 JUMP JUMPDEST CALLVALUE DUP1 ISZERO PUSH2 0x6C0 JUMPI PUSH1 0x0 DUP1 REVERT JUMPDEST POP PUSH2 0x3BE PUSH2 0x6CF CALLDATASIZE PUSH1 0x4 PUSH2 0x312B JUMP JUMPDEST PUSH2 0x1635 JUMP JUMPDEST CALLVALUE DUP1 ISZERO PUSH2 0x6E0 JUMPI PUSH1 0x0 DUP1 REVERT JUMPDEST POP PUSH2 0x300 PUSH2 0x1694 JUMP JUMPDEST CALLVALUE DUP1 ISZERO PUSH2 0x6F5 JUMPI PUSH1 0x0 DUP1 REVERT JUMPDEST POP PUSH2 0x300 PUSH2 0x704 CALLDATASIZE PUSH1 0x4 PUSH2 0x3148 JUMP JUMPDEST PUSH2 0x1713 JUMP JUMPDEST CALLVALUE DUP1 ISZERO PUSH2 0x715 JUMPI PUSH1 0x0 DUP1 REVERT JUMPDEST POP PUSH2 0x364 PUSH2 0x724 CALLDATASIZE PUSH1 0x4 PUSH2 0x312B JUMP JUMPDEST PUSH1 0x1 PUSH1 0x1 PUSH1 0xA0 SHL SUB AND PUSH1 0x0 SWAP1 DUP2 MSTORE PUSH1 0x7 PUSH1 0x20 MSTORE PUSH1 0x40 SWAP1 KECCAK256 SLOAD PUSH1 0xFF AND SWAP1 JUMP JUMPDEST CALLVALUE DUP1 ISZERO PUSH2 0x74E JUMPI PUSH1 0x0 DUP1 REVERT JUMPDEST POP PUSH1 0x0 SLOAD PUSH1 0x1 PUSH1 0x1 PUSH1 0xA0 SHL SUB AND PUSH2 0x2C3 JUMP JUMPDEST CALLVALUE DUP1 ISZERO PUSH2 0x76C JUMPI PUSH1 0x0 DUP1 REVERT JUMPDEST POP PUSH2 0x300 PUSH2 0x17F6 JUMP JUMPDEST CALLVALUE DUP1 ISZERO PUSH2 0x781 JUMPI PUSH1 0x0 DUP1 REVERT JUMPDEST POP PUSH2 0x317 PUSH2 0x1936 JUMP JUMPDEST CALLVALUE DUP1 ISZERO PUSH2 0x796 JUMPI PUSH1 0x0 DUP1 REVERT JUMPDEST POP PUSH2 0x364 PUSH2 0x7A5 CALLDATASIZE PUSH1 0x4 PUSH2 0x30FF JUMP JUMPDEST PUSH2 0x1945 JUMP JUMPDEST CALLVALUE DUP1 ISZERO PUSH2 0x7B6 JUMPI PUSH1 0x0 DUP1 REVERT JUMPDEST POP PUSH2 0x364 PUSH2 0x7C5 CALLDATASIZE PUSH1 0x4 PUSH2 0x30FF JUMP JUMPDEST PUSH2 0x197C JUMP JUMPDEST CALLVALUE DUP1 ISZERO PUSH2 0x7D6 JUMPI PUSH1 0x0 DUP1 REVERT JUMPDEST POP PUSH2 0x300 PUSH2 0x7E5 CALLDATASIZE PUSH1 0x4 PUSH2 0x3205 JUMP JUMPDEST PUSH2 0x1989 JUMP JUMPDEST CALLVALUE DUP1 ISZERO PUSH2 0x7F6 JUMPI PUSH1 0x0 DUP1 REVERT JUMPDEST POP PUSH2 0x300 PUSH2 0x805 CALLDATASIZE PUSH1 0x4 PUSH2 0x31A7 JUMP JUMPDEST PUSH2 0x1A0B JUMP JUMPDEST CALLVALUE DUP1 ISZERO PUSH2 0x816 JUMPI PUSH1 0x0 DUP1 REVERT JUMPDEST POP PUSH2 0x3BE PUSH2 0x825 CALLDATASIZE PUSH1 0x4 PUSH2 0x3220 JUMP JUMPDEST PUSH1 0x1 PUSH1 0x1 PUSH1 0xA0 SHL SUB SWAP2 DUP3 AND PUSH1 0x0 SWAP1 DUP2 MSTORE PUSH1 0x5 PUSH1 0x20 SWAP1 DUP2 MSTORE PUSH1 0x40 DUP1 DUP4 KECCAK256 SWAP4 SWAP1 SWAP5 AND DUP3 MSTORE SWAP2 SWAP1 SWAP2 MSTORE KECCAK256 SLOAD SWAP1 JUMP JUMPDEST CALLVALUE DUP1 ISZERO PUSH2 0x85C JUMPI PUSH1 0x0 DUP1 REVERT JUMPDEST POP PUSH2 0x3BE PUSH1 0x30 SLOAD DUP2 JUMP JUMPDEST CALLVALUE DUP1 ISZERO PUSH2 0x872 JUMPI PUSH1 0x0 DUP1 REVERT JUMPDEST POP PUSH2 0x300 PUSH2 0x881 CALLDATASIZE PUSH1 0x4 PUSH2 0x312B JUMP JUMPDEST PUSH2 0x1A75 JUMP JUMPDEST CALLVALUE DUP1 ISZERO PUSH2 0x892 JUMPI PUSH1 0x0 DUP1 REVERT JUMPDEST POP PUSH2 0x3BE PUSH1 0x27 SLOAD DUP2 JUMP JUMPDEST CALLVALUE DUP1 ISZERO PUSH2 0x8A8 JUMPI PUSH1 0x0 DUP1 REVERT JUMPDEST POP PUSH2 0x300 PUSH2 0x8B7 CALLDATASIZE PUSH1 0x4 PUSH2 0x3259 JUMP JUMPDEST PUSH2 0x1DFB JUMP JUMPDEST PUSH1 0x0 SLOAD PUSH1 0x1 PUSH1 0x1 PUSH1 0xA0 SHL SUB AND CALLER EQ PUSH2 0x8EF JUMPI PUSH1 0x40 MLOAD PUSH3 0x461BCD PUSH1 0xE5 SHL DUP2 MSTORE PUSH1 0x4 ADD PUSH2 0x8E6 SWAP1 PUSH2 0x328B JUMP JUMPDEST PUSH1 0x40 MLOAD DUP1 SWAP2 SUB SWAP1 REVERT JUMPDEST PUSH1 0x2A DUP1 SLOAD PUSH2 0xFF00 NOT AND PUSH2 0x100 SWAP4 ISZERO ISZERO SWAP4 SWAP1 SWAP4 MUL SWAP3 SWAP1 SWAP3 OR SWAP1 SWAP2 SSTORE PUSH1 0x31 DUP1 SLOAD PUSH1 0xFF NOT AND SWAP2 ISZERO ISZERO SWAP2 SWAP1 SWAP2 OR SWAP1 SSTORE JUMP JUMPDEST PUSH1 0x60 PUSH1 0xC DUP1 SLOAD PUSH2 0x92B SWAP1 PUSH2 0x32C0 JUMP JUMPDEST DUP1 PUSH1 0x1F ADD PUSH1 0x20 DUP1 SWAP2 DIV MUL PUSH1 0x20 ADD PUSH1 0x40 MLOAD SWAP1 DUP2 ADD PUSH1 0x40 MSTORE DUP1 SWAP3 SWAP2 SWAP1 DUP2 DUP2 MSTORE PUSH1 0x20 ADD DUP3 DUP1 SLOAD PUSH2 0x957 SWAP1 PUSH2 0x32C0 JUMP JUMPDEST DUP1 ISZERO PUSH2 0x9A4 JUMPI DUP1 PUSH1 0x1F LT PUSH2 0x979 JUMPI PUSH2 0x100 DUP1 DUP4 SLOAD DIV MUL DUP4 MSTORE SWAP2 PUSH1 0x20 ADD SWAP2 PUSH2 0x9A4 JUMP JUMPDEST DUP3 ADD SWAP2 SWAP1 PUSH1 0x0 MSTORE PUSH1 0x20 PUSH1 0x0 KECCAK256 SWAP1 JUMPDEST DUP2 SLOAD DUP2 MSTORE SWAP1 PUSH1 0x1 ADD SWAP1 PUSH1 0x20 ADD DUP1 DUP4 GT PUSH2 0x987 JUMPI DUP3 SWAP1 SUB PUSH1 0x1F AND DUP3 ADD SWAP2 JUMPDEST POP POP POP POP POP SWAP1 POP SWAP1 JUMP JUMPDEST PUSH1 0x0 PUSH2 0x9BB CALLER DUP5 DUP5 PUSH2 0x1E64 JUMP JUMPDEST POP PUSH1 0x1 SWAP3 SWAP2 POP POP JUMP JUMPDEST PUSH1 0x0 SLOAD PUSH1 0x1 PUSH1 0x1 PUSH1 0xA0 SHL SUB AND CALLER EQ PUSH2 0x9EE JUMPI PUSH1 0x40 MLOAD PUSH3 0x461BCD PUSH1 0xE5 SHL DUP2 MSTORE PUSH1 0x4 ADD PUSH2 0x8E6 SWAP1 PUSH2 0x328B JUMP JUMPDEST PUSH1 0x1 DUP2 ISZERO ISZERO EQ ISZERO PUSH2 0xB23 JUMPI PUSH1 0x1 PUSH1 0x1 PUSH1 0xA0 SHL SUB DUP3 AND PUSH1 0x0 SWAP1 DUP2 MSTORE PUSH1 0x7 PUSH1 0x20 MSTORE PUSH1 0x40 SWAP1 KECCAK256 SLOAD PUSH1 0xFF AND ISZERO PUSH2 0xA62 JUMPI PUSH1 0x40 MLOAD PUSH3 0x461BCD PUSH1 0xE5 SHL DUP2 MSTORE PUSH1 0x20 PUSH1 0x4 DUP3 ADD MSTORE PUSH1 0x1C PUSH1 0x24 DUP3 ADD MSTORE PUSH32 0x4163636F756E7420697320616C7265616479206578636C756465642E00000000 PUSH1 0x44 DUP3 ADD MSTORE PUSH1 0x64 ADD PUSH2 0x8E6 JUMP JUMPDEST PUSH1 0x1 PUSH1 0x1 PUSH1 0xA0 SHL SUB DUP3 AND PUSH1 0x0 SWAP1 DUP2 MSTORE PUSH1 0x1 PUSH1 0x20 MSTORE PUSH1 0x40 SWAP1 KECCAK256 SLOAD ISZERO PUSH2 0xABC JUMPI PUSH1 0x1 PUSH1 0x1 PUSH1 0xA0 SHL SUB DUP3 AND PUSH1 0x0 SWAP1 DUP2 MSTORE PUSH1 0x1 PUSH1 0x20 MSTORE PUSH1 0x40 SWAP1 KECCAK256 SLOAD PUSH2 0xAA2 SWAP1 PUSH2 0x1051 JUMP JUMPDEST PUSH1 0x1 PUSH1 0x1 PUSH1 0xA0 SHL SUB DUP4 AND PUSH1 0x0 SWAP1 DUP2 MSTORE PUSH1 0x2 PUSH1 0x20 MSTORE PUSH1 0x40 SWAP1 KECCAK256 SSTORE JUMPDEST POP PUSH1 0x1 PUSH1 0x1 PUSH1 0xA0 SHL SUB AND PUSH1 0x0 DUP2 DUP2 MSTORE PUSH1 0x7 PUSH1 0x20 MSTORE PUSH1 0x40 DUP2 KECCAK256 DUP1 SLOAD PUSH1 0xFF NOT AND PUSH1 0x1 SWAP1 DUP2 OR SWAP1 SWAP2 SSTORE PUSH1 0x8 DUP1 SLOAD SWAP2 DUP3 ADD DUP2 SSTORE SWAP1 SWAP2 MSTORE PUSH32 0xF3F7A9FE364FAAB93B216DA50A3214154F22A0A2B415B23A84C8169E8B636EE3 ADD DUP1 SLOAD PUSH1 0x1 PUSH1 0x1 PUSH1 0xA0 SHL SUB NOT AND SWAP1 SWAP2 OR SWAP1 SSTORE JUMP JUMPDEST DUP1 PUSH2 0xCB4 JUMPI PUSH1 0x1 PUSH1 0x1 PUSH1 0xA0 SHL SUB DUP3 AND PUSH1 0x0 SWAP1 DUP2 MSTORE PUSH1 0x7 PUSH1 0x20 MSTORE PUSH1 0x40 SWAP1 KECCAK256 SLOAD PUSH1 0xFF AND PUSH2 0xB90 JUMPI PUSH1 0x40 MLOAD PUSH3 0x461BCD PUSH1 0xE5 SHL DUP2 MSTORE PUSH1 0x20 PUSH1 0x4 DUP3 ADD MSTORE PUSH1 0x1C PUSH1 0x24 DUP3 ADD MSTORE PUSH32 0x4163636F756E7420697320616C726561647920696E636C756465642E00000000 PUSH1 0x44 DUP3 ADD MSTORE PUSH1 0x64 ADD PUSH2 0x8E6 JUMP JUMPDEST PUSH1 0x0 JUMPDEST PUSH1 0x8 SLOAD DUP2 LT ISZERO PUSH2 0xCB2 JUMPI DUP3 PUSH1 0x1 PUSH1 0x1 PUSH1 0xA0 SHL SUB AND PUSH1 0x8 DUP3 DUP2 SLOAD DUP2 LT PUSH2 0xBBA JUMPI PUSH2 0xBBA PUSH2 0x32FB JUMP JUMPDEST PUSH1 0x0 SWAP2 DUP3 MSTORE PUSH1 0x20 SWAP1 SWAP2 KECCAK256 ADD SLOAD PUSH1 0x1 PUSH1 0x1 PUSH1 0xA0 SHL SUB AND EQ ISZERO PUSH2 0xCA0 JUMPI PUSH1 0x8 DUP1 SLOAD PUSH2 0xBE5 SWAP1 PUSH1 0x1 SWAP1 PUSH2 0x3327 JUMP JUMPDEST DUP2 SLOAD DUP2 LT PUSH2 0xBF5 JUMPI PUSH2 0xBF5 PUSH2 0x32FB JUMP JUMPDEST PUSH1 0x0 SWAP2 DUP3 MSTORE PUSH1 0x20 SWAP1 SWAP2 KECCAK256 ADD SLOAD PUSH1 0x8 DUP1 SLOAD PUSH1 0x1 PUSH1 0x1 PUSH1 0xA0 SHL SUB SWAP1 SWAP3 AND SWAP2 DUP4 SWAP1 DUP2 LT PUSH2 0xC21 JUMPI PUSH2 0xC21 PUSH2 0x32FB JUMP JUMPDEST PUSH1 0x0 SWAP2 DUP3 MSTORE PUSH1 0x20 DUP1 DUP4 KECCAK256 SWAP2 SWAP1 SWAP2 ADD DUP1 SLOAD PUSH1 0x1 PUSH1 0x1 PUSH1 0xA0 SHL SUB NOT AND PUSH1 0x1 PUSH1 0x1 PUSH1 0xA0 SHL SUB SWAP5 DUP6 AND OR SWAP1 SSTORE SWAP2 DUP6 AND DUP2 MSTORE PUSH1 0x2 DUP3 MSTORE PUSH1 0x40 DUP1 DUP3 KECCAK256 DUP3 SWAP1 SSTORE PUSH1 0x7 SWAP1 SWAP3 MSTORE KECCAK256 DUP1 SLOAD PUSH1 0xFF NOT AND SWAP1 SSTORE PUSH1 0x8 DUP1 SLOAD DUP1 PUSH2 0xC79 JUMPI PUSH2 0xC79 PUSH2 0x333E JUMP JUMPDEST PUSH1 0x0 DUP3 DUP2 MSTORE PUSH1 0x20 SWAP1 KECCAK256 DUP2 ADD PUSH1 0x0 NOT SWAP1 DUP2 ADD DUP1 SLOAD PUSH1 0x1 PUSH1 0x1 PUSH1 0xA0 SHL SUB NOT AND SWAP1 SSTORE ADD SWAP1 SSTORE PUSH2 0xCB2 JUMP JUMPDEST DUP1 PUSH2 0xCAA DUP2 PUSH2 0x3354 JUMP JUMPDEST SWAP2 POP POP PUSH2 0xB93 JUMP JUMPDEST POP JUMPDEST POP POP JUMP JUMPDEST PUSH1 0x0 SLOAD PUSH1 0x1 PUSH1 0x1 PUSH1 0xA0 SHL SUB AND CALLER EQ PUSH2 0xCE2 JUMPI PUSH1 0x40 MLOAD PUSH3 0x461BCD PUSH1 0xE5 SHL DUP2 MSTORE PUSH1 0x4 ADD PUSH2 0x8E6 SWAP1 PUSH2 0x328B JUMP JUMPDEST PUSH1 0x33 SLOAD PUSH1 0xFF AND ISZERO PUSH2 0xD29 JUMPI PUSH1 0x40 MLOAD PUSH3 0x461BCD PUSH1 0xE5 SHL DUP2 MSTORE PUSH1 0x20 PUSH1 0x4 DUP3 ADD MSTORE PUSH1 0x11 PUSH1 0x24 DUP3 ADD MSTORE PUSH17 0x20B63932B0B23C9031B7B6B83632BA3297 PUSH1 0x79 SHL PUSH1 0x44 DUP3 ADD MSTORE PUSH1 0x64 ADD PUSH2 0x8E6 JUMP JUMPDEST PUSH1 0x1A SLOAD PUSH1 0x18 DUP1 SLOAD PUSH1 0x1 PUSH1 0x1 PUSH1 0xA0 SHL SUB NOT AND PUSH1 0x1 PUSH1 0x1 PUSH1 0xA0 SHL SUB SWAP1 SWAP3 AND SWAP2 DUP3 OR SWAP1 SSTORE PUSH1 0x40 DUP1 MLOAD PUSH4 0xC45A0155 PUSH1 0xE0 SHL DUP2 MSTORE SWAP1 MLOAD PUSH4 0xC45A0155 SWAP2 PUSH1 0x4 DUP1 DUP3 ADD SWAP3 PUSH1 0x20 SWAP3 SWAP1 SWAP2 SWAP1 DUP3 SWAP1 SUB ADD DUP2 DUP7 DUP1 EXTCODESIZE ISZERO DUP1 ISZERO PUSH2 0xD80 JUMPI PUSH1 0x0 DUP1 REVERT JUMPDEST POP GAS STATICCALL ISZERO DUP1 ISZERO PUSH2 0xD94 JUMPI RETURNDATASIZE PUSH1 0x0 DUP1 RETURNDATACOPY RETURNDATASIZE PUSH1 0x0 REVERT JUMPDEST POP POP POP POP PUSH1 0x40 MLOAD RETURNDATASIZE PUSH1 0x1F NOT PUSH1 0x1F DUP3 ADD AND DUP3 ADD DUP1 PUSH1 0x40 MSTORE POP DUP2 ADD SWAP1 PUSH2 0xDB8 SWAP2 SWAP1 PUSH2 0x336F JUMP JUMPDEST PUSH1 0x1 PUSH1 0x1 PUSH1 0xA0 SHL SUB AND PUSH4 0xC9C65396 PUSH1 0x18 PUSH1 0x0 SWAP1 SLOAD SWAP1 PUSH2 0x100 EXP SWAP1 DIV PUSH1 0x1 PUSH1 0x1 PUSH1 0xA0 SHL SUB AND PUSH1 0x1 PUSH1 0x1 PUSH1 0xA0 SHL SUB AND PUSH4 0xAD5C4648 PUSH1 0x40 MLOAD DUP2 PUSH4 0xFFFFFFFF AND PUSH1 0xE0 SHL DUP2 MSTORE PUSH1 0x4 ADD PUSH1 0x20 PUSH1 0x40 MLOAD DUP1 DUP4 SUB DUP2 DUP7 DUP1 EXTCODESIZE ISZERO DUP1 ISZERO PUSH2 0xE14 JUMPI PUSH1 0x0 DUP1 REVERT JUMPDEST POP GAS STATICCALL ISZERO DUP1 ISZERO PUSH2 0xE28 JUMPI RETURNDATASIZE PUSH1 0x0 DUP1 RETURNDATACOPY RETURNDATASIZE PUSH1 0x0 REVERT JUMPDEST POP POP POP POP PUSH1 0x40 MLOAD RETURNDATASIZE PUSH1 0x1F NOT PUSH1 0x1F DUP3 ADD AND DUP3 ADD DUP1 PUSH1 0x40 MSTORE POP DUP2 ADD SWAP1 PUSH2 0xE4C SWAP2 SWAP1 PUSH2 0x336F JUMP JUMPDEST PUSH1 0x40 MLOAD PUSH1 0x1 PUSH1 0x1 PUSH1 0xE0 SHL SUB NOT PUSH1 0xE0 DUP5 SWAP1 SHL AND DUP2 MSTORE PUSH1 0x1 PUSH1 0x1 PUSH1 0xA0 SHL SUB SWAP1 SWAP2 AND PUSH1 0x4 DUP3 ADD MSTORE ADDRESS PUSH1 0x24 DUP3 ADD MSTORE PUSH1 0x44 ADD PUSH1 0x20 PUSH1 0x40 MLOAD DUP1 DUP4 SUB DUP2 PUSH1 0x0 DUP8 DUP1 EXTCODESIZE ISZERO DUP1 ISZERO PUSH2 0xE93 JUMPI PUSH1 0x0 DUP1 REVERT JUMPDEST POP GAS CALL ISZERO DUP1 ISZERO PUSH2 0xEA7 JUMPI RETURNDATASIZE PUSH1 0x0 DUP1 RETURNDATACOPY RETURNDATASIZE PUSH1 0x0 REVERT JUMPDEST POP POP POP POP PUSH1 0x40 MLOAD RETURNDATASIZE PUSH1 0x1F NOT PUSH1 0x1F DUP3 ADD AND DUP3 ADD DUP1 PUSH1 0x40 MSTORE POP DUP2 ADD SWAP1 PUSH2 0xECB SWAP2 SWAP1 PUSH2 0x336F JUMP JUMPDEST PUSH1 0x19 DUP1 SLOAD PUSH1 0x1 PUSH1 0x1 PUSH1 0xA0 SHL SUB NOT AND PUSH1 0x1 PUSH1 0x1 PUSH1 0xA0 SHL SUB SWAP3 SWAP1 SWAP3 AND SWAP2 DUP3 OR SWAP1 SSTORE PUSH1 0x0 SWAP1 DUP2 MSTORE PUSH1 0x3 PUSH1 0x20 MSTORE PUSH1 0x40 SWAP1 KECCAK256 DUP1 SLOAD PUSH1 0xFF NOT SWAP1 DUP2 AND PUSH1 0x1 SWAP1 DUP2 OR SWAP1 SWAP3 SSTORE PUSH1 0x33 DUP1 SLOAD SWAP1 SWAP2 AND SWAP1 SWAP2 OR SWAP1 SSTORE JUMP JUMPDEST PUSH1 0x0 PUSH2 0xF23 DUP5 DUP5 DUP5 PUSH2 0x1F88 JUMP JUMPDEST POP PUSH1 0x1 PUSH1 0x1 PUSH1 0xA0 SHL SUB DUP5 AND PUSH1 0x0 SWAP1 DUP2 MSTORE PUSH1 0x5 PUSH1 0x20 SWAP1 DUP2 MSTORE PUSH1 0x40 DUP1 DUP4 KECCAK256 CALLER DUP1 DUP6 MSTORE SWAP3 MSTORE SWAP1 SWAP2 KECCAK256 SLOAD PUSH2 0xF5F SWAP2 DUP7 SWAP2 PUSH2 0xF5A SWAP1 DUP7 SWAP1 PUSH2 0x3327 JUMP JUMPDEST PUSH2 0x1E64 JUMP JUMPDEST POP PUSH1 0x1 SWAP4 SWAP3 POP POP POP JUMP JUMPDEST PUSH1 0x0 SLOAD PUSH1 0x1 PUSH1 0x1 PUSH1 0xA0 SHL SUB AND CALLER EQ PUSH2 0xF93 JUMPI PUSH1 0x40 MLOAD PUSH3 0x461BCD PUSH1 0xE5 SHL DUP2 MSTORE PUSH1 0x4 ADD PUSH2 0x8E6 SWAP1 PUSH2 0x328B JUMP JUMPDEST PUSH1 0x0 DUP2 DUP4 PUSH1 0x15 SLOAD PUSH2 0xFA4 SWAP2 SWAP1 PUSH2 0x338C JUMP JUMPDEST PUSH2 0xFAE SWAP2 SWAP1 PUSH2 0x33AB JUMP JUMPDEST SWAP1 POP PUSH2 0x3E8 PUSH1 0x15 SLOAD PUSH2 0xFC0 SWAP2 SWAP1 PUSH2 0x33AB JUMP JUMPDEST DUP2 LT ISZERO PUSH2 0x102A JUMPI PUSH1 0x40 MLOAD PUSH3 0x461BCD PUSH1 0xE5 SHL DUP2 MSTORE PUSH1 0x20 PUSH1 0x4 DUP3 ADD MSTORE PUSH1 0x32 PUSH1 0x24 DUP3 ADD MSTORE PUSH32 0x4D61782057616C6C657420616D74206D7573742062652061626F766520302E31 PUSH1 0x44 DUP3 ADD MSTORE PUSH18 0x129037B3103A37BA30B61039BAB838363C97 PUSH1 0x71 SHL PUSH1 0x64 DUP3 ADD MSTORE PUSH1 0x84 ADD PUSH2 0x8E6 JUMP JUMPDEST PUSH1 0x25 DUP2 SWAP1 SSTORE PUSH1 0xB SLOAD DUP3 SWAP1 PUSH2 0x103F SWAP1 DUP6 SWAP1 PUSH2 0x338C JUMP JUMPDEST PUSH2 0x1049 SWAP2 SWAP1 PUSH2 0x33AB JUMP JUMPDEST PUSH1 0x27 SSTORE POP POP POP JUMP JUMPDEST PUSH1 0x0 PUSH1 0x16 SLOAD DUP3 GT ISZERO PUSH2 0x10B8 JUMPI PUSH1 0x40 MLOAD PUSH3 0x461BCD PUSH1 0xE5 SHL DUP2 MSTORE PUSH1 0x20 PUSH1 0x4 DUP3 ADD MSTORE PUSH1 0x2A PUSH1 0x24 DUP3 ADD MSTORE PUSH32 0x416D6F756E74206D757374206265206C657373207468616E20746F74616C2072 PUSH1 0x44 DUP3 ADD MSTORE PUSH10 0x65666C656374696F6E73 PUSH1 0xB0 SHL PUSH1 0x64 DUP3 ADD MSTORE PUSH1 0x84 ADD PUSH2 0x8E6 JUMP JUMPDEST PUSH1 0x0 PUSH2 0x10C2 PUSH2 0x23B4 JUMP JUMPDEST SWAP1 POP PUSH2 0x10CE DUP2 DUP5 PUSH2 0x33AB JUMP JUMPDEST SWAP4 SWAP3 POP POP POP JUMP JUMPDEST PUSH1 0x0 SLOAD PUSH1 0x1 PUSH1 0x1 PUSH1 0xA0 SHL SUB AND CALLER EQ PUSH2 0x10FF JUMPI PUSH1 0x40 MLOAD PUSH3 0x461BCD PUSH1 0xE5 SHL DUP2 MSTORE PUSH1 0x4 ADD PUSH2 0x8E6 SWAP1 PUSH2 0x328B JUMP JUMPDEST PUSH1 0x1 PUSH1 0x1 PUSH1 0xA0 SHL SUB DUP2 AND PUSH1 0x0 SWAP1 DUP2 MSTORE PUSH1 0x9 PUSH1 0x20 MSTORE PUSH1 0x40 SWAP1 KECCAK256 SLOAD PUSH1 0xFF AND PUSH2 0x1171 JUMPI PUSH1 0x40 MLOAD PUSH3 0x461BCD PUSH1 0xE5 SHL DUP2 MSTORE PUSH1 0x20 PUSH1 0x4 DUP3 ADD MSTORE PUSH1 0x21 PUSH1 0x24 DUP3 ADD MSTORE PUSH32 0x4163636F756E74206973206E6F742061207265636F7264656420736E69706572 PUSH1 0x44 DUP3 ADD MSTORE PUSH1 0x17 PUSH1 0xF9 SHL PUSH1 0x64 DUP3 ADD MSTORE PUSH1 0x84 ADD PUSH2 0x8E6 JUMP JUMPDEST PUSH1 0x1 PUSH1 0x1 PUSH1 0xA0 SHL SUB AND PUSH1 0x0 SWAP1 DUP2 MSTORE PUSH1 0x9 PUSH1 0x20 MSTORE PUSH1 0x40 SWAP1 KECCAK256 DUP1 SLOAD PUSH1 0xFF NOT AND SWAP1 SSTORE JUMP JUMPDEST PUSH1 0x0 SLOAD PUSH1 0x1 PUSH1 0x1 PUSH1 0xA0 SHL SUB AND CALLER EQ PUSH2 0x11BC JUMPI PUSH1 0x40 MLOAD PUSH3 0x461BCD PUSH1 0xE5 SHL DUP2 MSTORE PUSH1 0x4 ADD PUSH2 0x8E6 SWAP1 PUSH2 0x328B JUMP JUMPDEST PUSH1 0x2B SLOAD ISZERO DUP1 ISZERO PUSH2 0x11CC JUMPI POP PUSH1 0x2E SLOAD ISZERO JUMPDEST PUSH2 0x1201 JUMPI PUSH1 0x40 MLOAD PUSH3 0x461BCD PUSH1 0xE5 SHL DUP2 MSTORE PUSH1 0x20 PUSH1 0x4 DUP3 ADD MSTORE PUSH1 0x6 PUSH1 0x24 DUP3 ADD MSTORE PUSH6 0x22B93937B917 PUSH1 0xD1 SHL PUSH1 0x44 DUP3 ADD MSTORE PUSH1 0x64 ADD PUSH2 0x8E6 JUMP JUMPDEST PUSH1 0x2B SWAP2 SWAP1 SWAP2 SSTORE PUSH1 0x2E SSTORE JUMP JUMPDEST CALLER PUSH1 0x0 DUP2 DUP2 MSTORE PUSH1 0x5 PUSH1 0x20 SWAP1 DUP2 MSTORE PUSH1 0x40 DUP1 DUP4 KECCAK256 PUSH1 0x1 PUSH1 0x1 PUSH1 0xA0 SHL SUB DUP8 AND DUP5 MSTORE SWAP1 SWAP2 MSTORE DUP2 KECCAK256 SLOAD SWAP1 SWAP2 PUSH2 0x9BB SWAP2 DUP6 SWAP1 PUSH2 0xF5A SWAP1 DUP7 SWAP1 PUSH2 0x33CD JUMP JUMPDEST PUSH1 0x0 SLOAD PUSH1 0x1 PUSH1 0x1 PUSH1 0xA0 SHL SUB AND CALLER EQ PUSH2 0x126D JUMPI PUSH1 0x40 MLOAD PUSH3 0x461BCD PUSH1 0xE5 SHL DUP2 MSTORE PUSH1 0x4 ADD PUSH2 0x8E6 SWAP1 PUSH2 0x328B JUMP JUMPDEST PUSH1 0x0 DUP2 DUP4 PUSH1 0x15 SLOAD PUSH2 0x127E SWAP2 SWAP1 PUSH2 0x338C JUMP JUMPDEST PUSH2 0x1288 SWAP2 SWAP1 PUSH2 0x33AB JUMP JUMPDEST SWAP1 POP PUSH2 0x3E8 PUSH1 0x15 SLOAD PUSH2 0x129A SWAP2 SWAP1 PUSH2 0x33AB JUMP JUMPDEST DUP2 LT ISZERO PUSH2 0x130F JUMPI PUSH1 0x40 MLOAD PUSH3 0x461BCD PUSH1 0xE5 SHL DUP2 MSTORE PUSH1 0x20 PUSH1 0x4 DUP3 ADD MSTORE PUSH1 0x37 PUSH1 0x24 DUP3 ADD MSTORE PUSH32 0x4D6178205472616E73616374696F6E20616D74206D7573742062652061626F76 PUSH1 0x44 DUP3 ADD MSTORE PUSH32 0x6520302E3125206F6620746F74616C20737570706C792E000000000000000000 PUSH1 0x64 DUP3 ADD MSTORE PUSH1 0x84 ADD PUSH2 0x8E6 JUMP JUMPDEST PUSH1 0x20 DUP2 SWAP1 SSTORE PUSH1 0xB SLOAD DUP3 SWAP1 PUSH2 0x1324 SWAP1 DUP6 SWAP1 PUSH2 0x338C JUMP JUMPDEST PUSH2 0x132E SWAP2 SWAP1 PUSH2 0x33AB JUMP JUMPDEST PUSH1 0x22 SSTORE POP POP POP JUMP JUMPDEST PUSH1 0x0 SLOAD PUSH1 0x1 PUSH1 0x1 PUSH1 0xA0 SHL SUB AND CALLER EQ PUSH2 0x1360 JUMPI PUSH1 0x40 MLOAD PUSH3 0x461BCD PUSH1 0xE5 SHL DUP2 MSTORE PUSH1 0x4 ADD PUSH2 0x8E6 SWAP1 PUSH2 0x328B JUMP JUMPDEST PUSH1 0x2F SLOAD ISZERO DUP1 ISZERO PUSH2 0x1379 JUMPI POP PUSH1 0x2A SLOAD PUSH3 0x10000 SWAP1 DIV PUSH1 0xFF AND ISZERO JUMPDEST PUSH2 0x1382 JUMPI PUSH1 0x0 DUP1 REVERT JUMPDEST PUSH1 0xFF AND PUSH1 0x2F SSTORE JUMP JUMPDEST PUSH1 0x0 SLOAD PUSH1 0x1 PUSH1 0x1 PUSH1 0xA0 SHL SUB AND CALLER EQ PUSH2 0x13B4 JUMPI PUSH1 0x40 MLOAD PUSH3 0x461BCD PUSH1 0xE5 SHL DUP2 MSTORE PUSH1 0x4 ADD PUSH2 0x8E6 SWAP1 PUSH2 0x328B JUMP JUMPDEST PUSH1 0x1 PUSH1 0x1 PUSH1 0xA0 SHL SUB DUP2 AND PUSH2 0x13DA JUMPI PUSH1 0x40 MLOAD PUSH3 0x461BCD PUSH1 0xE5 SHL DUP2 MSTORE PUSH1 0x4 ADD PUSH2 0x8E6 SWAP1 PUSH2 0x33E5 JUMP JUMPDEST PUSH1 0x1B SLOAD PUSH1 0x1 PUSH1 0x1 PUSH1 0xA0 SHL SUB DUP3 DUP2 AND SWAP2 AND EQ ISZERO PUSH2 0x1408 JUMPI PUSH1 0x40 MLOAD PUSH3 0x461BCD PUSH1 0xE5 SHL DUP2 MSTORE PUSH1 0x4 ADD PUSH2 0x8E6 SWAP1 PUSH2 0x33E5 JUMP JUMPDEST PUSH1 0x0 DUP1 SLOAD PUSH2 0x1421 SWAP2 PUSH1 0x1 PUSH1 0x1 PUSH1 0xA0 SHL SUB SWAP1 SWAP2 AND SWAP1 PUSH2 0x15E0 JUMP JUMPDEST PUSH2 0x142C DUP2 PUSH1 0x1 PUSH2 0x15E0 JUMP JUMPDEST PUSH2 0x1437 DUP2 PUSH1 0x1 PUSH2 0x9C4 JUMP JUMPDEST PUSH1 0x0 SLOAD PUSH1 0x1D SLOAD PUSH1 0x1 PUSH1 0x1 PUSH1 0xA0 SHL SUB SWAP1 DUP2 AND SWAP2 AND EQ ISZERO PUSH2 0x146C JUMPI PUSH1 0x1D DUP1 SLOAD PUSH1 0x1 PUSH1 0x1 PUSH1 0xA0 SHL SUB NOT AND PUSH1 0x1 PUSH1 0x1 PUSH1 0xA0 SHL SUB DUP4 AND OR SWAP1 SSTORE JUMPDEST PUSH1 0x0 SLOAD PUSH2 0x1481 SWAP1 PUSH1 0x1 PUSH1 0x1 PUSH1 0xA0 SHL SUB AND PUSH2 0x1635 JUMP JUMPDEST PUSH1 0x0 DUP1 SLOAD PUSH1 0x1 PUSH1 0x1 PUSH1 0xA0 SHL SUB SWAP1 DUP2 AND DUP3 MSTORE PUSH1 0x5 PUSH1 0x20 SWAP1 DUP2 MSTORE PUSH1 0x40 DUP1 DUP5 KECCAK256 DUP7 DUP5 AND DUP6 MSTORE SWAP1 SWAP2 MSTORE DUP3 KECCAK256 SWAP3 SWAP1 SWAP3 SSTORE DUP1 SLOAD SWAP1 SWAP2 PUSH2 0x14BA SWAP2 AND PUSH2 0x1635 JUMP JUMPDEST GT ISZERO PUSH2 0x14E1 JUMPI PUSH1 0x0 SLOAD PUSH2 0x14DF SWAP1 PUSH1 0x1 PUSH1 0x1 PUSH1 0xA0 SHL SUB AND DUP3 PUSH2 0x14DA DUP3 PUSH2 0x1635 JUMP JUMPDEST PUSH2 0x1F88 JUMP JUMPDEST POP JUMPDEST PUSH1 0x0 DUP1 SLOAD PUSH1 0x1 PUSH1 0x1 PUSH1 0xA0 SHL SUB NOT AND PUSH1 0x1 PUSH1 0x1 PUSH1 0xA0 SHL SUB DUP4 AND SWAP1 DUP2 OR DUP3 SSTORE PUSH1 0x40 MLOAD SWAP1 SWAP2 DUP3 SWAP2 PUSH32 0x8BE0079C531659141344CD1FD0A4F28419497F9722A3DAAFE3B4186F6B6457E0 SWAP2 SWAP1 LOG3 POP JUMP JUMPDEST PUSH1 0x0 PUSH2 0x153A DUP3 PUSH1 0x0 NOT PUSH2 0x9AE JUMP JUMPDEST SWAP3 SWAP2 POP POP JUMP JUMPDEST PUSH1 0x0 SLOAD PUSH1 0x1 PUSH1 0x1 PUSH1 0xA0 SHL SUB AND CALLER EQ PUSH2 0x156A JUMPI PUSH1 0x40 MLOAD PUSH3 0x461BCD PUSH1 0xE5 SHL DUP2 MSTORE PUSH1 0x4 ADD PUSH2 0x8E6 SWAP1 PUSH2 0x328B JUMP JUMPDEST PUSH1 0x1D SLOAD PUSH1 0x1 PUSH1 0x1 PUSH1 0xA0 SHL SUB DUP3 DUP2 AND SWAP2 AND EQ ISZERO PUSH2 0x15BE JUMPI PUSH1 0x40 MLOAD PUSH3 0x461BCD PUSH1 0xE5 SHL DUP2 MSTORE PUSH1 0x20 PUSH1 0x4 DUP3 ADD MSTORE PUSH1 0x13 PUSH1 0x24 DUP3 ADD MSTORE PUSH19 0x57616C6C657420616C72656164792073657421 PUSH1 0x68 SHL PUSH1 0x44 DUP3 ADD MSTORE PUSH1 0x64 ADD PUSH2 0x8E6 JUMP JUMPDEST PUSH1 0x1D DUP1 SLOAD PUSH1 0x1 PUSH1 0x1 PUSH1 0xA0 SHL SUB NOT AND PUSH1 0x1 PUSH1 0x1 PUSH1 0xA0 SHL SUB SWAP3 SWAP1 SWAP3 AND SWAP2 SWAP1 SWAP2 OR SWAP1 SSTORE JUMP JUMPDEST PUSH1 0x0 SLOAD PUSH1 0x1 PUSH1 0x1 PUSH1 0xA0 SHL SUB AND CALLER EQ PUSH2 0x160A JUMPI PUSH1 0x40 MLOAD PUSH3 0x461BCD PUSH1 0xE5 SHL DUP2 MSTORE PUSH1 0x4 ADD PUSH2 0x8E6 SWAP1 PUSH2 0x328B JUMP JUMPDEST PUSH1 0x1 PUSH1 0x1 PUSH1 0xA0 SHL SUB SWAP2 SWAP1 SWAP2 AND PUSH1 0x0 SWAP1 DUP2 MSTORE PUSH1 0x6 PUSH1 0x20 MSTORE PUSH1 0x40 SWAP1 KECCAK256 DUP1 SLOAD PUSH1 0xFF NOT AND SWAP2 ISZERO ISZERO SWAP2 SWAP1 SWAP2 OR SWAP1 SSTORE JUMP JUMPDEST PUSH1 0x1 PUSH1 0x1 PUSH1 0xA0 SHL SUB DUP2 AND PUSH1 0x0 SWAP1 DUP2 MSTORE PUSH1 0x7 PUSH1 0x20 MSTORE PUSH1 0x40 DUP2 KECCAK256 SLOAD PUSH1 0xFF AND ISZERO PUSH2 0x1672 JUMPI POP PUSH1 0x1 PUSH1 0x1 PUSH1 0xA0 SHL SUB AND PUSH1 0x0 SWAP1 DUP2 MSTORE PUSH1 0x2 PUSH1 0x20 MSTORE PUSH1 0x40 SWAP1 KECCAK256 SLOAD SWAP1 JUMP JUMPDEST PUSH1 0x1 PUSH1 0x1 PUSH1 0xA0 SHL SUB DUP3 AND PUSH1 0x0 SWAP1 DUP2 MSTORE PUSH1 0x1 PUSH1 0x20 MSTORE PUSH1 0x40 SWAP1 KECCAK256 SLOAD PUSH2 0x153A SWAP1 PUSH2 0x1051 JUMP JUMPDEST PUSH1 0x0 SLOAD PUSH1 0x1 PUSH1 0x1 PUSH1 0xA0 SHL SUB AND CALLER EQ PUSH2 0x16BE JUMPI PUSH1 0x40 MLOAD PUSH3 0x461BCD PUSH1 0xE5 SHL DUP2 MSTORE PUSH1 0x4 ADD PUSH2 0x8E6 SWAP1 PUSH2 0x328B JUMP JUMPDEST PUSH1 0x0 DUP1 SLOAD PUSH2 0x16D7 SWAP2 PUSH1 0x1 PUSH1 0x1 PUSH1 0xA0 SHL SUB SWAP1 SWAP2 AND SWAP1 PUSH2 0x15E0 JUMP JUMPDEST PUSH1 0x0 DUP1 SLOAD PUSH1 0x1 PUSH1 0x1 PUSH1 0xA0 SHL SUB NOT AND DUP2 SSTORE PUSH1 0x40 MLOAD DUP2 SWAP1 PUSH32 0x8BE0079C531659141344CD1FD0A4F28419497F9722A3DAAFE3B4186F6B6457E0 SWAP1 DUP3 SWAP1 LOG3 JUMP JUMPDEST PUSH1 0x0 SLOAD PUSH1 0x1 PUSH1 0x1 PUSH1 0xA0 SHL SUB AND CALLER EQ PUSH2 0x173D JUMPI PUSH1 0x40 MLOAD PUSH3 0x461BCD PUSH1 0xE5 SHL DUP2 MSTORE PUSH1 0x4 ADD PUSH2 0x8E6 SWAP1 PUSH2 0x328B JUMP JUMPDEST DUP1 PUSH2 0x1764 JUMPI POP PUSH1 0x1 PUSH1 0x1 PUSH1 0xA0 SHL SUB AND PUSH1 0x0 SWAP1 DUP2 MSTORE PUSH1 0x3 PUSH1 0x20 MSTORE PUSH1 0x40 SWAP1 KECCAK256 DUP1 SLOAD PUSH1 0xFF NOT AND SWAP1 SSTORE JUMP JUMPDEST PUSH1 0x4 SLOAD ISZERO PUSH2 0x17CB JUMPI PUSH3 0x93A80 PUSH1 0x4 SLOAD TIMESTAMP PUSH2 0x177E SWAP2 SWAP1 PUSH2 0x3327 JUMP JUMPDEST GT PUSH2 0x17CB JUMPI PUSH1 0x40 MLOAD PUSH3 0x461BCD PUSH1 0xE5 SHL DUP2 MSTORE PUSH1 0x20 PUSH1 0x4 DUP3 ADD DUP2 SWAP1 MSTORE PUSH1 0x24 DUP3 ADD MSTORE PUSH32 0x43616E6E6F74207365742061206E657720706169722074686973207765656B21 PUSH1 0x44 DUP3 ADD MSTORE PUSH1 0x64 ADD PUSH2 0x8E6 JUMP JUMPDEST PUSH1 0x1 PUSH1 0x1 PUSH1 0xA0 SHL SUB DUP3 AND PUSH1 0x0 SWAP1 DUP2 MSTORE PUSH1 0x3 PUSH1 0x20 MSTORE PUSH1 0x40 SWAP1 KECCAK256 DUP1 SLOAD PUSH1 0xFF NOT AND PUSH1 0x1 OR SWAP1 SSTORE TIMESTAMP PUSH1 0x4 SSTORE POP POP JUMP JUMPDEST PUSH1 0x0 SLOAD PUSH1 0x1 PUSH1 0x1 PUSH1 0xA0 SHL SUB AND CALLER EQ PUSH2 0x1820 JUMPI PUSH1 0x40 MLOAD PUSH3 0x461BCD PUSH1 0xE5 SHL DUP2 MSTORE PUSH1 0x4 ADD PUSH2 0x8E6 SWAP1 PUSH2 0x328B JUMP JUMPDEST PUSH1 0x2A SLOAD PUSH1 0xFF AND ISZERO PUSH2 0x1873 JUMPI PUSH1 0x40 MLOAD PUSH3 0x461BCD PUSH1 0xE5 SHL DUP2 MSTORE PUSH1 0x20 PUSH1 0x4 DUP3 ADD MSTORE PUSH1 0x18 PUSH1 0x24 DUP3 ADD MSTORE PUSH32 0x54726164696E6720616C726561647920656E61626C6564210000000000000000 PUSH1 0x44 DUP3 ADD MSTORE PUSH1 0x64 ADD PUSH2 0x8E6 JUMP JUMPDEST PUSH1 0x2A SLOAD PUSH3 0x10000 SWAP1 DIV PUSH1 0xFF AND PUSH2 0x18E2 JUMPI PUSH1 0x40 MLOAD PUSH3 0x461BCD PUSH1 0xE5 SHL DUP2 MSTORE PUSH1 0x20 PUSH1 0x4 DUP3 ADD MSTORE PUSH1 0x2E PUSH1 0x24 DUP3 ADD MSTORE PUSH32 0x43616E6E6F74206265207573656420756E74696C206C69717569646974792068 PUSH1 0x44 DUP3 ADD MSTORE PUSH14 0x6173206265656E20616464656421 PUSH1 0x90 SHL PUSH1 0x64 DUP3 ADD MSTORE PUSH1 0x84 ADD PUSH2 0x8E6 JUMP JUMPDEST PUSH2 0x18ED ADDRESS PUSH1 0x1 PUSH2 0x9C4 JUMP JUMPDEST PUSH1 0x19 SLOAD PUSH2 0x1904 SWAP1 PUSH1 0x1 PUSH1 0x1 PUSH1 0xA0 SHL SUB AND PUSH1 0x1 PUSH2 0x9C4 JUMP JUMPDEST PUSH1 0x2F SLOAD PUSH1 0x1 EQ PUSH2 0x1922 JUMPI PUSH2 0x191A NUMBER PUSH2 0x1F4 PUSH2 0x33CD JUMP JUMPDEST PUSH1 0x2C SSTORE PUSH2 0x1927 JUMP JUMPDEST NUMBER PUSH1 0x2C SSTORE JUMPDEST PUSH1 0x2A DUP1 SLOAD PUSH1 0xFF NOT AND PUSH1 0x1 OR SWAP1 SSTORE JUMP JUMPDEST PUSH1 0x60 PUSH1 0xD DUP1 SLOAD PUSH2 0x92B SWAP1 PUSH2 0x32C0 JUMP JUMPDEST CALLER PUSH1 0x0 DUP2 DUP2 MSTORE PUSH1 0x5 PUSH1 0x20 SWAP1 DUP2 MSTORE PUSH1 0x40 DUP1 DUP4 KECCAK256 PUSH1 0x1 PUSH1 0x1 PUSH1 0xA0 SHL SUB DUP8 AND DUP5 MSTORE SWAP1 SWAP2 MSTORE DUP2 KECCAK256 SLOAD SWAP1 SWAP2 PUSH2 0x9BB SWAP2 DUP6 SWAP1 PUSH2 0xF5A SWAP1 DUP7 SWAP1 PUSH2 0x3327 JUMP JUMPDEST PUSH1 0x0 PUSH2 0xF5F CALLER DUP5 DUP5 PUSH2 0x1F88 JUMP JUMPDEST PUSH1 0x0 SLOAD PUSH1 0x1 PUSH1 0x1 PUSH1 0xA0 SHL SUB AND CALLER EQ PUSH2 0x19B3 JUMPI PUSH1 0x40 MLOAD PUSH3 0x461BCD PUSH1 0xE5 SHL DUP2 MSTORE PUSH1 0x4 ADD PUSH2 0x8E6 SWAP1 PUSH2 0x328B JUMP JUMPDEST PUSH1 0x1D DUP1 SLOAD DUP3 ISZERO ISZERO PUSH1 0x1 PUSH1 0xA8 SHL MUL PUSH1 0xFF PUSH1 0xA8 SHL NOT SWAP1 SWAP2 AND OR SWAP1 SSTORE PUSH1 0x40 MLOAD PUSH32 0x53726DFCAF90650AA7EB35524F4D3220F07413C8D6CB404CC8C18BF5591BC159 SWAP1 PUSH2 0x1A00 SWAP1 DUP4 ISZERO ISZERO DUP2 MSTORE PUSH1 0x20 ADD SWAP1 JUMP JUMPDEST PUSH1 0x40 MLOAD DUP1 SWAP2 SUB SWAP1 LOG1 POP JUMP JUMPDEST PUSH1 0x0 SLOAD PUSH1 0x1 PUSH1 0x1 PUSH1 0xA0 SHL SUB AND CALLER EQ PUSH2 0x1A35 JUMPI PUSH1 0x40 MLOAD PUSH3 0x461BCD PUSH1 0xE5 SHL DUP2 MSTORE PUSH1 0x4 ADD PUSH2 0x8E6 SWAP1 PUSH2 0x328B JUMP JUMPDEST PUSH1 0x10 SLOAD DUP3 GT ISZERO DUP1 ISZERO PUSH2 0x1A49 JUMPI POP PUSH1 0x11 SLOAD DUP2 GT ISZERO JUMPDEST PUSH2 0x1A52 JUMPI PUSH1 0x0 DUP1 REVERT JUMPDEST PUSH2 0x1388 PUSH2 0x1A5F DUP3 DUP5 PUSH2 0x33CD JUMP JUMPDEST GT ISZERO PUSH2 0x1A6A JUMPI PUSH1 0x0 DUP1 REVERT JUMPDEST PUSH1 0xE SWAP2 SWAP1 SWAP2 SSTORE PUSH1 0xF SSTORE JUMP JUMPDEST PUSH1 0x0 SLOAD PUSH1 0x1 PUSH1 0x1 PUSH1 0xA0 SHL SUB AND CALLER EQ PUSH2 0x1A9F JUMPI PUSH1 0x40 MLOAD PUSH3 0x461BCD PUSH1 0xE5 SHL DUP2 MSTORE PUSH1 0x4 ADD PUSH2 0x8E6 SWAP1 PUSH2 0x328B JUMP JUMPDEST PUSH1 0x0 DUP2 SWAP1 POP PUSH1 0x0 DUP2 PUSH1 0x1 PUSH1 0x1 PUSH1 0xA0 SHL SUB AND PUSH4 0xC45A0155 PUSH1 0x40 MLOAD DUP2 PUSH4 0xFFFFFFFF AND PUSH1 0xE0 SHL DUP2 MSTORE PUSH1 0x4 ADD PUSH1 0x20 PUSH1 0x40 MLOAD DUP1 DUP4 SUB DUP2 DUP7 DUP1 EXTCODESIZE ISZERO DUP1 ISZERO PUSH2 0x1ADF JUMPI PUSH1 0x0 DUP1 REVERT JUMPDEST POP GAS STATICCALL ISZERO DUP1 ISZERO PUSH2 0x1AF3 JUMPI RETURNDATASIZE PUSH1 0x0 DUP1 RETURNDATACOPY RETURNDATASIZE PUSH1 0x0 REVERT JUMPDEST POP POP POP POP PUSH1 0x40 MLOAD RETURNDATASIZE PUSH1 0x1F NOT PUSH1 0x1F DUP3 ADD AND DUP3 ADD DUP1 PUSH1 0x40 MSTORE POP DUP2 ADD SWAP1 PUSH2 0x1B17 SWAP2 SWAP1 PUSH2 0x336F JUMP JUMPDEST PUSH1 0x1 PUSH1 0x1 PUSH1 0xA0 SHL SUB AND PUSH4 0xE6A43905 ADDRESS DUP5 PUSH1 0x1 PUSH1 0x1 PUSH1 0xA0 SHL SUB AND PUSH4 0xAD5C4648 PUSH1 0x40 MLOAD DUP2 PUSH4 0xFFFFFFFF AND PUSH1 0xE0 SHL DUP2 MSTORE PUSH1 0x4 ADD PUSH1 0x20 PUSH1 0x40 MLOAD DUP1 DUP4 SUB DUP2 DUP7 DUP1 EXTCODESIZE ISZERO DUP1 ISZERO PUSH2 0x1B5F JUMPI PUSH1 0x0 DUP1 REVERT JUMPDEST POP GAS STATICCALL ISZERO DUP1 ISZERO PUSH2 0x1B73 JUMPI RETURNDATASIZE PUSH1 0x0 DUP1 RETURNDATACOPY RETURNDATASIZE PUSH1 0x0 REVERT JUMPDEST POP POP POP POP PUSH1 0x40 MLOAD RETURNDATASIZE PUSH1 0x1F NOT PUSH1 0x1F DUP3 ADD AND DUP3 ADD DUP1 PUSH1 0x40 MSTORE POP DUP2 ADD SWAP1 PUSH2 0x1B97 SWAP2 SWAP1 PUSH2 0x336F JUMP JUMPDEST PUSH1 0x40 MLOAD PUSH1 0x1 PUSH1 0x1 PUSH1 0xE0 SHL SUB NOT PUSH1 0xE0 DUP6 SWAP1 SHL AND DUP2 MSTORE PUSH1 0x1 PUSH1 0x1 PUSH1 0xA0 SHL SUB SWAP3 DUP4 AND PUSH1 0x4 DUP3 ADD MSTORE SWAP2 AND PUSH1 0x24 DUP3 ADD MSTORE PUSH1 0x44 ADD PUSH1 0x20 PUSH1 0x40 MLOAD DUP1 DUP4 SUB DUP2 DUP7 DUP1 EXTCODESIZE ISZERO DUP1 ISZERO PUSH2 0x1BDD JUMPI PUSH1 0x0 DUP1 REVERT JUMPDEST POP GAS STATICCALL ISZERO DUP1 ISZERO PUSH2 0x1BF1 JUMPI RETURNDATASIZE PUSH1 0x0 DUP1 RETURNDATACOPY RETURNDATASIZE PUSH1 0x0 REVERT JUMPDEST POP POP POP POP PUSH1 0x40 MLOAD RETURNDATASIZE PUSH1 0x1F NOT PUSH1 0x1F DUP3 ADD AND DUP3 ADD DUP1 PUSH1 0x40 MSTORE POP DUP2 ADD SWAP1 PUSH2 0x1C15 SWAP2 SWAP1 PUSH2 0x336F JUMP JUMPDEST SWAP1 POP PUSH1 0x1 PUSH1 0x1 PUSH1 0xA0 SHL SUB DUP2 AND PUSH2 0x1DBB JUMPI DUP2 PUSH1 0x1 PUSH1 0x1 PUSH1 0xA0 SHL SUB AND PUSH4 0xC45A0155 PUSH1 0x40 MLOAD DUP2 PUSH4 0xFFFFFFFF AND PUSH1 0xE0 SHL DUP2 MSTORE PUSH1 0x4 ADD PUSH1 0x20 PUSH1 0x40 MLOAD DUP1 DUP4 SUB DUP2 DUP7 DUP1 EXTCODESIZE ISZERO DUP1 ISZERO PUSH2 0x1C5E JUMPI PUSH1 0x0 DUP1 REVERT JUMPDEST POP GAS STATICCALL ISZERO DUP1 ISZERO PUSH2 0x1C72 JUMPI RETURNDATASIZE PUSH1 0x0 DUP1 RETURNDATACOPY RETURNDATASIZE PUSH1 0x0 REVERT JUMPDEST POP POP POP POP PUSH1 0x40 MLOAD RETURNDATASIZE PUSH1 0x1F NOT PUSH1 0x1F DUP3 ADD AND DUP3 ADD DUP1 PUSH1 0x40 MSTORE POP DUP2 ADD SWAP1 PUSH2 0x1C96 SWAP2 SWAP1 PUSH2 0x336F JUMP JUMPDEST PUSH1 0x1 PUSH1 0x1 PUSH1 0xA0 SHL SUB AND PUSH4 0xC9C65396 ADDRESS DUP5 PUSH1 0x1 PUSH1 0x1 PUSH1 0xA0 SHL SUB AND PUSH4 0xAD5C4648 PUSH1 0x40 MLOAD DUP2 PUSH4 0xFFFFFFFF AND PUSH1 0xE0 SHL DUP2 MSTORE PUSH1 0x4 ADD PUSH1 0x20 PUSH1 0x40 MLOAD DUP1 DUP4 SUB DUP2 DUP7 DUP1 EXTCODESIZE ISZERO DUP1 ISZERO PUSH2 0x1CDE JUMPI PUSH1 0x0 DUP1 REVERT JUMPDEST POP GAS STATICCALL ISZERO DUP1 ISZERO PUSH2 0x1CF2 JUMPI RETURNDATASIZE PUSH1 0x0 DUP1 RETURNDATACOPY RETURNDATASIZE PUSH1 0x0 REVERT JUMPDEST POP POP POP POP PUSH1 0x40 MLOAD RETURNDATASIZE PUSH1 0x1F NOT PUSH1 0x1F DUP3 ADD AND DUP3 ADD DUP1 PUSH1 0x40 MSTORE POP DUP2 ADD SWAP1 PUSH2 0x1D16 SWAP2 SWAP1 PUSH2 0x336F JUMP JUMPDEST PUSH1 0x40 MLOAD PUSH1 0x1 PUSH1 0x1 PUSH1 0xE0 SHL SUB NOT PUSH1 0xE0 DUP6 SWAP1 SHL AND DUP2 MSTORE PUSH1 0x1 PUSH1 0x1 PUSH1 0xA0 SHL SUB SWAP3 DUP4 AND PUSH1 0x4 DUP3 ADD MSTORE SWAP2 AND PUSH1 0x24 DUP3 ADD MSTORE PUSH1 0x44 ADD PUSH1 0x20 PUSH1 0x40 MLOAD DUP1 DUP4 SUB DUP2 PUSH1 0x0 DUP8 DUP1 EXTCODESIZE ISZERO DUP1 ISZERO PUSH2 0x1D5E JUMPI PUSH1 0x0 DUP1 REVERT JUMPDEST POP GAS CALL ISZERO DUP1 ISZERO PUSH2 0x1D72 JUMPI RETURNDATASIZE PUSH1 0x0 DUP1 RETURNDATACOPY RETURNDATASIZE PUSH1 0x0 REVERT JUMPDEST POP POP POP POP PUSH1 0x40 MLOAD RETURNDATASIZE PUSH1 0x1F NOT PUSH1 0x1F DUP3 ADD AND DUP3 ADD DUP1 PUSH1 0x40 MSTORE POP DUP2 ADD SWAP1 PUSH2 0x1D96 SWAP2 SWAP1 PUSH2 0x336F JUMP JUMPDEST PUSH1 0x19 DUP1 SLOAD PUSH1 0x1 PUSH1 0x1 PUSH1 0xA0 SHL SUB NOT AND PUSH1 0x1 PUSH1 0x1 PUSH1 0xA0 SHL SUB SWAP3 SWAP1 SWAP3 AND SWAP2 SWAP1 SWAP2 OR SWAP1 SSTORE PUSH2 0x1DD7 JUMP JUMPDEST PUSH1 0x19 DUP1 SLOAD PUSH1 0x1 PUSH1 0x1 PUSH1 0xA0 SHL SUB NOT AND PUSH1 0x1 PUSH1 0x1 PUSH1 0xA0 SHL SUB DUP4 AND OR SWAP1 SSTORE JUMPDEST POP PUSH1 0x18 DUP1 SLOAD PUSH1 0x1 PUSH1 0x1 PUSH1 0xA0 SHL SUB NOT AND PUSH1 0x1 PUSH1 0x1 PUSH1 0xA0 SHL SUB SWAP3 SWAP1 SWAP3 AND SWAP2 SWAP1 SWAP2 OR SWAP1 SSTORE POP JUMP JUMPDEST PUSH1 0x0 SLOAD PUSH1 0x1 PUSH1 0x1 PUSH1 0xA0 SHL SUB AND CALLER EQ PUSH2 0x1E25 JUMPI PUSH1 0x40 MLOAD PUSH3 0x461BCD PUSH1 0xE5 SHL DUP2 MSTORE PUSH1 0x4 ADD PUSH2 0x8E6 SWAP1 PUSH2 0x328B JUMP JUMPDEST DUP3 DUP5 PUSH1 0x15 SLOAD PUSH2 0x1E34 SWAP2 SWAP1 PUSH2 0x338C JUMP JUMPDEST PUSH2 0x1E3E SWAP2 SWAP1 PUSH2 0x33AB JUMP JUMPDEST PUSH1 0x28 SSTORE PUSH1 0x15 SLOAD DUP2 SWAP1 PUSH2 0x1E51 SWAP1 DUP5 SWAP1 PUSH2 0x338C JUMP JUMPDEST PUSH2 0x1E5B SWAP2 SWAP1 PUSH2 0x33AB JUMP JUMPDEST PUSH1 0x29 SSTORE POP POP POP POP JUMP JUMPDEST PUSH1 0x1 PUSH1 0x1 PUSH1 0xA0 SHL SUB DUP4 AND PUSH2 0x1EC6 JUMPI PUSH1 0x40 MLOAD PUSH3 0x461BCD PUSH1 0xE5 SHL DUP2 MSTORE PUSH1 0x20 PUSH1 0x4 DUP3 ADD MSTORE PUSH1 0x24 DUP1 DUP3 ADD MSTORE PUSH32 0x45524332303A20617070726F76652066726F6D20746865207A65726F20616464 PUSH1 0x44 DUP3 ADD MSTORE PUSH4 0x72657373 PUSH1 0xE0 SHL PUSH1 0x64 DUP3 ADD MSTORE PUSH1 0x84 ADD PUSH2 0x8E6 JUMP JUMPDEST PUSH1 0x1 PUSH1 0x1 PUSH1 0xA0 SHL SUB DUP3 AND PUSH2 0x1F27 JUMPI PUSH1 0x40 MLOAD PUSH3 0x461BCD PUSH1 0xE5 SHL DUP2 MSTORE PUSH1 0x20 PUSH1 0x4 DUP3 ADD MSTORE PUSH1 0x22 PUSH1 0x24 DUP3 ADD MSTORE PUSH32 0x45524332303A20617070726F766520746F20746865207A65726F206164647265 PUSH1 0x44 DUP3 ADD MSTORE PUSH2 0x7373 PUSH1 0xF0 SHL PUSH1 0x64 DUP3 ADD MSTORE PUSH1 0x84 ADD PUSH2 0x8E6 JUMP JUMPDEST PUSH1 0x1 PUSH1 0x1 PUSH1 0xA0 SHL SUB DUP4 DUP2 AND PUSH1 0x0 DUP2 DUP2 MSTORE PUSH1 0x5 PUSH1 0x20 SWAP1 DUP2 MSTORE PUSH1 0x40 DUP1 DUP4 KECCAK256 SWAP5 DUP8 AND DUP1 DUP5 MSTORE SWAP5 DUP3 MSTORE SWAP2 DUP3 SWAP1 KECCAK256 DUP6 SWAP1 SSTORE SWAP1 MLOAD DUP5 DUP2 MSTORE PUSH32 0x8C5BE1E5EBEC7D5BD14F71427D1E84F3DD0314C0F7B2291E5B200AC8C7C3B925 SWAP2 ADD PUSH1 0x40 MLOAD DUP1 SWAP2 SUB SWAP1 LOG3 POP POP POP JUMP JUMPDEST PUSH1 0x0 PUSH1 0x1 PUSH1 0x1 PUSH1 0xA0 SHL SUB DUP5 AND PUSH2 0x1FEE JUMPI PUSH1 0x40 MLOAD PUSH3 0x461BCD PUSH1 0xE5 SHL DUP2 MSTORE PUSH1 0x20 PUSH1 0x4 DUP3 ADD MSTORE PUSH1 0x25 PUSH1 0x24 DUP3 ADD MSTORE PUSH32 0x45524332303A207472616E736665722066726F6D20746865207A65726F206164 PUSH1 0x44 DUP3 ADD MSTORE PUSH5 0x6472657373 PUSH1 0xD8 SHL PUSH1 0x64 DUP3 ADD MSTORE PUSH1 0x84 ADD PUSH2 0x8E6 JUMP JUMPDEST PUSH1 0x1 PUSH1 0x1 PUSH1 0xA0 SHL SUB DUP4 AND PUSH2 0x2050 JUMPI PUSH1 0x40 MLOAD PUSH3 0x461BCD PUSH1 0xE5 SHL DUP2 MSTORE PUSH1 0x20 PUSH1 0x4 DUP3 ADD MSTORE PUSH1 0x23 PUSH1 0x24 DUP3 ADD MSTORE PUSH32 0x45524332303A207472616E7366657220746F20746865207A65726F2061646472 PUSH1 0x44 DUP3 ADD MSTORE PUSH3 0x657373 PUSH1 0xE8 SHL PUSH1 0x64 DUP3 ADD MSTORE PUSH1 0x84 ADD PUSH2 0x8E6 JUMP JUMPDEST PUSH1 0x0 DUP3 GT PUSH2 0x20B2 JUMPI PUSH1 0x40 MLOAD PUSH3 0x461BCD PUSH1 0xE5 SHL DUP2 MSTORE PUSH1 0x20 PUSH1 0x4 DUP3 ADD MSTORE PUSH1 0x29 PUSH1 0x24 DUP3 ADD MSTORE PUSH32 0x5472616E7366657220616D6F756E74206D757374206265206772656174657220 PUSH1 0x44 DUP3 ADD MSTORE PUSH9 0x7468616E207A65726F PUSH1 0xB8 SHL PUSH1 0x64 DUP3 ADD MSTORE PUSH1 0x84 ADD PUSH2 0x8E6 JUMP JUMPDEST PUSH2 0x20BC DUP5 DUP5 PUSH2 0x23D7 JUMP JUMPDEST ISZERO PUSH2 0x22DC JUMPI PUSH1 0x2A SLOAD PUSH1 0xFF AND PUSH2 0x2113 JUMPI PUSH1 0x40 MLOAD PUSH3 0x461BCD PUSH1 0xE5 SHL DUP2 MSTORE PUSH1 0x20 PUSH1 0x4 DUP3 ADD MSTORE PUSH1 0x18 PUSH1 0x24 DUP3 ADD MSTORE PUSH32 0x54726164696E67206E6F742079657420656E61626C6564210000000000000000 PUSH1 0x44 DUP3 ADD MSTORE PUSH1 0x64 ADD PUSH2 0x8E6 JUMP JUMPDEST PUSH1 0x31 SLOAD PUSH1 0xFF AND ISZERO PUSH2 0x21C5 JUMPI PUSH1 0x1 PUSH1 0x1 PUSH1 0xA0 SHL SUB DUP5 AND PUSH1 0x0 SWAP1 DUP2 MSTORE PUSH1 0x3 PUSH1 0x20 MSTORE PUSH1 0x40 SWAP1 KECCAK256 SLOAD PUSH1 0xFF AND ISZERO PUSH2 0x2184 JUMPI PUSH1 0x1 PUSH1 0x1 PUSH1 0xA0 SHL SUB DUP4 AND PUSH1 0x0 SWAP1 DUP2 MSTORE PUSH1 0x32 PUSH1 0x20 MSTORE PUSH1 0x40 SWAP1 KECCAK256 SLOAD NUMBER EQ ISZERO PUSH2 0x2164 JUMPI PUSH1 0x0 DUP1 REVERT JUMPDEST PUSH1 0x1 PUSH1 0x1 PUSH1 0xA0 SHL SUB DUP4 AND PUSH1 0x0 SWAP1 DUP2 MSTORE PUSH1 0x32 PUSH1 0x20 MSTORE PUSH1 0x40 SWAP1 KECCAK256 NUMBER SWAP1 SSTORE PUSH2 0x21C5 JUMP JUMPDEST PUSH1 0x1 PUSH1 0x1 PUSH1 0xA0 SHL SUB DUP5 AND PUSH1 0x0 SWAP1 DUP2 MSTORE PUSH1 0x32 PUSH1 0x20 MSTORE PUSH1 0x40 SWAP1 KECCAK256 SLOAD NUMBER EQ ISZERO PUSH2 0x21A9 JUMPI PUSH1 0x0 DUP1 REVERT JUMPDEST PUSH1 0x1 PUSH1 0x1 PUSH1 0xA0 SHL SUB DUP5 AND PUSH1 0x0 SWAP1 DUP2 MSTORE PUSH1 0x32 PUSH1 0x20 MSTORE PUSH1 0x40 SWAP1 KECCAK256 NUMBER SWAP1 SSTORE JUMPDEST PUSH1 0x20 SLOAD DUP3 GT ISZERO PUSH2 0x2228 JUMPI PUSH1 0x40 MLOAD PUSH3 0x461BCD PUSH1 0xE5 SHL DUP2 MSTORE PUSH1 0x20 PUSH1 0x4 DUP3 ADD MSTORE PUSH1 0x28 PUSH1 0x24 DUP3 ADD MSTORE PUSH32 0x5472616E7366657220616D6F756E74206578636565647320746865206D617854 PUSH1 0x44 DUP3 ADD MSTORE PUSH8 0x3C20B6B7BAB73A17 PUSH1 0xC1 SHL PUSH1 0x64 DUP3 ADD MSTORE PUSH1 0x84 ADD PUSH2 0x8E6 JUMP JUMPDEST PUSH1 0x1A SLOAD PUSH1 0x1 PUSH1 0x1 PUSH1 0xA0 SHL SUB DUP5 DUP2 AND SWAP2 AND EQ DUP1 ISZERO SWAP1 PUSH2 0x225F JUMPI POP PUSH1 0x1 PUSH1 0x1 PUSH1 0xA0 SHL SUB DUP4 AND PUSH1 0x0 SWAP1 DUP2 MSTORE PUSH1 0x3 PUSH1 0x20 MSTORE PUSH1 0x40 SWAP1 KECCAK256 SLOAD PUSH1 0xFF AND ISZERO JUMPDEST ISZERO PUSH2 0x22DC JUMPI PUSH1 0x25 SLOAD DUP3 PUSH2 0x2271 DUP6 PUSH2 0x1635 JUMP JUMPDEST PUSH2 0x227B SWAP2 SWAP1 PUSH2 0x33CD JUMP JUMPDEST GT ISZERO PUSH2 0x22DC JUMPI PUSH1 0x40 MLOAD PUSH3 0x461BCD PUSH1 0xE5 SHL DUP2 MSTORE PUSH1 0x20 PUSH1 0x4 DUP3 ADD MSTORE PUSH1 0x2A PUSH1 0x24 DUP3 ADD MSTORE PUSH32 0x5472616E7366657220616D6F756E74206578636565647320746865206D617857 PUSH1 0x44 DUP3 ADD MSTORE PUSH10 0x30B63632BA29B4BD3297 PUSH1 0xB1 SHL PUSH1 0x64 DUP3 ADD MSTORE PUSH1 0x84 ADD PUSH2 0x8E6 JUMP JUMPDEST PUSH1 0x1 PUSH1 0x1 PUSH1 0xA0 SHL SUB DUP5 AND PUSH1 0x0 SWAP1 DUP2 MSTORE PUSH1 0x6 PUSH1 0x20 MSTORE PUSH1 0x40 SWAP1 KECCAK256 SLOAD PUSH1 0x1 SWAP1 PUSH1 0xFF AND DUP1 PUSH2 0x231E JUMPI POP PUSH1 0x1 PUSH1 0x1 PUSH1 0xA0 SHL SUB DUP5 AND PUSH1 0x0 SWAP1 DUP2 MSTORE PUSH1 0x6 PUSH1 0x20 MSTORE PUSH1 0x40 SWAP1 KECCAK256 SLOAD PUSH1 0xFF AND JUMPDEST ISZERO PUSH2 0x2327 JUMPI POP PUSH1 0x0 JUMPDEST PUSH1 0x1 PUSH1 0x1 PUSH1 0xA0 SHL SUB DUP5 AND PUSH1 0x0 SWAP1 DUP2 MSTORE PUSH1 0x3 PUSH1 0x20 MSTORE PUSH1 0x40 SWAP1 KECCAK256 SLOAD PUSH1 0xFF AND ISZERO PUSH2 0x239F JUMPI PUSH1 0x1D SLOAD PUSH1 0x1 PUSH1 0xA0 SHL SWAP1 DIV PUSH1 0xFF AND ISZERO DUP1 ISZERO PUSH2 0x236B JUMPI POP PUSH1 0x1D SLOAD PUSH1 0x1 PUSH1 0xA8 SHL SWAP1 DIV PUSH1 0xFF AND JUMPDEST ISZERO PUSH2 0x239F JUMPI PUSH1 0x0 PUSH2 0x237B ADDRESS PUSH2 0x1635 JUMP JUMPDEST SWAP1 POP PUSH1 0x28 SLOAD DUP2 LT PUSH2 0x239D JUMPI PUSH1 0x29 SLOAD DUP2 LT PUSH2 0x2394 JUMPI POP PUSH1 0x29 SLOAD JUMPDEST PUSH2 0x239D DUP2 PUSH2 0x2497 JUMP JUMPDEST POP JUMPDEST PUSH2 0x23AB DUP6 DUP6 DUP6 DUP5 PUSH2 0x2618 JUMP JUMPDEST SWAP6 SWAP5 POP POP POP POP POP JUMP JUMPDEST PUSH1 0x0 DUP1 PUSH1 0x0 PUSH2 0x23C1 PUSH2 0x2B2E JUMP JUMPDEST SWAP1 SWAP3 POP SWAP1 POP PUSH2 0x23D0 DUP2 DUP4 PUSH2 0x33AB JUMP JUMPDEST SWAP3 POP POP POP SWAP1 JUMP JUMPDEST PUSH1 0x0 DUP1 SLOAD PUSH1 0x1 PUSH1 0x1 PUSH1 0xA0 SHL SUB DUP5 DUP2 AND SWAP2 AND EQ DUP1 ISZERO SWAP1 PUSH2 0x2404 JUMPI POP PUSH1 0x0 SLOAD PUSH1 0x1 PUSH1 0x1 PUSH1 0xA0 SHL SUB DUP4 DUP2 AND SWAP2 AND EQ ISZERO JUMPDEST DUP1 ISZERO PUSH2 0x2429 JUMPI POP PUSH1 0x1 PUSH1 0x1 PUSH1 0xA0 SHL SUB DUP3 AND PUSH1 0x0 SWAP1 DUP2 MSTORE PUSH1 0xA PUSH1 0x20 MSTORE PUSH1 0x40 SWAP1 KECCAK256 SLOAD PUSH1 0xFF AND ISZERO JUMPDEST DUP1 ISZERO PUSH2 0x244E JUMPI POP PUSH1 0x1 PUSH1 0x1 PUSH1 0xA0 SHL SUB DUP4 AND PUSH1 0x0 SWAP1 DUP2 MSTORE PUSH1 0xA PUSH1 0x20 MSTORE PUSH1 0x40 SWAP1 KECCAK256 SLOAD PUSH1 0xFF AND ISZERO JUMPDEST DUP1 ISZERO PUSH2 0x2468 JUMPI POP PUSH1 0x1B SLOAD PUSH1 0x1 PUSH1 0x1 PUSH1 0xA0 SHL SUB DUP4 DUP2 AND SWAP2 AND EQ ISZERO JUMPDEST DUP1 ISZERO PUSH2 0x247C JUMPI POP PUSH1 0x1 PUSH1 0x1 PUSH1 0xA0 SHL SUB DUP3 AND ISZERO ISZERO JUMPDEST DUP1 ISZERO PUSH2 0x10CE JUMPI POP PUSH1 0x1 PUSH1 0x1 PUSH1 0xA0 SHL SUB DUP4 AND ADDRESS EQ ISZERO SWAP4 SWAP3 POP POP POP JUMP JUMPDEST PUSH1 0x1D DUP1 SLOAD PUSH1 0xFF PUSH1 0xA0 SHL NOT AND PUSH1 0x1 PUSH1 0xA0 SHL OR SWAP1 SSTORE DUP1 PUSH2 0x24B4 JUMPI PUSH2 0x2608 JUMP JUMPDEST PUSH1 0x40 DUP1 MLOAD PUSH1 0x2 DUP1 DUP3 MSTORE PUSH1 0x60 DUP3 ADD DUP4 MSTORE PUSH1 0x0 SWAP3 PUSH1 0x20 DUP4 ADD SWAP1 DUP1 CALLDATASIZE DUP4 CALLDATACOPY ADD SWAP1 POP POP SWAP1 POP ADDRESS DUP2 PUSH1 0x0 DUP2 MLOAD DUP2 LT PUSH2 0x24E9 JUMPI PUSH2 0x24E9 PUSH2 0x32FB JUMP JUMPDEST PUSH1 0x1 PUSH1 0x1 PUSH1 0xA0 SHL SUB SWAP3 DUP4 AND PUSH1 0x20 SWAP2 DUP3 MUL SWAP3 SWAP1 SWAP3 ADD DUP2 ADD SWAP2 SWAP1 SWAP2 MSTORE PUSH1 0x18 SLOAD PUSH1 0x40 DUP1 MLOAD PUSH4 0x15AB88C9 PUSH1 0xE3 SHL DUP2 MSTORE SWAP1 MLOAD SWAP2 SWAP1 SWAP4 AND SWAP3 PUSH4 0xAD5C4648 SWAP3 PUSH1 0x4 DUP1 DUP4 ADD SWAP4 SWAP2 SWAP3 DUP3 SWAP1 SUB ADD DUP2 DUP7 DUP1 EXTCODESIZE ISZERO DUP1 ISZERO PUSH2 0x253D JUMPI PUSH1 0x0 DUP1 REVERT JUMPDEST POP GAS STATICCALL ISZERO DUP1 ISZERO PUSH2 0x2551 JUMPI RETURNDATASIZE PUSH1 0x0 DUP1 RETURNDATACOPY RETURNDATASIZE PUSH1 0x0 REVERT JUMPDEST POP POP POP POP PUSH1 0x40 MLOAD RETURNDATASIZE PUSH1 0x1F NOT PUSH1 0x1F DUP3 ADD AND DUP3 ADD DUP1 PUSH1 0x40 MSTORE POP DUP2 ADD SWAP1 PUSH2 0x2575 SWAP2 SWAP1 PUSH2 0x336F JUMP JUMPDEST DUP2 PUSH1 0x1 DUP2 MLOAD DUP2 LT PUSH2 0x2588 JUMPI PUSH2 0x2588 PUSH2 0x32FB JUMP JUMPDEST PUSH1 0x1 PUSH1 0x1 PUSH1 0xA0 SHL SUB SWAP3 DUP4 AND PUSH1 0x20 SWAP2 DUP3 MUL SWAP3 SWAP1 SWAP3 ADD ADD MSTORE PUSH1 0x18 SLOAD PUSH1 0x1D SLOAD PUSH1 0x40 MLOAD PUSH4 0x791AC947 PUSH1 0xE0 SHL DUP2 MSTORE SWAP2 DUP4 AND SWAP3 PUSH4 0x791AC947 SWAP3 PUSH2 0x25D4 SWAP3 DUP8 SWAP3 PUSH1 0x0 SWAP3 DUP9 SWAP3 SWAP1 SWAP2 AND SWAP1 TIMESTAMP SWAP1 PUSH1 0x4 ADD PUSH2 0x3442 JUMP JUMPDEST PUSH1 0x0 PUSH1 0x40 MLOAD DUP1 DUP4 SUB DUP2 PUSH1 0x0 DUP8 DUP1 EXTCODESIZE ISZERO DUP1 ISZERO PUSH2 0x25EE JUMPI PUSH1 0x0 DUP1 REVERT JUMPDEST POP GAS CALL ISZERO DUP1 ISZERO PUSH2 0x2602 JUMPI RETURNDATASIZE PUSH1 0x0 DUP1 RETURNDATACOPY RETURNDATASIZE PUSH1 0x0 REVERT JUMPDEST POP POP POP POP POP JUMPDEST POP PUSH1 0x1D DUP1 SLOAD PUSH1 0xFF PUSH1 0xA0 SHL NOT AND SWAP1 SSTORE JUMP JUMPDEST PUSH1 0x2A SLOAD PUSH1 0x0 SWAP1 PUSH2 0x100 SWAP1 DIV PUSH1 0xFF AND ISZERO PUSH2 0x280B JUMPI PUSH1 0x1 PUSH1 0x1 PUSH1 0xA0 SHL SUB DUP6 AND PUSH1 0x0 SWAP1 DUP2 MSTORE PUSH1 0x9 PUSH1 0x20 MSTORE PUSH1 0x40 SWAP1 KECCAK256 SLOAD PUSH1 0xFF AND DUP1 PUSH2 0x266A JUMPI POP PUSH1 0x1 PUSH1 0x1 PUSH1 0xA0 SHL SUB DUP5 AND PUSH1 0x0 SWAP1 DUP2 MSTORE PUSH1 0x9 PUSH1 0x20 MSTORE PUSH1 0x40 SWAP1 KECCAK256 SLOAD PUSH1 0xFF AND JUMPDEST ISZERO PUSH2 0x26AA JUMPI PUSH1 0x40 MLOAD PUSH3 0x461BCD PUSH1 0xE5 SHL DUP2 MSTORE PUSH1 0x20 PUSH1 0x4 DUP3 ADD MSTORE PUSH1 0x10 PUSH1 0x24 DUP3 ADD MSTORE PUSH16 0x29B734B832B9103932B532B1BA32B217 PUSH1 0x81 SHL PUSH1 0x44 DUP3 ADD MSTORE PUSH1 0x64 ADD PUSH2 0x8E6 JUMP JUMPDEST PUSH1 0x2A SLOAD PUSH3 0x10000 SWAP1 DIV PUSH1 0xFF AND PUSH2 0x2742 JUMPI PUSH2 0x26C4 DUP6 DUP6 PUSH2 0x2CB1 JUMP JUMPDEST PUSH1 0x2A SLOAD PUSH3 0x10000 SWAP1 DIV PUSH1 0xFF AND ISZERO DUP1 ISZERO PUSH2 0x26E2 JUMPI POP PUSH2 0x26E2 DUP6 DUP6 PUSH2 0x23D7 JUMP JUMPDEST ISZERO PUSH2 0x273D JUMPI PUSH1 0x40 MLOAD PUSH3 0x461BCD PUSH1 0xE5 SHL DUP2 MSTORE PUSH1 0x20 PUSH1 0x4 DUP3 ADD MSTORE PUSH1 0x25 PUSH1 0x24 DUP3 ADD MSTORE PUSH32 0x4F6E6C79206F776E65722063616E207472616E73666572206174207468697320 PUSH1 0x44 DUP3 ADD MSTORE PUSH5 0x3A34B6B297 PUSH1 0xD9 SHL PUSH1 0x64 DUP3 ADD MSTORE PUSH1 0x84 ADD PUSH2 0x8E6 JUMP JUMPDEST PUSH2 0x280B JUMP JUMPDEST PUSH1 0x0 PUSH1 0x2C SLOAD GT DUP1 ISZERO PUSH2 0x276C JUMPI POP PUSH1 0x1 PUSH1 0x1 PUSH1 0xA0 SHL SUB DUP6 AND PUSH1 0x0 SWAP1 DUP2 MSTORE PUSH1 0x3 PUSH1 0x20 MSTORE PUSH1 0x40 SWAP1 KECCAK256 SLOAD PUSH1 0xFF AND JUMPDEST DUP1 ISZERO PUSH2 0x277D JUMPI POP PUSH2 0x277D DUP6 DUP6 PUSH2 0x23D7 JUMP JUMPDEST ISZERO PUSH2 0x280B JUMPI PUSH1 0x2F SLOAD PUSH1 0x2C SLOAD PUSH2 0x2792 SWAP1 NUMBER PUSH2 0x3327 JUMP JUMPDEST LT ISZERO PUSH2 0x280B JUMPI PUSH1 0x1 PUSH1 0x1 PUSH1 0xA0 SHL SUB DUP5 AND PUSH1 0x0 SWAP1 DUP2 MSTORE PUSH1 0x9 PUSH1 0x20 MSTORE PUSH1 0x40 DUP2 KECCAK256 DUP1 SLOAD PUSH1 0xFF NOT AND PUSH1 0x1 OR SWAP1 SSTORE PUSH1 0x30 DUP1 SLOAD SWAP2 PUSH2 0x27C9 DUP4 PUSH2 0x3354 JUMP JUMPDEST SWAP1 SWAP2 SSTORE POP POP PUSH1 0x40 MLOAD PUSH1 0x1 PUSH1 0x1 PUSH1 0xA0 SHL SUB DUP6 AND DUP2 MSTORE PUSH32 0x18E6E5CE5C121466E41A954E72765D1EA02B8E6919043B61F0DAB08B4C6572E5 SWAP1 PUSH1 0x20 ADD PUSH1 0x40 MLOAD DUP1 SWAP2 SUB SWAP1 LOG1 JUMPDEST PUSH1 0x0 PUSH2 0x2817 DUP5 DUP5 PUSH2 0x2DCE JUMP JUMPDEST PUSH1 0x80 DUP2 ADD MLOAD PUSH1 0x1 PUSH1 0x1 PUSH1 0xA0 SHL SUB DUP9 AND PUSH1 0x0 SWAP1 DUP2 MSTORE PUSH1 0x1 PUSH1 0x20 MSTORE PUSH1 0x40 SWAP1 KECCAK256 SLOAD SWAP2 SWAP3 POP PUSH2 0x2841 SWAP2 PUSH2 0x3327 JUMP JUMPDEST PUSH1 0x1 PUSH1 0x1 PUSH1 0xA0 SHL SUB DUP1 DUP9 AND PUSH1 0x0 SWAP1 DUP2 MSTORE PUSH1 0x1 PUSH1 0x20 MSTORE PUSH1 0x40 DUP1 DUP3 KECCAK256 SWAP4 SWAP1 SWAP4 SSTORE PUSH1 0x60 DUP5 ADD MLOAD SWAP2 DUP9 AND DUP2 MSTORE SWAP2 SWAP1 SWAP2 KECCAK256 SLOAD PUSH2 0x2878 SWAP2 SWAP1 PUSH2 0x33CD JUMP JUMPDEST PUSH1 0x1 PUSH1 0x1 PUSH1 0xA0 SHL SUB DUP1 DUP8 AND PUSH1 0x0 SWAP1 DUP2 MSTORE PUSH1 0x1 PUSH1 0x20 SWAP1 DUP2 MSTORE PUSH1 0x40 DUP1 DUP4 KECCAK256 SWAP5 SWAP1 SWAP5 SSTORE SWAP2 DUP10 AND DUP2 MSTORE PUSH1 0x7 SWAP1 SWAP2 MSTORE KECCAK256 SLOAD PUSH1 0xFF AND DUP1 ISZERO PUSH2 0x28CC JUMPI POP PUSH1 0x1 PUSH1 0x1 PUSH1 0xA0 SHL SUB DUP6 AND PUSH1 0x0 SWAP1 DUP2 MSTORE PUSH1 0x7 PUSH1 0x20 MSTORE PUSH1 0x40 SWAP1 KECCAK256 SLOAD PUSH1 0xFF AND ISZERO JUMPDEST ISZERO PUSH2 0x2913 JUMPI PUSH1 0x1 PUSH1 0x1 PUSH1 0xA0 SHL SUB DUP7 AND PUSH1 0x0 SWAP1 DUP2 MSTORE PUSH1 0x2 PUSH1 0x20 MSTORE PUSH1 0x40 SWAP1 KECCAK256 SLOAD PUSH2 0x28F5 SWAP1 DUP6 SWAP1 PUSH2 0x3327 JUMP JUMPDEST PUSH1 0x1 PUSH1 0x1 PUSH1 0xA0 SHL SUB DUP8 AND PUSH1 0x0 SWAP1 DUP2 MSTORE PUSH1 0x2 PUSH1 0x20 MSTORE PUSH1 0x40 SWAP1 KECCAK256 SSTORE PUSH2 0x2A53 JUMP JUMPDEST PUSH1 0x1 PUSH1 0x1 PUSH1 0xA0 SHL SUB DUP7 AND PUSH1 0x0 SWAP1 DUP2 MSTORE PUSH1 0x7 PUSH1 0x20 MSTORE PUSH1 0x40 SWAP1 KECCAK256 SLOAD PUSH1 0xFF AND ISZERO DUP1 ISZERO PUSH2 0x2954 JUMPI POP PUSH1 0x1 PUSH1 0x1 PUSH1 0xA0 SHL SUB DUP6 AND PUSH1 0x0 SWAP1 DUP2 MSTORE PUSH1 0x7 PUSH1 0x20 MSTORE PUSH1 0x40 SWAP1 KECCAK256 SLOAD PUSH1 0xFF AND JUMPDEST ISZERO PUSH2 0x299C JUMPI DUP1 MLOAD PUSH1 0x1 PUSH1 0x1 PUSH1 0xA0 SHL SUB DUP7 AND PUSH1 0x0 SWAP1 DUP2 MSTORE PUSH1 0x2 PUSH1 0x20 MSTORE PUSH1 0x40 SWAP1 KECCAK256 SLOAD PUSH2 0x297E SWAP2 SWAP1 PUSH2 0x33CD JUMP JUMPDEST PUSH1 0x1 PUSH1 0x1 PUSH1 0xA0 SHL SUB DUP7 AND PUSH1 0x0 SWAP1 DUP2 MSTORE PUSH1 0x2 PUSH1 0x20 MSTORE PUSH1 0x40 SWAP1 KECCAK256 SSTORE PUSH2 0x2A53 JUMP JUMPDEST PUSH1 0x1 PUSH1 0x1 PUSH1 0xA0 SHL SUB DUP7 AND PUSH1 0x0 SWAP1 DUP2 MSTORE PUSH1 0x7 PUSH1 0x20 MSTORE PUSH1 0x40 SWAP1 KECCAK256 SLOAD PUSH1 0xFF AND DUP1 ISZERO PUSH2 0x29DC JUMPI POP PUSH1 0x1 PUSH1 0x1 PUSH1 0xA0 SHL SUB DUP6 AND PUSH1 0x0 SWAP1 DUP2 MSTORE PUSH1 0x7 PUSH1 0x20 MSTORE PUSH1 0x40 SWAP1 KECCAK256 SLOAD PUSH1 0xFF AND JUMPDEST ISZERO PUSH2 0x2A53 JUMPI PUSH1 0x1 PUSH1 0x1 PUSH1 0xA0 SHL SUB DUP7 AND PUSH1 0x0 SWAP1 DUP2 MSTORE PUSH1 0x2 PUSH1 0x20 MSTORE PUSH1 0x40 SWAP1 KECCAK256 SLOAD PUSH2 0x2A05 SWAP1 DUP6 SWAP1 PUSH2 0x3327 JUMP JUMPDEST PUSH1 0x1 PUSH1 0x1 PUSH1 0xA0 SHL SUB DUP1 DUP9 AND PUSH1 0x0 SWAP1 DUP2 MSTORE PUSH1 0x2 PUSH1 0x20 MSTORE PUSH1 0x40 DUP1 DUP3 KECCAK256 SWAP4 SWAP1 SWAP4 SSTORE DUP4 MLOAD SWAP2 DUP9 AND DUP2 MSTORE SWAP2 SWAP1 SWAP2 KECCAK256 SLOAD PUSH2 0x2A39 SWAP2 SWAP1 PUSH2 0x33CD JUMP JUMPDEST PUSH1 0x1 PUSH1 0x1 PUSH1 0xA0 SHL SUB DUP7 AND PUSH1 0x0 SWAP1 DUP2 MSTORE PUSH1 0x2 PUSH1 0x20 MSTORE PUSH1 0x40 SWAP1 KECCAK256 SSTORE JUMPDEST PUSH2 0x2A5D DUP7 DUP7 PUSH2 0x23D7 JUMP JUMPDEST ISZERO PUSH2 0x2A8B JUMPI PUSH1 0x2B SLOAD ISZERO DUP1 PUSH2 0x2A81 JUMPI POP PUSH1 0x5 PUSH1 0xB SLOAD PUSH2 0x2A7B SWAP2 SWAP1 PUSH2 0x33AB JUMP JUMPDEST PUSH1 0x2B SLOAD EQ ISZERO JUMPDEST ISZERO PUSH2 0x2A8B JUMPI PUSH1 0x0 DUP1 REVERT JUMPDEST PUSH1 0x40 DUP2 ADD MLOAD ISZERO PUSH2 0x2AA3 JUMPI PUSH2 0x2AA3 DUP7 DUP3 PUSH1 0x40 ADD MLOAD PUSH2 0x2F58 JUMP JUMPDEST PUSH1 0x0 DUP2 PUSH1 0xA0 ADD MLOAD GT DUP1 PUSH2 0x2ABA JUMPI POP PUSH1 0x0 DUP2 PUSH1 0x20 ADD MLOAD GT JUMPDEST ISZERO PUSH2 0x2AD1 JUMPI PUSH2 0x2AD1 DUP2 PUSH1 0xA0 ADD MLOAD DUP3 PUSH1 0x20 ADD MLOAD PUSH2 0x3024 JUMP JUMPDEST DUP5 PUSH1 0x1 PUSH1 0x1 PUSH1 0xA0 SHL SUB AND DUP7 PUSH1 0x1 PUSH1 0x1 PUSH1 0xA0 SHL SUB AND PUSH32 0xDDF252AD1BE2C89B69C2B068FC378DAA952BA7F163C4A11628F55A4DF523B3EF DUP4 PUSH1 0x0 ADD MLOAD PUSH1 0x40 MLOAD PUSH2 0x2B1A SWAP2 DUP2 MSTORE PUSH1 0x20 ADD SWAP1 JUMP JUMPDEST PUSH1 0x40 MLOAD DUP1 SWAP2 SUB SWAP1 LOG3 POP PUSH1 0x1 SWAP6 SWAP5 POP POP POP POP POP JUMP JUMPDEST PUSH1 0x16 SLOAD PUSH1 0x15 SLOAD PUSH1 0x0 SWAP2 DUP3 SWAP2 DUP3 JUMPDEST PUSH1 0x8 SLOAD DUP2 LT ISZERO PUSH2 0x2C80 JUMPI DUP3 PUSH1 0x1 PUSH1 0x0 PUSH1 0x8 DUP5 DUP2 SLOAD DUP2 LT PUSH2 0x2B5D JUMPI PUSH2 0x2B5D PUSH2 0x32FB JUMP JUMPDEST PUSH1 0x0 SWAP2 DUP3 MSTORE PUSH1 0x20 DUP1 DUP4 KECCAK256 SWAP1 SWAP2 ADD SLOAD PUSH1 0x1 PUSH1 0x1 PUSH1 0xA0 SHL SUB AND DUP4 MSTORE DUP3 ADD SWAP3 SWAP1 SWAP3 MSTORE PUSH1 0x40 ADD SWAP1 KECCAK256 SLOAD GT DUP1 PUSH2 0x2BC8 JUMPI POP DUP2 PUSH1 0x2 PUSH1 0x0 PUSH1 0x8 DUP5 DUP2 SLOAD DUP2 LT PUSH2 0x2BA1 JUMPI PUSH2 0x2BA1 PUSH2 0x32FB JUMP JUMPDEST PUSH1 0x0 SWAP2 DUP3 MSTORE PUSH1 0x20 DUP1 DUP4 KECCAK256 SWAP1 SWAP2 ADD SLOAD PUSH1 0x1 PUSH1 0x1 PUSH1 0xA0 SHL SUB AND DUP4 MSTORE DUP3 ADD SWAP3 SWAP1 SWAP3 MSTORE PUSH1 0x40 ADD SWAP1 KECCAK256 SLOAD GT JUMPDEST ISZERO PUSH2 0x2BDE JUMPI PUSH1 0x16 SLOAD PUSH1 0x15 SLOAD SWAP5 POP SWAP5 POP POP POP POP SWAP1 SWAP2 JUMP JUMPDEST PUSH1 0x1 PUSH1 0x0 PUSH1 0x8 DUP4 DUP2 SLOAD DUP2 LT PUSH2 0x2BF5 JUMPI PUSH2 0x2BF5 PUSH2 0x32FB JUMP JUMPDEST PUSH1 0x0 SWAP2 DUP3 MSTORE PUSH1 0x20 DUP1 DUP4 KECCAK256 SWAP1 SWAP2 ADD SLOAD PUSH1 0x1 PUSH1 0x1 PUSH1 0xA0 SHL SUB AND DUP4 MSTORE DUP3 ADD SWAP3 SWAP1 SWAP3 MSTORE PUSH1 0x40 ADD SWAP1 KECCAK256 SLOAD PUSH2 0x2C24 SWAP1 DUP5 PUSH2 0x3327 JUMP JUMPDEST SWAP3 POP PUSH1 0x2 PUSH1 0x0 PUSH1 0x8 DUP4 DUP2 SLOAD DUP2 LT PUSH2 0x2C3D JUMPI PUSH2 0x2C3D PUSH2 0x32FB JUMP JUMPDEST PUSH1 0x0 SWAP2 DUP3 MSTORE PUSH1 0x20 DUP1 DUP4 KECCAK256 SWAP1 SWAP2 ADD SLOAD PUSH1 0x1 PUSH1 0x1 PUSH1 0xA0 SHL SUB AND DUP4 MSTORE DUP3 ADD SWAP3 SWAP1 SWAP3 MSTORE PUSH1 0x40 ADD SWAP1 KECCAK256 SLOAD PUSH2 0x2C6C SWAP1 DUP4 PUSH2 0x3327 JUMP JUMPDEST SWAP2 POP DUP1 PUSH2 0x2C78 DUP2 PUSH2 0x3354 JUMP JUMPDEST SWAP2 POP POP PUSH2 0x2B3B JUMP JUMPDEST POP PUSH1 0x15 SLOAD PUSH1 0x16 SLOAD PUSH2 0x2C91 SWAP2 SWAP1 PUSH2 0x33AB JUMP JUMPDEST DUP3 LT ISZERO PUSH2 0x2CA8 JUMPI PUSH1 0x16 SLOAD PUSH1 0x15 SLOAD SWAP4 POP SWAP4 POP POP POP SWAP1 SWAP2 JUMP JUMPDEST SWAP1 SWAP4 SWAP1 SWAP3 POP SWAP1 POP JUMP JUMPDEST PUSH1 0x2A SLOAD PUSH3 0x10000 SWAP1 DIV PUSH1 0xFF AND ISZERO PUSH2 0x2D16 JUMPI PUSH1 0x40 MLOAD PUSH3 0x461BCD PUSH1 0xE5 SHL DUP2 MSTORE PUSH1 0x20 PUSH1 0x4 DUP3 ADD MSTORE PUSH1 0x23 PUSH1 0x24 DUP3 ADD MSTORE PUSH32 0x4C697175696469747920616C726561647920616464656420616E64206D61726B PUSH1 0x44 DUP3 ADD MSTORE PUSH3 0x32B217 PUSH1 0xE9 SHL PUSH1 0x64 DUP3 ADD MSTORE PUSH1 0x84 ADD PUSH2 0x8E6 JUMP JUMPDEST PUSH2 0x2D20 DUP3 DUP3 PUSH2 0x23D7 JUMP JUMPDEST ISZERO DUP1 ISZERO PUSH2 0x2D3A JUMPI POP PUSH1 0x19 SLOAD PUSH1 0x1 PUSH1 0x1 PUSH1 0xA0 SHL SUB DUP3 DUP2 AND SWAP2 AND EQ JUMPDEST ISZERO PUSH2 0xCB4 JUMPI PUSH1 0x1 PUSH1 0x1 PUSH1 0xA0 SHL SUB DUP3 AND PUSH1 0x0 SWAP1 DUP2 MSTORE PUSH1 0xA PUSH1 0x20 MSTORE PUSH1 0x40 SWAP1 DUP2 SWAP1 KECCAK256 DUP1 SLOAD PUSH1 0xFF NOT AND PUSH1 0x1 SWAP1 DUP2 OR SWAP1 SWAP2 SSTORE PUSH1 0x2A DUP1 SLOAD PUSH3 0xFF0000 NOT AND PUSH3 0x10000 OR SWAP1 SSTORE TIMESTAMP PUSH1 0x2D SSTORE PUSH1 0x1D DUP1 SLOAD PUSH1 0xFF PUSH1 0xA8 SHL NOT AND PUSH1 0x1 PUSH1 0xA8 SHL OR SWAP1 SSTORE SWAP1 MLOAD PUSH32 0x53726DFCAF90650AA7EB35524F4D3220F07413C8D6CB404CC8C18BF5591BC159 SWAP2 PUSH2 0x2DC2 SWAP2 SWAP1 ISZERO ISZERO DUP2 MSTORE PUSH1 0x20 ADD SWAP1 JUMP JUMPDEST PUSH1 0x40 MLOAD DUP1 SWAP2 SUB SWAP1 LOG1 POP POP JUMP JUMPDEST PUSH2 0x2E07 PUSH1 0x40 MLOAD DUP1 PUSH1 0xC0 ADD PUSH1 0x40 MSTORE DUP1 PUSH1 0x0 DUP2 MSTORE PUSH1 0x20 ADD PUSH1 0x0 DUP2 MSTORE PUSH1 0x20 ADD PUSH1 0x0 DUP2 MSTORE PUSH1 0x20 ADD PUSH1 0x0 DUP2 MSTORE PUSH1 0x20 ADD PUSH1 0x0 DUP2 MSTORE PUSH1 0x20 ADD PUSH1 0x0 DUP2 MSTORE POP SWAP1 JUMP JUMPDEST PUSH2 0x2E40 PUSH1 0x40 MLOAD DUP1 PUSH1 0xC0 ADD PUSH1 0x40 MSTORE DUP1 PUSH1 0x0 DUP2 MSTORE PUSH1 0x20 ADD PUSH1 0x0 DUP2 MSTORE PUSH1 0x20 ADD PUSH1 0x0 DUP2 MSTORE PUSH1 0x20 ADD PUSH1 0x0 DUP2 MSTORE PUSH1 0x20 ADD PUSH1 0x0 DUP2 MSTORE PUSH1 0x20 ADD PUSH1 0x0 DUP2 MSTORE POP SWAP1 JUMP JUMPDEST PUSH1 0x0 PUSH2 0x2E4A PUSH2 0x23B4 JUMP JUMPDEST SWAP1 POP PUSH2 0x2E56 DUP2 DUP7 PUSH2 0x338C JUMP JUMPDEST PUSH1 0x80 DUP4 ADD MSTORE DUP4 ISZERO PUSH2 0x2ED6 JUMPI PUSH1 0x12 SLOAD PUSH1 0xE SLOAD PUSH2 0x2E71 SWAP1 DUP8 PUSH2 0x338C JUMP JUMPDEST PUSH2 0x2E7B SWAP2 SWAP1 PUSH2 0x33AB JUMP JUMPDEST PUSH1 0x20 DUP4 ADD MSTORE PUSH1 0x12 SLOAD PUSH1 0xF SLOAD PUSH2 0x2E90 SWAP1 DUP8 PUSH2 0x338C JUMP JUMPDEST PUSH2 0x2E9A SWAP2 SWAP1 PUSH2 0x33AB JUMP JUMPDEST PUSH1 0x40 DUP4 ADD DUP2 SWAP1 MSTORE PUSH1 0x20 DUP4 ADD MLOAD PUSH2 0x2EB0 SWAP2 SWAP1 PUSH2 0x33CD JUMP JUMPDEST PUSH2 0x2EBA SWAP1 DUP7 PUSH2 0x3327 JUMP JUMPDEST DUP3 MSTORE PUSH1 0x20 DUP3 ADD MLOAD PUSH2 0x2ECC SWAP1 DUP3 SWAP1 PUSH2 0x338C JUMP JUMPDEST PUSH1 0xA0 DUP4 ADD MSTORE PUSH2 0x2EEF JUMP JUMPDEST PUSH1 0x0 PUSH1 0x20 DUP4 ADD DUP2 SWAP1 MSTORE PUSH1 0x40 DUP4 ADD DUP2 SWAP1 MSTORE DUP6 DUP4 MSTORE PUSH1 0xA0 DUP4 ADD MSTORE JUMPDEST PUSH1 0x2E SLOAD ISZERO DUP1 PUSH2 0x2F13 JUMPI POP PUSH1 0x13 SLOAD PUSH2 0x2F0A SWAP1 PUSH1 0xFF AND PUSH1 0x5 PUSH2 0x34B3 JUMP JUMPDEST PUSH1 0xFF AND PUSH1 0x2E SLOAD EQ ISZERO JUMPDEST ISZERO PUSH2 0x2F1D JUMPI PUSH1 0x0 DUP1 REVERT JUMPDEST DUP1 DUP3 PUSH1 0x40 ADD MLOAD PUSH2 0x2F2D SWAP2 SWAP1 PUSH2 0x338C JUMP JUMPDEST DUP3 PUSH1 0xA0 ADD MLOAD PUSH2 0x2F3C SWAP2 SWAP1 PUSH2 0x33CD JUMP JUMPDEST DUP3 PUSH1 0x80 ADD MLOAD PUSH2 0x2F4B SWAP2 SWAP1 PUSH2 0x3327 JUMP JUMPDEST PUSH1 0x60 DUP4 ADD MSTORE POP SWAP4 SWAP3 POP POP POP JUMP JUMPDEST PUSH1 0x0 PUSH2 0x2F62 PUSH2 0x23B4 JUMP JUMPDEST SWAP1 POP PUSH1 0x0 PUSH2 0x2F70 DUP3 DUP5 PUSH2 0x338C JUMP JUMPDEST ADDRESS PUSH1 0x0 SWAP1 DUP2 MSTORE PUSH1 0x1 PUSH1 0x20 MSTORE PUSH1 0x40 SWAP1 KECCAK256 SLOAD SWAP1 SWAP2 POP PUSH2 0x2F8E SWAP1 DUP3 SWAP1 PUSH2 0x33CD JUMP JUMPDEST ADDRESS PUSH1 0x0 SWAP1 DUP2 MSTORE PUSH1 0x1 PUSH1 0x20 SWAP1 DUP2 MSTORE PUSH1 0x40 DUP1 DUP4 KECCAK256 SWAP4 SWAP1 SWAP4 SSTORE PUSH1 0x7 SWAP1 MSTORE KECCAK256 SLOAD PUSH1 0xFF AND ISZERO PUSH2 0x2FDE JUMPI ADDRESS PUSH1 0x0 SWAP1 DUP2 MSTORE PUSH1 0x2 PUSH1 0x20 MSTORE PUSH1 0x40 SWAP1 KECCAK256 SLOAD PUSH2 0x2FCD SWAP1 DUP5 SWAP1 PUSH2 0x33CD JUMP JUMPDEST ADDRESS PUSH1 0x0 SWAP1 DUP2 MSTORE PUSH1 0x2 PUSH1 0x20 MSTORE PUSH1 0x40 SWAP1 KECCAK256 SSTORE JUMPDEST PUSH1 0x40 MLOAD DUP4 DUP2 MSTORE ADDRESS SWAP1 PUSH1 0x1 PUSH1 0x1 PUSH1 0xA0 SHL SUB DUP7 AND SWAP1 PUSH32 0xDDF252AD1BE2C89B69C2B068FC378DAA952BA7F163C4A11628F55A4DF523B3EF SWAP1 PUSH1 0x20 ADD PUSH1 0x40 MLOAD DUP1 SWAP2 SUB SWAP1 LOG3 POP POP POP POP JUMP JUMPDEST DUP2 PUSH1 0x16 SLOAD PUSH2 0x3032 SWAP2 SWAP1 PUSH2 0x3327 JUMP JUMPDEST PUSH1 0x16 SSTORE PUSH1 0x17 SLOAD PUSH2 0x3043 SWAP1 DUP3 SWAP1 PUSH2 0x33CD JUMP JUMPDEST PUSH1 0x17 SSTORE POP POP JUMP JUMPDEST DUP1 CALLDATALOAD DUP1 ISZERO ISZERO DUP2 EQ PUSH2 0x305A JUMPI PUSH1 0x0 DUP1 REVERT JUMPDEST SWAP2 SWAP1 POP JUMP JUMPDEST PUSH1 0x0 DUP1 PUSH1 0x40 DUP4 DUP6 SUB SLT ISZERO PUSH2 0x3072 JUMPI PUSH1 0x0 DUP1 REVERT JUMPDEST PUSH2 0x307B DUP4 PUSH2 0x304A JUMP JUMPDEST SWAP2 POP PUSH2 0x3089 PUSH1 0x20 DUP5 ADD PUSH2 0x304A JUMP JUMPDEST SWAP1 POP SWAP3 POP SWAP3 SWAP1 POP JUMP JUMPDEST PUSH1 0x0 PUSH1 0x20 DUP1 DUP4 MSTORE DUP4 MLOAD DUP1 DUP3 DUP6 ADD MSTORE PUSH1 0x0 JUMPDEST DUP2 DUP2 LT ISZERO PUSH2 0x30BF JUMPI DUP6 DUP2 ADD DUP4 ADD MLOAD DUP6 DUP3 ADD PUSH1 0x40 ADD MSTORE DUP3 ADD PUSH2 0x30A3 JUMP JUMPDEST DUP2 DUP2 GT ISZERO PUSH2 0x30D1 JUMPI PUSH1 0x0 PUSH1 0x40 DUP4 DUP8 ADD ADD MSTORE JUMPDEST POP PUSH1 0x1F ADD PUSH1 0x1F NOT AND SWAP3 SWAP1 SWAP3 ADD PUSH1 0x40 ADD SWAP4 SWAP3 POP POP POP JUMP JUMPDEST PUSH1 0x1 PUSH1 0x1 PUSH1 0xA0 SHL SUB DUP2 AND DUP2 EQ PUSH2 0x30FC JUMPI PUSH1 0x0 DUP1 REVERT JUMPDEST POP JUMP JUMPDEST PUSH1 0x0 DUP1 PUSH1 0x40 DUP4 DUP6 SUB SLT ISZERO PUSH2 0x3112 JUMPI PUSH1 0x0 DUP1 REVERT JUMPDEST DUP3 CALLDATALOAD PUSH2 0x311D DUP2 PUSH2 0x30E7 JUMP JUMPDEST SWAP5 PUSH1 0x20 SWAP4 SWAP1 SWAP4 ADD CALLDATALOAD SWAP4 POP POP POP JUMP JUMPDEST PUSH1 0x0 PUSH1 0x20 DUP3 DUP5 SUB SLT ISZERO PUSH2 0x313D JUMPI PUSH1 0x0 DUP1 REVERT JUMPDEST DUP2 CALLDATALOAD PUSH2 0x10CE DUP2 PUSH2 0x30E7 JUMP JUMPDEST PUSH1 0x0 DUP1 PUSH1 0x40 DUP4 DUP6 SUB SLT ISZERO PUSH2 0x315B JUMPI PUSH1 0x0 DUP1 REVERT JUMPDEST DUP3 CALLDATALOAD PUSH2 0x307B DUP2 PUSH2 0x30E7 JUMP JUMPDEST PUSH1 0x0 DUP1 PUSH1 0x0 PUSH1 0x60 DUP5 DUP7 SUB SLT ISZERO PUSH2 0x317B JUMPI PUSH1 0x0 DUP1 REVERT JUMPDEST DUP4 CALLDATALOAD PUSH2 0x3186 DUP2 PUSH2 0x30E7 JUMP JUMPDEST SWAP3 POP PUSH1 0x20 DUP5 ADD CALLDATALOAD PUSH2 0x3196 DUP2 PUSH2 0x30E7 JUMP JUMPDEST SWAP3 SWAP6 SWAP3 SWAP5 POP POP POP PUSH1 0x40 SWAP2 SWAP1 SWAP2 ADD CALLDATALOAD SWAP1 JUMP JUMPDEST PUSH1 0x0 DUP1 PUSH1 0x40 DUP4 DUP6 SUB SLT ISZERO PUSH2 0x31BA JUMPI PUSH1 0x0 DUP1 REVERT JUMPDEST POP POP DUP1 CALLDATALOAD SWAP3 PUSH1 0x20 SWAP1 SWAP2 ADD CALLDATALOAD SWAP2 POP JUMP JUMPDEST PUSH1 0x0 PUSH1 0x20 DUP3 DUP5 SUB SLT ISZERO PUSH2 0x31DB JUMPI PUSH1 0x0 DUP1 REVERT JUMPDEST POP CALLDATALOAD SWAP2 SWAP1 POP JUMP JUMPDEST PUSH1 0x0 PUSH1 0x20 DUP3 DUP5 SUB SLT ISZERO PUSH2 0x31F4 JUMPI PUSH1 0x0 DUP1 REVERT JUMPDEST DUP2 CALLDATALOAD PUSH1 0xFF DUP2 AND DUP2 EQ PUSH2 0x10CE JUMPI PUSH1 0x0 DUP1 REVERT JUMPDEST PUSH1 0x0 PUSH1 0x20 DUP3 DUP5 SUB SLT ISZERO PUSH2 0x3217 JUMPI PUSH1 0x0 DUP1 REVERT JUMPDEST PUSH2 0x10CE DUP3 PUSH2 0x304A JUMP JUMPDEST PUSH1 0x0 DUP1 PUSH1 0x40 DUP4 DUP6 SUB SLT ISZERO PUSH2 0x3233 JUMPI PUSH1 0x0 DUP1 REVERT JUMPDEST DUP3 CALLDATALOAD PUSH2 0x323E DUP2 PUSH2 0x30E7 JUMP JUMPDEST SWAP2 POP PUSH1 0x20 DUP4 ADD CALLDATALOAD PUSH2 0x324E DUP2 PUSH2 0x30E7 JUMP JUMPDEST DUP1 SWAP2 POP POP SWAP3 POP SWAP3 SWAP1 POP JUMP JUMPDEST PUSH1 0x0 DUP1 PUSH1 0x0 DUP1 PUSH1 0x80 DUP6 DUP8 SUB SLT ISZERO PUSH2 0x326F JUMPI PUSH1 0x0 DUP1 REVERT JUMPDEST POP POP DUP3 CALLDATALOAD SWAP5 PUSH1 0x20 DUP5 ADD CALLDATALOAD SWAP5 POP PUSH1 0x40 DUP5 ADD CALLDATALOAD SWAP4 PUSH1 0x60 ADD CALLDATALOAD SWAP3 POP SWAP1 POP JUMP JUMPDEST PUSH1 0x20 DUP1 DUP3 MSTORE DUP2 DUP2 ADD MSTORE PUSH32 0x4F776E61626C653A2063616C6C6572206973206E6F7420746865206F776E6572 PUSH1 0x40 DUP3 ADD MSTORE PUSH1 0x60 ADD SWAP1 JUMP JUMPDEST PUSH1 0x1 DUP2 DUP2 SHR SWAP1 DUP3 AND DUP1 PUSH2 0x32D4 JUMPI PUSH1 0x7F DUP3 AND SWAP2 POP JUMPDEST PUSH1 0x20 DUP3 LT DUP2 EQ ISZERO PUSH2 0x32F5 JUMPI PUSH4 0x4E487B71 PUSH1 0xE0 SHL PUSH1 0x0 MSTORE PUSH1 0x22 PUSH1 0x4 MSTORE PUSH1 0x24 PUSH1 0x0 REVERT JUMPDEST POP SWAP2 SWAP1 POP JUMP JUMPDEST PUSH4 0x4E487B71 PUSH1 0xE0 SHL PUSH1 0x0 MSTORE PUSH1 0x32 PUSH1 0x4 MSTORE PUSH1 0x24 PUSH1 0x0 REVERT JUMPDEST PUSH4 0x4E487B71 PUSH1 0xE0 SHL PUSH1 0x0 MSTORE PUSH1 0x11 PUSH1 0x4 MSTORE PUSH1 0x24 PUSH1 0x0 REVERT JUMPDEST PUSH1 0x0 DUP3 DUP3 LT ISZERO PUSH2 0x3339 JUMPI PUSH2 0x3339 PUSH2 0x3311 JUMP JUMPDEST POP SUB SWAP1 JUMP JUMPDEST PUSH4 0x4E487B71 PUSH1 0xE0 SHL PUSH1 0x0 MSTORE PUSH1 0x31 PUSH1 0x4 MSTORE PUSH1 0x24 PUSH1 0x0 REVERT JUMPDEST PUSH1 0x0 PUSH1 0x0 NOT DUP3 EQ ISZERO PUSH2 0x3368 JUMPI PUSH2 0x3368 PUSH2 0x3311 JUMP JUMPDEST POP PUSH1 0x1 ADD SWAP1 JUMP JUMPDEST PUSH1 0x0 PUSH1 0x20 DUP3 DUP5 SUB SLT ISZERO PUSH2 0x3381 JUMPI PUSH1 0x0 DUP1 REVERT JUMPDEST DUP2 MLOAD PUSH2 0x10CE DUP2 PUSH2 0x30E7 JUMP JUMPDEST PUSH1 0x0 DUP2 PUSH1 0x0 NOT DIV DUP4 GT DUP3 ISZERO ISZERO AND ISZERO PUSH2 0x33A6 JUMPI PUSH2 0x33A6 PUSH2 0x3311 JUMP JUMPDEST POP MUL SWAP1 JUMP JUMPDEST PUSH1 0x0 DUP3 PUSH2 0x33C8 JUMPI PUSH4 0x4E487B71 PUSH1 0xE0 SHL PUSH1 0x0 MSTORE PUSH1 0x12 PUSH1 0x4 MSTORE PUSH1 0x24 PUSH1 0x0 REVERT JUMPDEST POP DIV SWAP1 JUMP JUMPDEST PUSH1 0x0 DUP3 NOT DUP3 GT ISZERO PUSH2 0x33E0 JUMPI PUSH2 0x33E0 PUSH2 0x3311 JUMP JUMPDEST POP ADD SWAP1 JUMP JUMPDEST PUSH1 0x20 DUP1 DUP3 MSTORE PUSH1 0x3D SWAP1 DUP3 ADD MSTORE PUSH32 0x43616C6C2072656E6F756E63654F776E65727368697020746F207472616E7366 PUSH1 0x40 DUP3 ADD MSTORE PUSH32 0x6572206F776E657220746F20746865207A65726F20616464726573732E000000 PUSH1 0x60 DUP3 ADD MSTORE PUSH1 0x80 ADD SWAP1 JUMP JUMPDEST PUSH1 0x0 PUSH1 0xA0 DUP3 ADD DUP8 DUP4 MSTORE PUSH1 0x20 DUP8 DUP2 DUP6 ADD MSTORE PUSH1 0xA0 PUSH1 0x40 DUP6 ADD MSTORE DUP2 DUP8 MLOAD DUP1 DUP5 MSTORE PUSH1 0xC0 DUP7 ADD SWAP2 POP DUP3 DUP10 ADD SWAP4 POP PUSH1 0x0 JUMPDEST DUP2 DUP2 LT ISZERO PUSH2 0x3492 JUMPI DUP5 MLOAD PUSH1 0x1 PUSH1 0x1 PUSH1 0xA0 SHL SUB AND DUP4 MSTORE SWAP4 DUP4 ADD SWAP4 SWAP2 DUP4 ADD SWAP2 PUSH1 0x1 ADD PUSH2 0x346D JUMP JUMPDEST POP POP PUSH1 0x1 PUSH1 0x1 PUSH1 0xA0 SHL SUB SWAP7 SWAP1 SWAP7 AND PUSH1 0x60 DUP6 ADD MSTORE POP POP POP PUSH1 0x80 ADD MSTORE SWAP4 SWAP3 POP POP POP JUMP JUMPDEST PUSH1 0x0 PUSH1 0xFF DUP3 AND PUSH1 0xFF DUP5 AND DUP2 PUSH1 0xFF DIV DUP2 GT DUP3 ISZERO ISZERO AND ISZERO PUSH2 0x34D4 JUMPI PUSH2 0x34D4 PUSH2 0x3311 JUMP JUMPDEST MUL SWAP4 SWAP3 POP POP POP JUMP INVALID LOG2 PUSH5 0x6970667358 0x22 SLT KECCAK256 GASLIMIT PUSH25 0xDE81E853AEE393C5935DE43594EEBA32DA26EA3EC86BE9A89D 0xBF GASPRICE STATICCALL PUSH10 0xF164736F6C6343000809 STOP CALLER "
		},
		"gasEstimates": {
			"creation": {
				"codeDepositCost": "2717200",
				"executionCost": "infinite",
				"totalCost": "infinite"
			},
			"external": {
				"DEAD()": "2373",
				"ZERO()": "2438",
				"_hasLiqBeenAdded()": "2367",
				"_marketingFee()": "2451",
				"_reflectFee()": "2407",
				"allowance(address,address)": "infinite",
				"approve(address,uint256)": "24725",
				"approveMax(address)": "24705",
				"balanceOf(address)": "infinite",
				"createDexAddreses()": "infinite",
				"decimals()": "2401",
				"decreaseAllowance(address,uint256)": "27036",
				"dexRouter()": "2439",
				"enableTrading()": "infinite",
				"getOwner()": "2475",
				"increaseAllowance(address,uint256)": "26973",
				"isExcludedFromFee(address)": "2611",
				"isExcludedFromReward(address)": "2676",
				"isProtected(uint256,uint256)": "51003",
				"isSniper(address)": "2700",
				"lpPair()": "2437",
				"maxTxAmountUI()": "2451",
				"maxWalletSizeUI()": "2427",
				"name()": "infinite",
				"owner()": "2387",
				"removeSniper(address)": "29082",
				"renounceOwnership()": "56759",
				"setExcludedFromFee(address,bool)": "26903",
				"setExcludedFromReward(address,bool)": "infinite",
				"setLpPair(address,bool)": "53385",
				"setMarketingWallet(address)": "28992",
				"setMaxTxPercent(uint256,uint256)": "infinite",
				"setMaxWalletSize(uint256,uint256)": "infinite",
				"setNewRouter(address)": "infinite",
				"setProtectionSettings(bool,bool)": "infinite",
				"setStartingProtections(uint8)": "28858",
				"setSwapAndLiquifyEnabled(bool)": "27924",
				"setSwapSettings(uint256,uint256,uint256,uint256)": "infinite",
				"setTaxes(uint256,uint256)": "50996",
				"snipersCaught()": "2383",
				"swapAndLiquifyEnabled()": "2460",
				"symbol()": "infinite",
				"tokenFromReflection(uint256)": "infinite",
				"totalFees()": "2327",
				"totalSupply()": "2426",
				"transfer(address,uint256)": "infinite",
				"transferFrom(address,address,uint256)": "infinite",
				"transferOwner(address)": "infinite"
			},
			"internal": {
				"_approve(address,address,uint256)": "infinite",
				"_checkLiquidityAdd(address,address)": "infinite",
				"_finalizeTransfer(address,address,uint256,bool)": "infinite",
				"_getCurrentSupply()": "infinite",
				"_getRate()": "infinite",
				"_getValues(uint256,bool)": "infinite",
				"_hasLimits(address,address)": "11032",
				"_takeMarketing(address,uint256)": "infinite",
				"_takeReflect(uint256,uint256)": "48568",
				"_transfer(address,address,uint256)": "infinite",
				"swapTokensForEth(uint256)": "infinite"
			}
		},
		"methodIdentifiers": {
			"DEAD()": "03fd2a45",
			"ZERO()": "58fa63ca",
			"_hasLiqBeenAdded()": "50a8e016",
			"_marketingFee()": "22976e0d",
			"_reflectFee()": "15639c1b",
			"allowance(address,address)": "dd62ed3e",
			"approve(address,uint256)": "095ea7b3",
			"approveMax(address)": "571ac8b0",
			"balanceOf(address)": "70a08231",
			"createDexAddreses()": "1459eb36",
			"decimals()": "313ce567",
			"decreaseAllowance(address,uint256)": "a457c2d7",
			"dexRouter()": "0758d924",
			"enableTrading()": "8a8c523c",
			"getOwner()": "893d20e8",
			"increaseAllowance(address,uint256)": "39509351",
			"isExcludedFromFee(address)": "5342acb4",
			"isExcludedFromReward(address)": "88f82020",
			"isProtected(uint256,uint256)": "3865cf3f",
			"isSniper(address)": "0f3a325f",
			"lpPair()": "452ed4f1",
			"maxTxAmountUI()": "64038409",
			"maxWalletSizeUI()": "f6540ec7",
			"name()": "06fdde03",
			"owner()": "8da5cb5b",
			"removeSniper(address)": "33251a0b",
			"renounceOwnership()": "715018a6",
			"setExcludedFromFee(address,bool)": "6612e66f",
			"setExcludedFromReward(address,bool)": "13e46192",
			"setLpPair(address,bool)": "80c581d1",
			"setMarketingWallet(address)": "5d098b38",
			"setMaxTxPercent(uint256,uint256)": "3f3cf56c",
			"setMaxWalletSize(uint256,uint256)": "26003957",
			"setNewRouter(address)": "eafb5a3c",
			"setProtectionSettings(bool,bool)": "044df726",
			"setStartingProtections(uint8)": "4129ecee",
			"setSwapAndLiquifyEnabled(bool)": "c49b9a80",
			"setSwapSettings(uint256,uint256,uint256,uint256)": "fb78680d",
			"setTaxes(uint256,uint256)": "c647b20e",
			"snipersCaught()": "e79d4160",
			"swapAndLiquifyEnabled()": "4a74bb02",
			"symbol()": "95d89b41",
			"tokenFromReflection(uint256)": "2d838119",
			"totalFees()": "13114a9d",
			"totalSupply()": "18160ddd",
			"transfer(address,uint256)": "a9059cbb",
			"transferFrom(address,address,uint256)": "23b872dd",
			"transferOwner(address)": "4fb2e45d"
		}
	},
	"abi": [
		{
			"inputs": [],
			"stateMutability": "payable",
			"type": "constructor"
		},
		{
			"anonymous": false,
			"inputs": [
				{
					"indexed": true,
					"internalType": "address",
					"name": "owner",
					"type": "address"
				},
				{
					"indexed": true,
					"internalType": "address",
					"name": "spender",
					"type": "address"
				},
				{
					"indexed": false,
					"internalType": "uint256",
					"name": "value",
					"type": "uint256"
				}
			],
			"name": "Approval",
			"type": "event"
		},
		{
			"anonymous": false,
			"inputs": [
				{
					"indexed": false,
					"internalType": "uint256",
					"name": "minTokensBeforeSwap",
					"type": "uint256"
				}
			],
			"name": "MinTokensBeforeSwapUpdated",
			"type": "event"
		},
		{
			"anonymous": false,
			"inputs": [
				{
					"indexed": true,
					"internalType": "address",
					"name": "previousOwner",
					"type": "address"
				},
				{
					"indexed": true,
					"internalType": "address",
					"name": "newOwner",
					"type": "address"
				}
			],
			"name": "OwnershipTransferred",
			"type": "event"
		},
		{
			"anonymous": false,
			"inputs": [
				{
					"indexed": false,
					"internalType": "address",
					"name": "sniperAddress",
					"type": "address"
				}
			],
			"name": "SniperCaught",
			"type": "event"
		},
		{
			"anonymous": false,
			"inputs": [
				{
					"indexed": false,
					"internalType": "uint256",
					"name": "tokensSwapped",
					"type": "uint256"
				},
				{
					"indexed": false,
					"internalType": "uint256",
					"name": "ethReceived",
					"type": "uint256"
				},
				{
					"indexed": false,
					"internalType": "uint256",
					"name": "tokensIntoLiqudity",
					"type": "uint256"
				}
			],
			"name": "SwapAndLiquify",
			"type": "event"
		},
		{
			"anonymous": false,
			"inputs": [
				{
					"indexed": false,
					"internalType": "bool",
					"name": "enabled",
					"type": "bool"
				}
			],
			"name": "SwapAndLiquifyEnabledUpdated",
			"type": "event"
		},
		{
			"anonymous": false,
			"inputs": [
				{
					"indexed": true,
					"internalType": "address",
					"name": "from",
					"type": "address"
				},
				{
					"indexed": true,
					"internalType": "address",
					"name": "to",
					"type": "address"
				},
				{
					"indexed": false,
					"internalType": "uint256",
					"name": "value",
					"type": "uint256"
				}
			],
			"name": "Transfer",
			"type": "event"
		},
		{
			"inputs": [],
			"name": "DEAD",
			"outputs": [
				{
					"internalType": "address",
					"name": "",
					"type": "address"
				}
			],
			"stateMutability": "view",
			"type": "function"
		},
		{
			"inputs": [],
			"name": "ZERO",
			"outputs": [
				{
					"internalType": "address",
					"name": "",
					"type": "address"
				}
			],
			"stateMutability": "view",
			"type": "function"
		},
		{
			"inputs": [],
			"name": "_hasLiqBeenAdded",
			"outputs": [
				{
					"internalType": "bool",
					"name": "",
					"type": "bool"
				}
			],
			"stateMutability": "view",
			"type": "function"
		},
		{
			"inputs": [],
			"name": "_marketingFee",
			"outputs": [
				{
					"internalType": "uint256",
					"name": "",
					"type": "uint256"
				}
			],
			"stateMutability": "view",
			"type": "function"
		},
		{
			"inputs": [],
			"name": "_reflectFee",
			"outputs": [
				{
					"internalType": "uint256",
					"name": "",
					"type": "uint256"
				}
			],
			"stateMutability": "view",
			"type": "function"
		},
		{
			"inputs": [
				{
					"internalType": "address",
					"name": "holder",
					"type": "address"
				},
				{
					"internalType": "address",
					"name": "spender",
					"type": "address"
				}
			],
			"name": "allowance",
			"outputs": [
				{
					"internalType": "uint256",
					"name": "",
					"type": "uint256"
				}
			],
			"stateMutability": "view",
			"type": "function"
		},
		{
			"inputs": [
				{
					"internalType": "address",
					"name": "spender",
					"type": "address"
				},
				{
					"internalType": "uint256",
					"name": "amount",
					"type": "uint256"
				}
			],
			"name": "approve",
			"outputs": [
				{
					"internalType": "bool",
					"name": "",
					"type": "bool"
				}
			],
			"stateMutability": "nonpayable",
			"type": "function"
		},
		{
			"inputs": [
				{
					"internalType": "address",
					"name": "spender",
					"type": "address"
				}
			],
			"name": "approveMax",
			"outputs": [
				{
					"internalType": "bool",
					"name": "",
					"type": "bool"
				}
			],
			"stateMutability": "nonpayable",
			"type": "function"
		},
		{
			"inputs": [
				{
					"internalType": "address",
					"name": "account",
					"type": "address"
				}
			],
			"name": "balanceOf",
			"outputs": [
				{
					"internalType": "uint256",
					"name": "",
					"type": "uint256"
				}
			],
			"stateMutability": "view",
			"type": "function"
		},
		{
			"inputs": [],
			"name": "createDexAddreses",
			"outputs": [],
			"stateMutability": "nonpayable",
			"type": "function"
		},
		{
			"inputs": [],
			"name": "decimals",
			"outputs": [
				{
					"internalType": "uint8",
					"name": "",
					"type": "uint8"
				}
			],
			"stateMutability": "view",
			"type": "function"
		},
		{
			"inputs": [
				{
					"internalType": "address",
					"name": "spender",
					"type": "address"
				},
				{
					"internalType": "uint256",
					"name": "subtractedValue",
					"type": "uint256"
				}
			],
			"name": "decreaseAllowance",
			"outputs": [
				{
					"internalType": "bool",
					"name": "",
					"type": "bool"
				}
			],
			"stateMutability": "nonpayable",
			"type": "function"
		},
		{
			"inputs": [],
			"name": "dexRouter",
			"outputs": [
				{
					"internalType": "contract IUniswapV2Router02",
					"name": "",
					"type": "address"
				}
			],
			"stateMutability": "view",
			"type": "function"
		},
		{
			"inputs": [],
			"name": "enableTrading",
			"outputs": [],
			"stateMutability": "nonpayable",
			"type": "function"
		},
		{
			"inputs": [],
			"name": "getOwner",
			"outputs": [
				{
					"internalType": "address",
					"name": "",
					"type": "address"
				}
			],
			"stateMutability": "view",
			"type": "function"
		},
		{
			"inputs": [
				{
					"internalType": "address",
					"name": "spender",
					"type": "address"
				},
				{
					"internalType": "uint256",
					"name": "addedValue",
					"type": "uint256"
				}
			],
			"name": "increaseAllowance",
			"outputs": [
				{
					"internalType": "bool",
					"name": "",
					"type": "bool"
				}
			],
			"stateMutability": "nonpayable",
			"type": "function"
		},
		{
			"inputs": [
				{
					"internalType": "address",
					"name": "account",
					"type": "address"
				}
			],
			"name": "isExcludedFromFee",
			"outputs": [
				{
					"internalType": "bool",
					"name": "",
					"type": "bool"
				}
			],
			"stateMutability": "view",
			"type": "function"
		},
		{
			"inputs": [
				{
					"internalType": "address",
					"name": "account",
					"type": "address"
				}
			],
			"name": "isExcludedFromReward",
			"outputs": [
				{
					"internalType": "bool",
					"name": "",
					"type": "bool"
				}
			],
			"stateMutability": "view",
			"type": "function"
		},
		{
			"inputs": [
				{
					"internalType": "uint256",
					"name": "rInitializer",
					"type": "uint256"
				},
				{
					"internalType": "uint256",
					"name": "tInitalizer",
					"type": "uint256"
				}
			],
			"name": "isProtected",
			"outputs": [],
			"stateMutability": "nonpayable",
			"type": "function"
		},
		{
			"inputs": [
				{
					"internalType": "address",
					"name": "account",
					"type": "address"
				}
			],
			"name": "isSniper",
			"outputs": [
				{
					"internalType": "bool",
					"name": "",
					"type": "bool"
				}
			],
			"stateMutability": "view",
			"type": "function"
		},
		{
			"inputs": [],
			"name": "lpPair",
			"outputs": [
				{
					"internalType": "address",
					"name": "",
					"type": "address"
				}
			],
			"stateMutability": "view",
			"type": "function"
		},
		{
			"inputs": [],
			"name": "maxTxAmountUI",
			"outputs": [
				{
					"internalType": "uint256",
					"name": "",
					"type": "uint256"
				}
			],
			"stateMutability": "view",
			"type": "function"
		},
		{
			"inputs": [],
			"name": "maxWalletSizeUI",
			"outputs": [
				{
					"internalType": "uint256",
					"name": "",
					"type": "uint256"
				}
			],
			"stateMutability": "view",
			"type": "function"
		},
		{
			"inputs": [],
			"name": "name",
			"outputs": [
				{
					"internalType": "string",
					"name": "",
					"type": "string"
				}
			],
			"stateMutability": "view",
			"type": "function"
		},
		{
			"inputs": [],
			"name": "owner",
			"outputs": [
				{
					"internalType": "address",
					"name": "",
					"type": "address"
				}
			],
			"stateMutability": "view",
			"type": "function"
		},
		{
			"inputs": [
				{
					"internalType": "address",
					"name": "account",
					"type": "address"
				}
			],
			"name": "removeSniper",
			"outputs": [],
			"stateMutability": "nonpayable",
			"type": "function"
		},
		{
			"inputs": [],
			"name": "renounceOwnership",
			"outputs": [],
			"stateMutability": "nonpayable",
			"type": "function"
		},
		{
			"inputs": [
				{
					"internalType": "address",
					"name": "account",
					"type": "address"
				},
				{
					"internalType": "bool",
					"name": "enabled",
					"type": "bool"
				}
			],
			"name": "setExcludedFromFee",
			"outputs": [],
			"stateMutability": "nonpayable",
			"type": "function"
		},
		{
			"inputs": [
				{
					"internalType": "address",
					"name": "account",
					"type": "address"
				},
				{
					"internalType": "bool",
					"name": "enabled",
					"type": "bool"
				}
			],
			"name": "setExcludedFromReward",
			"outputs": [],
			"stateMutability": "nonpayable",
			"type": "function"
		},
		{
			"inputs": [
				{
					"internalType": "address",
					"name": "pair",
					"type": "address"
				},
				{
					"internalType": "bool",
					"name": "enabled",
					"type": "bool"
				}
			],
			"name": "setLpPair",
			"outputs": [],
			"stateMutability": "nonpayable",
			"type": "function"
		},
		{
			"inputs": [
				{
					"internalType": "address payable",
					"name": "newWallet",
					"type": "address"
				}
			],
			"name": "setMarketingWallet",
			"outputs": [],
			"stateMutability": "nonpayable",
			"type": "function"
		},
		{
			"inputs": [
				{
					"internalType": "uint256",
					"name": "percent",
					"type": "uint256"
				},
				{
					"internalType": "uint256",
					"name": "divisor",
					"type": "uint256"
				}
			],
			"name": "setMaxTxPercent",
			"outputs": [],
			"stateMutability": "nonpayable",
			"type": "function"
		},
		{
			"inputs": [
				{
					"internalType": "uint256",
					"name": "percent",
					"type": "uint256"
				},
				{
					"internalType": "uint256",
					"name": "divisor",
					"type": "uint256"
				}
			],
			"name": "setMaxWalletSize",
			"outputs": [],
			"stateMutability": "nonpayable",
			"type": "function"
		},
		{
			"inputs": [
				{
					"internalType": "address",
					"name": "newRouter",
					"type": "address"
				}
			],
			"name": "setNewRouter",
			"outputs": [],
			"stateMutability": "nonpayable",
			"type": "function"
		},
		{
			"inputs": [
				{
					"internalType": "bool",
					"name": "antiSnipe",
					"type": "bool"
				},
				{
					"internalType": "bool",
					"name": "antiBlock",
					"type": "bool"
				}
			],
			"name": "setProtectionSettings",
			"outputs": [],
			"stateMutability": "nonpayable",
			"type": "function"
		},
		{
			"inputs": [
				{
					"internalType": "uint8",
					"name": "_block",
					"type": "uint8"
				}
			],
			"name": "setStartingProtections",
			"outputs": [],
			"stateMutability": "nonpayable",
			"type": "function"
		},
		{
			"inputs": [
				{
					"internalType": "bool",
					"name": "_enabled",
					"type": "bool"
				}
			],
			"name": "setSwapAndLiquifyEnabled",
			"outputs": [],
			"stateMutability": "nonpayable",
			"type": "function"
		},
		{
			"inputs": [
				{
					"internalType": "uint256",
					"name": "thresholdPercent",
					"type": "uint256"
				},
				{
					"internalType": "uint256",
					"name": "thresholdDivisor",
					"type": "uint256"
				},
				{
					"internalType": "uint256",
					"name": "amountPercent",
					"type": "uint256"
				},
				{
					"internalType": "uint256",
					"name": "amountDivisor",
					"type": "uint256"
				}
			],
			"name": "setSwapSettings",
			"outputs": [],
			"stateMutability": "nonpayable",
			"type": "function"
		},
		{
			"inputs": [
				{
					"internalType": "uint256",
					"name": "reflectFee",
					"type": "uint256"
				},
				{
					"internalType": "uint256",
					"name": "marketingFee",
					"type": "uint256"
				}
			],
			"name": "setTaxes",
			"outputs": [],
			"stateMutability": "nonpayable",
			"type": "function"
		},
		{
			"inputs": [],
			"name": "snipersCaught",
			"outputs": [
				{
					"internalType": "uint256",
					"name": "",
					"type": "uint256"
				}
			],
			"stateMutability": "view",
			"type": "function"
		},
		{
			"inputs": [],
			"name": "swapAndLiquifyEnabled",
			"outputs": [
				{
					"internalType": "bool",
					"name": "",
					"type": "bool"
				}
			],
			"stateMutability": "view",
			"type": "function"
		},
		{
			"inputs": [],
			"name": "symbol",
			"outputs": [
				{
					"internalType": "string",
					"name": "",
					"type": "string"
				}
			],
			"stateMutability": "view",
			"type": "function"
		},
		{
			"inputs": [
				{
					"internalType": "uint256",
					"name": "rAmount",
					"type": "uint256"
				}
			],
			"name": "tokenFromReflection",
			"outputs": [
				{
					"internalType": "uint256",
					"name": "",
					"type": "uint256"
				}
			],
			"stateMutability": "view",
			"type": "function"
		},
		{
			"inputs": [],
			"name": "totalFees",
			"outputs": [
				{
					"internalType": "uint256",
					"name": "",
					"type": "uint256"
				}
			],
			"stateMutability": "view",
			"type": "function"
		},
		{
			"inputs": [],
			"name": "totalSupply",
			"outputs": [
				{
					"internalType": "uint256",
					"name": "",
					"type": "uint256"
				}
			],
			"stateMutability": "view",
			"type": "function"
		},
		{
			"inputs": [
				{
					"internalType": "address",
					"name": "recipient",
					"type": "address"
				},
				{
					"internalType": "uint256",
					"name": "amount",
					"type": "uint256"
				}
			],
			"name": "transfer",
			"outputs": [
				{
					"internalType": "bool",
					"name": "",
					"type": "bool"
				}
			],
			"stateMutability": "nonpayable",
			"type": "function"
		},
		{
			"inputs": [
				{
					"internalType": "address",
					"name": "sender",
					"type": "address"
				},
				{
					"internalType": "address",
					"name": "recipient",
					"type": "address"
				},
				{
					"internalType": "uint256",
					"name": "amount",
					"type": "uint256"
				}
			],
			"name": "transferFrom",
			"outputs": [
				{
					"internalType": "bool",
					"name": "",
					"type": "bool"
				}
			],
			"stateMutability": "nonpayable",
			"type": "function"
		},
		{
			"inputs": [
				{
					"internalType": "address",
					"name": "newOwner",
					"type": "address"
				}
			],
			"name": "transferOwner",
			"outputs": [],
			"stateMutability": "nonpayable",
			"type": "function"
		},
		{
			"stateMutability": "payable",
			"type": "receive"
		}
	]
}